{"abi":[{"type":"constructor","inputs":[],"stateMutability":"nonpayable"},{"type":"function","name":"approve","inputs":[{"name":"to","type":"address","internalType":"address"},{"name":"tokenId","type":"uint256","internalType":"uint256"}],"outputs":[],"stateMutability":"nonpayable"},{"type":"function","name":"balanceOf","inputs":[{"name":"owner","type":"address","internalType":"address"}],"outputs":[{"name":"","type":"uint256","internalType":"uint256"}],"stateMutability":"view"},{"type":"function","name":"getApproved","inputs":[{"name":"tokenId","type":"uint256","internalType":"uint256"}],"outputs":[{"name":"","type":"address","internalType":"address"}],"stateMutability":"view"},{"type":"function","name":"getTokenId","inputs":[{"name":"name","type":"string","internalType":"string"}],"outputs":[{"name":"","type":"uint256","internalType":"uint256"}],"stateMutability":"pure"},{"type":"function","name":"isApprovedForAll","inputs":[{"name":"owner","type":"address","internalType":"address"},{"name":"operator","type":"address","internalType":"address"}],"outputs":[{"name":"","type":"bool","internalType":"bool"}],"stateMutability":"view"},{"type":"function","name":"mint","inputs":[{"name":"to","type":"address","internalType":"address"},{"name":"name","type":"string","internalType":"string"},{"name":"_resolvedAddress","type":"address","internalType":"address"}],"outputs":[],"stateMutability":"nonpayable"},{"type":"function","name":"mintContract","inputs":[],"outputs":[{"name":"","type":"address","internalType":"address"}],"stateMutability":"view"},{"type":"function","name":"name","inputs":[],"outputs":[{"name":"","type":"string","internalType":"string"}],"stateMutability":"view"},{"type":"function","name":"nameExists","inputs":[{"name":"name","type":"string","internalType":"string"}],"outputs":[{"name":"","type":"bool","internalType":"bool"}],"stateMutability":"view"},{"type":"function","name":"nameToToken","inputs":[{"name":"","type":"bytes32","internalType":"bytes32"}],"outputs":[{"name":"","type":"uint256","internalType":"uint256"}],"stateMutability":"view"},{"type":"function","name":"owner","inputs":[],"outputs":[{"name":"","type":"address","internalType":"address"}],"stateMutability":"view"},{"type":"function","name":"ownerOf","inputs":[{"name":"tokenId","type":"uint256","internalType":"uint256"}],"outputs":[{"name":"","type":"address","internalType":"address"}],"stateMutability":"view"},{"type":"function","name":"renounceOwnership","inputs":[],"outputs":[],"stateMutability":"nonpayable"},{"type":"function","name":"resolvedAddress","inputs":[{"name":"","type":"uint256","internalType":"uint256"}],"outputs":[{"name":"","type":"address","internalType":"address"}],"stateMutability":"view"},{"type":"function","name":"safeTransferFrom","inputs":[{"name":"from","type":"address","internalType":"address"},{"name":"to","type":"address","internalType":"address"},{"name":"tokenId","type":"uint256","internalType":"uint256"}],"outputs":[],"stateMutability":"nonpayable"},{"type":"function","name":"safeTransferFrom","inputs":[{"name":"from","type":"address","internalType":"address"},{"name":"to","type":"address","internalType":"address"},{"name":"tokenId","type":"uint256","internalType":"uint256"},{"name":"data","type":"bytes","internalType":"bytes"}],"outputs":[],"stateMutability":"nonpayable"},{"type":"function","name":"setApprovalForAll","inputs":[{"name":"operator","type":"address","internalType":"address"},{"name":"approved","type":"bool","internalType":"bool"}],"outputs":[],"stateMutability":"nonpayable"},{"type":"function","name":"setMintContract","inputs":[{"name":"_mintContract","type":"address","internalType":"address"}],"outputs":[],"stateMutability":"nonpayable"},{"type":"function","name":"setResolvedAddress","inputs":[{"name":"tokenId","type":"uint256","internalType":"uint256"},{"name":"_resolvedAddress","type":"address","internalType":"address"}],"outputs":[],"stateMutability":"nonpayable"},{"type":"function","name":"supportsInterface","inputs":[{"name":"interfaceId","type":"bytes4","internalType":"bytes4"}],"outputs":[{"name":"","type":"bool","internalType":"bool"}],"stateMutability":"view"},{"type":"function","name":"symbol","inputs":[],"outputs":[{"name":"","type":"string","internalType":"string"}],"stateMutability":"view"},{"type":"function","name":"tokenName","inputs":[{"name":"","type":"uint256","internalType":"uint256"}],"outputs":[{"name":"","type":"string","internalType":"string"}],"stateMutability":"view"},{"type":"function","name":"tokenURI","inputs":[{"name":"tokenId","type":"uint256","internalType":"uint256"}],"outputs":[{"name":"","type":"string","internalType":"string"}],"stateMutability":"view"},{"type":"function","name":"transferFrom","inputs":[{"name":"from","type":"address","internalType":"address"},{"name":"to","type":"address","internalType":"address"},{"name":"tokenId","type":"uint256","internalType":"uint256"}],"outputs":[],"stateMutability":"nonpayable"},{"type":"function","name":"transferOwnership","inputs":[{"name":"newOwner","type":"address","internalType":"address"}],"outputs":[],"stateMutability":"nonpayable"},{"type":"function","name":"withdraw","inputs":[],"outputs":[],"stateMutability":"nonpayable"},{"type":"event","name":"Approval","inputs":[{"name":"owner","type":"address","indexed":true,"internalType":"address"},{"name":"approved","type":"address","indexed":true,"internalType":"address"},{"name":"tokenId","type":"uint256","indexed":true,"internalType":"uint256"}],"anonymous":false},{"type":"event","name":"ApprovalForAll","inputs":[{"name":"owner","type":"address","indexed":true,"internalType":"address"},{"name":"operator","type":"address","indexed":true,"internalType":"address"},{"name":"approved","type":"bool","indexed":false,"internalType":"bool"}],"anonymous":false},{"type":"event","name":"MintContractUpdated","inputs":[{"name":"newMintContract","type":"address","indexed":true,"internalType":"address"}],"anonymous":false},{"type":"event","name":"OwnershipTransferred","inputs":[{"name":"previousOwner","type":"address","indexed":true,"internalType":"address"},{"name":"newOwner","type":"address","indexed":true,"internalType":"address"}],"anonymous":false},{"type":"event","name":"ResolvedAddressUpdated","inputs":[{"name":"tokenId","type":"uint256","indexed":true,"internalType":"uint256"},{"name":"newAddress","type":"address","indexed":true,"internalType":"address"}],"anonymous":false},{"type":"event","name":"Transfer","inputs":[{"name":"from","type":"address","indexed":true,"internalType":"address"},{"name":"to","type":"address","indexed":true,"internalType":"address"},{"name":"tokenId","type":"uint256","indexed":true,"internalType":"uint256"}],"anonymous":false},{"type":"error","name":"ERC721IncorrectOwner","inputs":[{"name":"sender","type":"address","internalType":"address"},{"name":"tokenId","type":"uint256","internalType":"uint256"},{"name":"owner","type":"address","internalType":"address"}]},{"type":"error","name":"ERC721InsufficientApproval","inputs":[{"name":"operator","type":"address","internalType":"address"},{"name":"tokenId","type":"uint256","internalType":"uint256"}]},{"type":"error","name":"ERC721InvalidApprover","inputs":[{"name":"approver","type":"address","internalType":"address"}]},{"type":"error","name":"ERC721InvalidOperator","inputs":[{"name":"operator","type":"address","internalType":"address"}]},{"type":"error","name":"ERC721InvalidOwner","inputs":[{"name":"owner","type":"address","internalType":"address"}]},{"type":"error","name":"ERC721InvalidReceiver","inputs":[{"name":"receiver","type":"address","internalType":"address"}]},{"type":"error","name":"ERC721InvalidSender","inputs":[{"name":"sender","type":"address","internalType":"address"}]},{"type":"error","name":"ERC721NonexistentToken","inputs":[{"name":"tokenId","type":"uint256","internalType":"uint256"}]},{"type":"error","name":"OwnableInvalidOwner","inputs":[{"name":"owner","type":"address","internalType":"address"}]},{"type":"error","name":"OwnableUnauthorizedAccount","inputs":[{"name":"account","type":"address","internalType":"address"}]},{"type":"error","name":"StringsInsufficientHexLength","inputs":[{"name":"value","type":"uint256","internalType":"uint256"},{"name":"length","type":"uint256","internalType":"uint256"}]}],"bytecode":{"object":"0x608060405234801562000010575f80fd5b50336040518060400160405280600d81526020016c5265706f426f78204e616d657360981b8152506040518060400160405280600381526020016229212760e91b815250815f9081620000649190620001a5565b506001620000738282620001a5565b5050506001600160a01b038116620000a457604051631e4fbdf760e01b81525f600482015260240160405180910390fd5b620000af81620000b6565b5062000271565b600680546001600160a01b038381166001600160a01b0319831681179093556040519116919082907f8be0079c531659141344cd1fd0a4f28419497f9722a3daafe3b4186f6b6457e0905f90a35050565b634e487b7160e01b5f52604160045260245ffd5b600181811c908216806200013057607f821691505b6020821081036200014f57634e487b7160e01b5f52602260045260245ffd5b50919050565b601f821115620001a057805f5260205f20601f840160051c810160208510156200017c5750805b601f840160051c820191505b818110156200019d575f815560010162000188565b50505b505050565b81516001600160401b03811115620001c157620001c162000107565b620001d981620001d284546200011b565b8462000155565b602080601f8311600181146200020f575f8415620001f75750858301515b5f19600386901b1c1916600185901b17855562000269565b5f85815260208120601f198616915b828110156200023f578886015182559484019460019091019084016200021e565b50858210156200025d57878501515f19600388901b60f8161c191681555b505060018460011b0185555b505050505050565b611d2d806200027f5f395ff3fe608060405234801561000f575f80fd5b5060043610610187575f3560e01c80638da5cb5b116100d9578063c87b56dd11610093578063e725f8771161006e578063e725f8771461036a578063e985e9c51461037d578063f2fde38b14610390578063fa8509c8146103a3575f80fd5b8063c87b56dd14610331578063cc637afe14610344578063d0b6b6db14610357575f80fd5b80638da5cb5b146102b757806395d89b41146102c8578063a22cb465146102d0578063b88d4fde146102e3578063b9f7e8e2146102f6578063ba060ccb1461031e575f80fd5b80633ccfd60b116101445780636352211e1161011f5780636352211e1461026a5780636a23b9731461027d57806370a082311461029c578063715018a6146102af575f80fd5b80633ccfd60b1461023c57806342842e0e146102445780635fb64a6a14610257575f80fd5b806301ffc9a71461018b57806306fdde03146101b3578063081812fc146101c8578063095ea7b3146101f35780631e7663bc1461020857806323b872dd14610229575b5f80fd5b61019e610199366004611574565b6103b6565b60405190151581526020015b60405180910390f35b6101bb610407565b6040516101aa91906115e3565b6101db6101d63660046115f5565b610496565b6040516001600160a01b0390911681526020016101aa565b610206610201366004611627565b6104bd565b005b61021b6102163660046116f4565b6104cc565b6040519081526020016101aa565b610206610237366004611726565b6104fc565b61020661058a565b610206610252366004611726565b61067d565b61020661026536600461175f565b61069c565b6101db6102783660046115f5565b6106ed565b61021b61028b3660046115f5565b600a6020525f908152604090205481565b61021b6102aa36600461175f565b6106f7565b61020661073c565b6006546001600160a01b03166101db565b6101bb61074f565b6102066102de366004611778565b61075e565b6102066102f13660046117b1565b610769565b6101db6103043660046115f5565b60096020525f90815260409020546001600160a01b031681565b61020661032c366004611828565b610781565b6101bb61033f3660046115f5565b610839565b61019e6103523660046116f4565b6109ad565b6007546101db906001600160a01b031681565b6101bb6103783660046115f5565b6109ee565b61019e61038b366004611852565b610a85565b61020661039e36600461175f565b610ab2565b6102066103b136600461187a565b610aef565b5f6001600160e01b031982166380ac58cd60e01b14806103e657506001600160e01b03198216635b5e139f60e01b145b8061040157506301ffc9a760e01b6001600160e01b03198316145b92915050565b60605f8054610415906118d4565b80601f0160208091040260200160405190810160405280929190818152602001828054610441906118d4565b801561048c5780601f106104635761010080835404028352916020019161048c565b820191905f5260205f20905b81548152906001019060200180831161046f57829003601f168201915b5050505050905090565b5f6104a082610c8d565b505f828152600460205260409020546001600160a01b0316610401565b6104c8828233610cc5565b5050565b5f816040516020016104de9190611927565b60408051601f19818403018152919052805160209091012092915050565b6001600160a01b03821661052a57604051633250574960e11b81525f60048201526024015b60405180910390fd5b5f610536838333610cd2565b9050836001600160a01b0316816001600160a01b031614610584576040516364283d7b60e01b81526001600160a01b0380861660048301526024820184905282166044820152606401610521565b50505050565b610592610dc4565b47806105d95760405162461bcd60e51b81526020600482015260166024820152754e6f2062616c616e636520746f20776974686472617760501b6044820152606401610521565b5f6105ec6006546001600160a01b031690565b6001600160a01b0316826040515f6040518083038185875af1925050503d805f8114610633576040519150601f19603f3d011682016040523d82523d5f602084013e610638565b606091505b50509050806104c85760405162461bcd60e51b815260206004820152601160248201527015da5d1a191c985dd85b0819985a5b1959607a1b6044820152606401610521565b61069783838360405180602001604052805f815250610769565b505050565b6106a4610dc4565b600780546001600160a01b0319166001600160a01b0383169081179091556040517f7814765089fa4d113b377eb0859fd345095a106617367857878087a128595ec4905f90a250565b5f61040182610c8d565b5f6001600160a01b038216610721576040516322718ad960e21b81525f6004820152602401610521565b506001600160a01b03165f9081526003602052604090205490565b610744610dc4565b61074d5f610df1565b565b606060018054610415906118d4565b6104c8338383610e42565b6107748484846104fc565b6105843385858585610f09565b3361078b836106ed565b6001600160a01b0316146107e15760405162461bcd60e51b815260206004820152601b60248201527f4f6e6c7920746f6b656e206f776e65722063616e2075706461746500000000006044820152606401610521565b5f8281526009602052604080822080546001600160a01b0319166001600160a01b0385169081179091559051909184917f41657c2e68c95e2f4bb996bcae6fc6bd127bd5312ba04cb26cb08c31370faa799190a35050565b5f818152600260205260409020546060906001600160a01b03166108965760405162461bcd60e51b8152602060048201526014602482015273151bdad95b88191bd95cc81b9bdd08195e1a5cdd60621b6044820152606401610521565b5f82815260086020526040812080546108ae906118d4565b80601f01602080910402602001604051908101604052809291908181526020018280546108da906118d4565b80156109255780601f106108fc57610100808354040283529160200191610925565b820191905f5260205f20905b81548152906001019060200180831161090857829003601f168201915b5050505f868152600960205260408120549394506001600160a01b0390931692915061098190508380610959856014611030565b8660405160200161096d9493929190611942565b6040516020818303038152906040526111aa565b9050806040516020016109949190611ad6565b6040516020818303038152906040529350505050919050565b5f80826040516020016109c09190611927565b60408051601f1981840301815291815281516020928301205f908152600b90925290205460ff169392505050565b60086020525f908152604090208054610a06906118d4565b80601f0160208091040260200160405190810160405280929190818152602001828054610a32906118d4565b8015610a7d5780601f10610a5457610100808354040283529160200191610a7d565b820191905f5260205f20905b815481529060010190602001808311610a6057829003601f168201915b505050505081565b6001600160a01b039182165f90815260056020908152604080832093909416825291909152205460ff1690565b610aba610dc4565b6001600160a01b038116610ae357604051631e4fbdf760e01b81525f6004820152602401610521565b610aec81610df1565b50565b6007546001600160a01b03163314610b495760405162461bcd60e51b815260206004820152601b60248201527f4f6e6c79206d696e7420636f6e74726163742063616e2063616c6c00000000006044820152606401610521565b5f825111610b905760405162461bcd60e51b81526020600482015260146024820152734e616d652063616e6e6f7420626520656d70747960601b6044820152606401610521565b5f82604051602001610ba29190611927565b60408051601f1981840301815291815281516020928301205f818152600b90935291205490915060ff1615610c0f5760405162461bcd60e51b81526020600482015260136024820152724e616d6520616c72656164792065786973747360681b6044820152606401610521565b5f610c19846104cc565b5f818152600860205260409020909150610c338582611b5e565b505f81815260096020908152604080832080546001600160a01b0319166001600160a01b038816179055848352600a8252808320849055600b9091529020805460ff19166001179055610c8685826111b6565b5050505050565b5f818152600260205260408120546001600160a01b03168061040157604051637e27328960e01b815260048101849052602401610521565b6106978383836001611217565b5f828152600260205260408120546001600160a01b0390811690831615610cfe57610cfe81848661131b565b6001600160a01b03811615610d3857610d195f855f80611217565b6001600160a01b0381165f90815260036020526040902080545f190190555b6001600160a01b03851615610d66576001600160a01b0385165f908152600360205260409020805460010190555b5f8481526002602052604080822080546001600160a01b0319166001600160a01b0389811691821790925591518793918516917fddf252ad1be2c89b69c2b068fc378daa952ba7f163c4a11628f55a4df523b3ef91a4949350505050565b6006546001600160a01b0316331461074d5760405163118cdaa760e01b8152336004820152602401610521565b600680546001600160a01b038381166001600160a01b0319831681179093556040519116919082907f8be0079c531659141344cd1fd0a4f28419497f9722a3daafe3b4186f6b6457e0905f90a35050565b6001600160a01b038316610e6b5760405163a9fbf51f60e01b81525f6004820152602401610521565b6001600160a01b038216610e9d57604051630b61174360e31b81526001600160a01b0383166004820152602401610521565b6001600160a01b038381165f81815260056020908152604080832094871680845294825291829020805460ff191686151590811790915591519182527f17307eab39ab6107e8899845ad3d59bd9653f200f220920489ca2b5937696c31910160405180910390a3505050565b6001600160a01b0383163b15610c8657604051630a85bd0160e11b81526001600160a01b0384169063150b7a0290610f4b908890889087908790600401611c1a565b6020604051808303815f875af1925050508015610f85575060408051601f3d908101601f19168201909252610f8291810190611c56565b60015b610fec573d808015610fb2576040519150601f19603f3d011682016040523d82523d5f602084013e610fb7565b606091505b5080515f03610fe457604051633250574960e11b81526001600160a01b0385166004820152602401610521565b805160208201fd5b6001600160e01b03198116630a85bd0160e11b1461102857604051633250574960e11b81526001600160a01b0385166004820152602401610521565b505050505050565b6060825f61103f846002611c85565b61104a906002611c9c565b67ffffffffffffffff8111156110625761106261164f565b6040519080825280601f01601f19166020018201604052801561108c576020820181803683370190505b509050600360fc1b815f815181106110a6576110a6611caf565b60200101906001600160f81b03191690815f1a905350600f60fb1b816001815181106110d4576110d4611caf565b60200101906001600160f81b03191690815f1a9053505f6110f6856002611c85565b611101906001611c9c565b90505b6001811115611178576f181899199a1a9b1b9c1cb0b131b232b360811b83600f166010811061113557611135611caf565b1a60f81b82828151811061114b5761114b611caf565b60200101906001600160f81b03191690815f1a90535060049290921c9161117181611cc3565b9050611104565b5081156111a25760405163e22e27eb60e01b81526004810186905260248101859052604401610521565b949350505050565b6060610401825f61137f565b6001600160a01b0382166111df57604051633250574960e11b81525f6004820152602401610521565b5f6111eb83835f610cd2565b90506001600160a01b03811615610697576040516339e3563760e11b81525f6004820152602401610521565b808061122b57506001600160a01b03821615155b156112ec575f61123a84610c8d565b90506001600160a01b038316158015906112665750826001600160a01b0316816001600160a01b031614155b801561127957506112778184610a85565b155b156112a25760405163a9fbf51f60e01b81526001600160a01b0384166004820152602401610521565b81156112ea5783856001600160a01b0316826001600160a01b03167f8c5be1e5ebec7d5bd14f71427d1e84f3dd0314c0f7b2291e5b200ac8c7c3b92560405160405180910390a45b505b50505f90815260046020526040902080546001600160a01b0319166001600160a01b0392909216919091179055565b6113268383836114fe565b610697576001600160a01b03831661135457604051637e27328960e01b815260048101829052602401610521565b60405163177e802f60e01b81526001600160a01b038316600482015260248101829052604401610521565b606082515f0361139d575060408051602081019091525f8152610401565b5f826113cd576003845160026113b39190611c9c565b6113bd9190611cd8565b6113c8906004611c85565b6113f2565b6003845160046113dd9190611c85565b6113e8906002611c9c565b6113f29190611cd8565b905060405191507f4142434445464748494a4b4c4d4e4f505152535455565758595a616263646566601f5261067083027f6768696a6b6c6d6e6f707172737475767778797a303132333435363738392b2f18603f526020820181810185865187016020810180515f82525b828410156114b0576003840193508351603f8160121c16518753600187019650603f81600c1c16518753600187019650603f8160061c16518753600187019650603f81165187535060018601955061145d565b9052508590506114f1576003865106600181146114d457600281146114e7576114ef565b603d6001840353603d60028403536114ef565b603d60018403535b505b9183525060405292915050565b5f6001600160a01b038316158015906111a25750826001600160a01b0316846001600160a01b0316148061153757506115378484610a85565b806111a25750505f908152600460205260409020546001600160a01b03908116911614919050565b6001600160e01b031981168114610aec575f80fd5b5f60208284031215611584575f80fd5b813561158f8161155f565b9392505050565b5f5b838110156115b0578181015183820152602001611598565b50505f910152565b5f81518084526115cf816020860160208601611596565b601f01601f19169290920160200192915050565b602081525f61158f60208301846115b8565b5f60208284031215611605575f80fd5b5035919050565b80356001600160a01b0381168114611622575f80fd5b919050565b5f8060408385031215611638575f80fd5b6116418361160c565b946020939093013593505050565b634e487b7160e01b5f52604160045260245ffd5b5f67ffffffffffffffff8084111561167d5761167d61164f565b604051601f8501601f19908116603f011681019082821181831017156116a5576116a561164f565b816040528093508581528686860111156116bd575f80fd5b858560208301375f602087830101525050509392505050565b5f82601f8301126116e5575f80fd5b61158f83833560208501611663565b5f60208284031215611704575f80fd5b813567ffffffffffffffff81111561171a575f80fd5b6111a2848285016116d6565b5f805f60608486031215611738575f80fd5b6117418461160c565b925061174f6020850161160c565b9150604084013590509250925092565b5f6020828403121561176f575f80fd5b61158f8261160c565b5f8060408385031215611789575f80fd5b6117928361160c565b9150602083013580151581146117a6575f80fd5b809150509250929050565b5f805f80608085870312156117c4575f80fd5b6117cd8561160c565b93506117db6020860161160c565b925060408501359150606085013567ffffffffffffffff8111156117fd575f80fd5b8501601f8101871361180d575f80fd5b61181c87823560208401611663565b91505092959194509250565b5f8060408385031215611839575f80fd5b823591506118496020840161160c565b90509250929050565b5f8060408385031215611863575f80fd5b61186c8361160c565b91506118496020840161160c565b5f805f6060848603121561188c575f80fd5b6118958461160c565b9250602084013567ffffffffffffffff8111156118b0575f80fd5b6118bc868287016116d6565b9250506118cb6040850161160c565b90509250925092565b600181811c908216806118e857607f821691505b60208210810361190657634e487b7160e01b5f52602260045260245ffd5b50919050565b5f815161191d818560208601611596565b9290920192915050565b5f8251611938818460208701611596565b9190910192915050565b693d913730b6b2911d101160b11b815284515f9061196781600a850160208a01611596565b7f2e7265706f2e626f78222c20226465736372697074696f6e223a2022454e5320600a918401918201527f737562646f6d61696e204e465420666f72207265706f2e626f78222c20226174602a8201527f7472696275746573223a205b7b2274726169745f74797065223a20224e616d65604a8201526c111610113b30b63ab2911d101160991b606a8201528551611a06816077840160208a01611596565b7f227d2c207b2274726169745f74797065223a20225265736f6c7665642041646460779290910191820152703932b9b9911610113b30b63ab2911d101160791b60978201528451611a5e8160a8840160208901611596565b611aca611ab1611aab60a8848601017f227d2c207b2274726169745f74797065223a202246756c6c20446f6d61696e2281526b1610113b30b63ab2911d101160a11b6020820152602c0190565b8761190c565b6c2e7265706f2e626f78227d5d7d60981b8152600d0190565b98975050505050505050565b7f646174613a6170706c69636174696f6e2f6a736f6e3b6261736536342c00000081525f8251611b0d81601d850160208701611596565b91909101601d0192915050565b601f82111561069757805f5260205f20601f840160051c81016020851015611b3f5750805b601f840160051c820191505b81811015610c86575f8155600101611b4b565b815167ffffffffffffffff811115611b7857611b7861164f565b611b8c81611b8684546118d4565b84611b1a565b602080601f831160018114611bbf575f8415611ba85750858301515b5f19600386901b1c1916600185901b178555611028565b5f85815260208120601f198616915b82811015611bed57888601518255948401946001909101908401611bce565b5085821015611c0a57878501515f19600388901b60f8161c191681555b5050505050600190811b01905550565b6001600160a01b03858116825284166020820152604081018390526080606082018190525f90611c4c908301846115b8565b9695505050505050565b5f60208284031215611c66575f80fd5b815161158f8161155f565b634e487b7160e01b5f52601160045260245ffd5b808202811582820484141761040157610401611c71565b8082018082111561040157610401611c71565b634e487b7160e01b5f52603260045260245ffd5b5f81611cd157611cd1611c71565b505f190190565b5f82611cf257634e487b7160e01b5f52601260045260245ffd5b50049056fea2646970667358221220cd5e814bbbb33792e34030a9bd49a4548abfcfd8e7344b2af0a41ed80808985064736f6c63430008180033","linkReferences":{}},"methodIdentifiers":{"approve(address,uint256)":"095ea7b3","balanceOf(address)":"70a08231","getApproved(uint256)":"081812fc","getTokenId(string)":"1e7663bc","isApprovedForAll(address,address)":"e985e9c5","mint(address,string,address)":"fa8509c8","mintContract()":"d0b6b6db","name()":"06fdde03","nameExists(string)":"cc637afe","nameToToken(bytes32)":"6a23b973","owner()":"8da5cb5b","ownerOf(uint256)":"6352211e","renounceOwnership()":"715018a6","resolvedAddress(uint256)":"b9f7e8e2","safeTransferFrom(address,address,uint256)":"42842e0e","safeTransferFrom(address,address,uint256,bytes)":"b88d4fde","setApprovalForAll(address,bool)":"a22cb465","setMintContract(address)":"5fb64a6a","setResolvedAddress(uint256,address)":"ba060ccb","supportsInterface(bytes4)":"01ffc9a7","symbol()":"95d89b41","tokenName(uint256)":"e725f877","tokenURI(uint256)":"c87b56dd","transferFrom(address,address,uint256)":"23b872dd","transferOwnership(address)":"f2fde38b","withdraw()":"3ccfd60b"},"id":39}