{"abi":[{"type":"constructor","inputs":[{"name":"_owner","type":"address","internalType":"address"},{"name":"_mintContract","type":"address","internalType":"address"}],"stateMutability":"nonpayable"},{"type":"function","name":"approve","inputs":[{"name":"to","type":"address","internalType":"address"},{"name":"tokenId","type":"uint256","internalType":"uint256"}],"outputs":[],"stateMutability":"nonpayable"},{"type":"function","name":"balanceOf","inputs":[{"name":"owner","type":"address","internalType":"address"}],"outputs":[{"name":"","type":"uint256","internalType":"uint256"}],"stateMutability":"view"},{"type":"function","name":"getApproved","inputs":[{"name":"tokenId","type":"uint256","internalType":"uint256"}],"outputs":[{"name":"","type":"address","internalType":"address"}],"stateMutability":"view"},{"type":"function","name":"isApprovedForAll","inputs":[{"name":"owner","type":"address","internalType":"address"},{"name":"operator","type":"address","internalType":"address"}],"outputs":[{"name":"","type":"bool","internalType":"bool"}],"stateMutability":"view"},{"type":"function","name":"mint","inputs":[{"name":"to","type":"address","internalType":"address"},{"name":"name","type":"string","internalType":"string"},{"name":"_resolvedAddress","type":"address","internalType":"address"}],"outputs":[{"name":"","type":"uint256","internalType":"uint256"}],"stateMutability":"nonpayable"},{"type":"function","name":"mintContract","inputs":[],"outputs":[{"name":"","type":"address","internalType":"address"}],"stateMutability":"view"},{"type":"function","name":"name","inputs":[],"outputs":[{"name":"","type":"string","internalType":"string"}],"stateMutability":"view"},{"type":"function","name":"nameExists","inputs":[{"name":"name","type":"string","internalType":"string"}],"outputs":[{"name":"","type":"bool","internalType":"bool"}],"stateMutability":"view"},{"type":"function","name":"nameToToken","inputs":[{"name":"","type":"bytes32","internalType":"bytes32"}],"outputs":[{"name":"","type":"uint256","internalType":"uint256"}],"stateMutability":"view"},{"type":"function","name":"owner","inputs":[],"outputs":[{"name":"","type":"address","internalType":"address"}],"stateMutability":"view"},{"type":"function","name":"ownerOf","inputs":[{"name":"tokenId","type":"uint256","internalType":"uint256"}],"outputs":[{"name":"","type":"address","internalType":"address"}],"stateMutability":"view"},{"type":"function","name":"renounceOwnership","inputs":[],"outputs":[],"stateMutability":"nonpayable"},{"type":"function","name":"resolvedAddress","inputs":[{"name":"","type":"uint256","internalType":"uint256"}],"outputs":[{"name":"","type":"address","internalType":"address"}],"stateMutability":"view"},{"type":"function","name":"safeTransferFrom","inputs":[{"name":"from","type":"address","internalType":"address"},{"name":"to","type":"address","internalType":"address"},{"name":"tokenId","type":"uint256","internalType":"uint256"}],"outputs":[],"stateMutability":"nonpayable"},{"type":"function","name":"safeTransferFrom","inputs":[{"name":"from","type":"address","internalType":"address"},{"name":"to","type":"address","internalType":"address"},{"name":"tokenId","type":"uint256","internalType":"uint256"},{"name":"data","type":"bytes","internalType":"bytes"}],"outputs":[],"stateMutability":"nonpayable"},{"type":"function","name":"setApprovalForAll","inputs":[{"name":"operator","type":"address","internalType":"address"},{"name":"approved","type":"bool","internalType":"bool"}],"outputs":[],"stateMutability":"nonpayable"},{"type":"function","name":"setMintContract","inputs":[{"name":"_mintContract","type":"address","internalType":"address"}],"outputs":[],"stateMutability":"nonpayable"},{"type":"function","name":"setResolvedAddress","inputs":[{"name":"tokenId","type":"uint256","internalType":"uint256"},{"name":"addr","type":"address","internalType":"address"}],"outputs":[],"stateMutability":"nonpayable"},{"type":"function","name":"supportsInterface","inputs":[{"name":"interfaceId","type":"bytes4","internalType":"bytes4"}],"outputs":[{"name":"","type":"bool","internalType":"bool"}],"stateMutability":"view"},{"type":"function","name":"symbol","inputs":[],"outputs":[{"name":"","type":"string","internalType":"string"}],"stateMutability":"view"},{"type":"function","name":"tokenName","inputs":[{"name":"","type":"uint256","internalType":"uint256"}],"outputs":[{"name":"","type":"string","internalType":"string"}],"stateMutability":"view"},{"type":"function","name":"tokenURI","inputs":[{"name":"tokenId","type":"uint256","internalType":"uint256"}],"outputs":[{"name":"","type":"string","internalType":"string"}],"stateMutability":"view"},{"type":"function","name":"totalSupply","inputs":[],"outputs":[{"name":"","type":"uint256","internalType":"uint256"}],"stateMutability":"view"},{"type":"function","name":"transferFrom","inputs":[{"name":"from","type":"address","internalType":"address"},{"name":"to","type":"address","internalType":"address"},{"name":"tokenId","type":"uint256","internalType":"uint256"}],"outputs":[],"stateMutability":"nonpayable"},{"type":"function","name":"transferOwnership","inputs":[{"name":"newOwner","type":"address","internalType":"address"}],"outputs":[],"stateMutability":"nonpayable"},{"type":"function","name":"withdraw","inputs":[],"outputs":[],"stateMutability":"nonpayable"},{"type":"event","name":"Approval","inputs":[{"name":"owner","type":"address","indexed":true,"internalType":"address"},{"name":"approved","type":"address","indexed":true,"internalType":"address"},{"name":"tokenId","type":"uint256","indexed":true,"internalType":"uint256"}],"anonymous":false},{"type":"event","name":"ApprovalForAll","inputs":[{"name":"owner","type":"address","indexed":true,"internalType":"address"},{"name":"operator","type":"address","indexed":true,"internalType":"address"},{"name":"approved","type":"bool","indexed":false,"internalType":"bool"}],"anonymous":false},{"type":"event","name":"MintContractUpdated","inputs":[{"name":"newMintContract","type":"address","indexed":true,"internalType":"address"}],"anonymous":false},{"type":"event","name":"OwnershipTransferred","inputs":[{"name":"previousOwner","type":"address","indexed":true,"internalType":"address"},{"name":"newOwner","type":"address","indexed":true,"internalType":"address"}],"anonymous":false},{"type":"event","name":"ResolvedAddressUpdated","inputs":[{"name":"tokenId","type":"uint256","indexed":true,"internalType":"uint256"},{"name":"newAddress","type":"address","indexed":true,"internalType":"address"}],"anonymous":false},{"type":"event","name":"Transfer","inputs":[{"name":"from","type":"address","indexed":true,"internalType":"address"},{"name":"to","type":"address","indexed":true,"internalType":"address"},{"name":"tokenId","type":"uint256","indexed":true,"internalType":"uint256"}],"anonymous":false},{"type":"error","name":"ERC721IncorrectOwner","inputs":[{"name":"sender","type":"address","internalType":"address"},{"name":"tokenId","type":"uint256","internalType":"uint256"},{"name":"owner","type":"address","internalType":"address"}]},{"type":"error","name":"ERC721InsufficientApproval","inputs":[{"name":"operator","type":"address","internalType":"address"},{"name":"tokenId","type":"uint256","internalType":"uint256"}]},{"type":"error","name":"ERC721InvalidApprover","inputs":[{"name":"approver","type":"address","internalType":"address"}]},{"type":"error","name":"ERC721InvalidOperator","inputs":[{"name":"operator","type":"address","internalType":"address"}]},{"type":"error","name":"ERC721InvalidOwner","inputs":[{"name":"owner","type":"address","internalType":"address"}]},{"type":"error","name":"ERC721InvalidReceiver","inputs":[{"name":"receiver","type":"address","internalType":"address"}]},{"type":"error","name":"ERC721InvalidSender","inputs":[{"name":"sender","type":"address","internalType":"address"}]},{"type":"error","name":"ERC721NonexistentToken","inputs":[{"name":"tokenId","type":"uint256","internalType":"uint256"}]},{"type":"error","name":"NameTaken","inputs":[]},{"type":"error","name":"NotTokenOwner","inputs":[]},{"type":"error","name":"OnlyMintContract","inputs":[]},{"type":"error","name":"OwnableInvalidOwner","inputs":[{"name":"owner","type":"address","internalType":"address"}]},{"type":"error","name":"OwnableUnauthorizedAccount","inputs":[{"name":"account","type":"address","internalType":"address"}]},{"type":"error","name":"StringsInsufficientHexLength","inputs":[{"name":"value","type":"uint256","internalType":"uint256"},{"name":"length","type":"uint256","internalType":"uint256"}]}],"bytecode":{"object":"0x608060405234801562000010575f80fd5b5060405162001eab38038062001eab833981016040819052620000339162000192565b816040518060400160405280600e81526020016d7265706f2e626f78204e616d657360901b815250604051806040016040528060078152602001660a48aa09e849eb60cb1b815250815f90816200008b919062000266565b5060016200009a828262000266565b5050506001600160a01b038116620000cb57604051631e4fbdf760e01b81525f600482015260240160405180910390fd5b620000d68162000125565b50600780546001600160a01b0319166001600160a01b0383169081179091556040517f7814765089fa4d113b377eb0859fd345095a106617367857878087a128595ec4905f90a2505062000332565b600680546001600160a01b038381166001600160a01b0319831681179093556040519116919082907f8be0079c531659141344cd1fd0a4f28419497f9722a3daafe3b4186f6b6457e0905f90a35050565b80516001600160a01b03811681146200018d575f80fd5b919050565b5f8060408385031215620001a4575f80fd5b620001af8362000176565b9150620001bf6020840162000176565b90509250929050565b634e487b7160e01b5f52604160045260245ffd5b600181811c90821680620001f157607f821691505b6020821081036200021057634e487b7160e01b5f52602260045260245ffd5b50919050565b601f8211156200026157805f5260205f20601f840160051c810160208510156200023d5750805b601f840160051c820191505b818110156200025e575f815560010162000249565b50505b505050565b81516001600160401b03811115620002825762000282620001c8565b6200029a81620002938454620001dc565b8462000216565b602080601f831160018114620002d0575f8415620002b85750858301515b5f19600386901b1c1916600185901b1785556200032a565b5f85815260208120601f198616915b828110156200030057888601518255948401946001909101908401620002df565b50858210156200031e57878501515f19600388901b60f8161c191681555b505060018460011b0185555b505050505050565b611b6b80620003405f395ff3fe608060405234801561000f575f80fd5b5060043610610187575f3560e01c80638da5cb5b116100d9578063c87b56dd11610093578063e725f8771161006e578063e725f87714610360578063e985e9c514610373578063f2fde38b14610386578063fa8509c814610399575f80fd5b8063c87b56dd14610327578063cc637afe1461033a578063d0b6b6db1461034d575f80fd5b80638da5cb5b146102ad57806395d89b41146102be578063a22cb465146102c6578063b88d4fde146102d9578063b9f7e8e2146102ec578063ba060ccb14610314575f80fd5b80633ccfd60b116101445780636352211e1161011f5780636352211e146102605780636a23b9731461027357806370a0823114610292578063715018a6146102a5575f80fd5b80633ccfd60b1461023257806342842e0e1461023a5780635fb64a6a1461024d575f80fd5b806301ffc9a71461018b57806306fdde03146101b3578063081812fc146101c8578063095ea7b3146101f357806318160ddd1461020857806323b872dd1461021f575b5f80fd5b61019e6101993660046113ca565b6103ac565b60405190151581526020015b60405180910390f35b6101bb6103fd565b6040516101aa9190611439565b6101db6101d636600461144b565b61048c565b6040516001600160a01b0390911681526020016101aa565b61020661020136600461147d565b6104b3565b005b610211600b5481565b6040519081526020016101aa565b61020661022d3660046114a5565b6104c2565b610206610550565b6102066102483660046114a5565b6105c7565b61020661025b3660046114de565b6105e6565b6101db61026e36600461144b565b610637565b61021161028136600461144b565b600a6020525f908152604090205481565b6102116102a03660046114de565b610641565b610206610686565b6006546001600160a01b03166101db565b6101bb610699565b6102066102d43660046114f7565b6106a8565b6102066102e7366004611544565b6106b3565b6101db6102fa36600461144b565b60096020525f90815260409020546001600160a01b031681565b610206610322366004611619565b6106cb565b6101bb61033536600461144b565b610754565b61019e610348366004611688565b610873565b6007546101db906001600160a01b031681565b6101bb61036e36600461144b565b6108a8565b61019e6103813660046116c7565b61093f565b6102066103943660046114de565b61096c565b6102116103a73660046116ef565b6109a6565b5f6001600160e01b031982166380ac58cd60e01b14806103dc57506001600160e01b03198216635b5e139f60e01b145b806103f757506301ffc9a760e01b6001600160e01b03198316145b92915050565b60605f805461040b90611750565b80601f016020809104026020016040519081016040528092919081815260200182805461043790611750565b80156104825780601f1061045957610100808354040283529160200191610482565b820191905f5260205f20905b81548152906001019060200180831161046557829003601f168201915b5050505050905090565b5f61049682610a9c565b505f828152600460205260409020546001600160a01b03166103f7565b6104be828233610ad4565b5050565b6001600160a01b0382166104f057604051633250574960e11b81525f60048201526024015b60405180910390fd5b5f6104fc838333610ae1565b9050836001600160a01b0316816001600160a01b03161461054a576040516364283d7b60e01b81526001600160a01b03808616600483015260248201849052821660448201526064016104e7565b50505050565b610558610bd3565b5f61056b6006546001600160a01b031690565b6001600160a01b0316476040515f6040518083038185875af1925050503d805f81146105b2576040519150601f19603f3d011682016040523d82523d5f602084013e6105b7565b606091505b50509050806105c4575f80fd5b50565b6105e183838360405180602001604052805f8152506106b3565b505050565b6105ee610bd3565b600780546001600160a01b0319166001600160a01b0383169081179091556040517f7814765089fa4d113b377eb0859fd345095a106617367857878087a128595ec4905f90a250565b5f6103f782610a9c565b5f6001600160a01b03821661066b576040516322718ad960e21b81525f60048201526024016104e7565b506001600160a01b03165f9081526003602052604090205490565b61068e610bd3565b6106975f610c00565b565b60606001805461040b90611750565b6104be338383610c51565b6106be8484846104c2565b61054a3385858585610d18565b336106d583610637565b6001600160a01b0316146106fc576040516359dc379f60e01b815260040160405180910390fd5b5f8281526009602052604080822080546001600160a01b0319166001600160a01b0385169081179091559051909184917f41657c2e68c95e2f4bb996bcae6fc6bd127bd5312ba04cb26cb08c31370faa799190a35050565b606061075f82610637565b505f828152600860205260408120805461077890611750565b80601f01602080910402602001604051908101604052809291908181526020018280546107a490611750565b80156107ef5780601f106107c6576101008083540402835291602001916107ef565b820191905f5260205f20905b8154815290600101906020018083116107d257829003601f168201915b5050505f868152600960205260408120549394506001600160a01b039093169291508390508061081e84610e40565b604051602001610830939291906117a3565b604051602081830303815290604052905061084a81610e56565b60405160200161085a91906118f9565b6040516020818303038152906040529350505050919050565b5f600a5f848460405161088792919061193d565b604051809103902081526020019081526020015f20545f1415905092915050565b60086020525f9081526040902080546108c090611750565b80601f01602080910402602001604051908101604052809291908181526020018280546108ec90611750565b80156109375780601f1061090e57610100808354040283529160200191610937565b820191905f5260205f20905b81548152906001019060200180831161091a57829003601f168201915b505050505081565b6001600160a01b039182165f90815260056020908152604080832093909416825291909152205460ff1690565b610974610bd3565b6001600160a01b03811661099d57604051631e4fbdf760e01b81525f60048201526024016104e7565b6105c481610c00565b6007545f906001600160a01b031633146109d35760405163ec4f051160e01b815260040160405180910390fd5b5f84846040516109e492919061193d565b60405180910390209050600a5f8281526020019081526020015f20545f14610a1f57604051639e4b268560e01b815260040160405180910390fd5b600b8054905f610a2e83611960565b9091555050600b54610a408782610e62565b5f818152600860205260409020610a588688836119bc565b505f81815260096020908152604080832080546001600160a01b0389166001600160a01b0319909116179055938252600a9052919091208190559050949350505050565b5f818152600260205260408120546001600160a01b0316806103f757604051637e27328960e01b8152600481018490526024016104e7565b6105e18383836001610e7b565b5f828152600260205260408120546001600160a01b0390811690831615610b0d57610b0d818486610f7f565b6001600160a01b03811615610b4757610b285f855f80610e7b565b6001600160a01b0381165f90815260036020526040902080545f190190555b6001600160a01b03851615610b75576001600160a01b0385165f908152600360205260409020805460010190555b5f8481526002602052604080822080546001600160a01b0319166001600160a01b0389811691821790925591518793918516917fddf252ad1be2c89b69c2b068fc378daa952ba7f163c4a11628f55a4df523b3ef91a4949350505050565b6006546001600160a01b031633146106975760405163118cdaa760e01b81523360048201526024016104e7565b600680546001600160a01b038381166001600160a01b0319831681179093556040519116919082907f8be0079c531659141344cd1fd0a4f28419497f9722a3daafe3b4186f6b6457e0905f90a35050565b6001600160a01b038316610c7a5760405163a9fbf51f60e01b81525f60048201526024016104e7565b6001600160a01b038216610cac57604051630b61174360e31b81526001600160a01b03831660048201526024016104e7565b6001600160a01b038381165f81815260056020908152604080832094871680845294825291829020805460ff191686151590811790915591519182527f17307eab39ab6107e8899845ad3d59bd9653f200f220920489ca2b5937696c31910160405180910390a3505050565b6001600160a01b0383163b15610e3957604051630a85bd0160e11b81526001600160a01b0384169063150b7a0290610d5a908890889087908790600401611a76565b6020604051808303815f875af1925050508015610d94575060408051601f3d908101601f19168201909252610d9191810190611aa8565b60015b610dfb573d808015610dc1576040519150601f19603f3d011682016040523d82523d5f602084013e610dc6565b606091505b5080515f03610df357604051633250574960e11b81526001600160a01b03851660048201526024016104e7565b805160208201fd5b6001600160e01b03198116630a85bd0160e11b14610e3757604051633250574960e11b81526001600160a01b03851660048201526024016104e7565b505b5050505050565b60606103f76001600160a01b0383166014610fe3565b60606103f7825f61115d565b6104be828260405180602001604052805f8152506112dc565b8080610e8f57506001600160a01b03821615155b15610f50575f610e9e84610a9c565b90506001600160a01b03831615801590610eca5750826001600160a01b0316816001600160a01b031614155b8015610edd5750610edb818461093f565b155b15610f065760405163a9fbf51f60e01b81526001600160a01b03841660048201526024016104e7565b8115610f4e5783856001600160a01b0316826001600160a01b03167f8c5be1e5ebec7d5bd14f71427d1e84f3dd0314c0f7b2291e5b200ac8c7c3b92560405160405180910390a45b505b50505f90815260046020526040902080546001600160a01b0319166001600160a01b0392909216919091179055565b610f8a8383836112f3565b6105e1576001600160a01b038316610fb857604051637e27328960e01b8152600481018290526024016104e7565b60405163177e802f60e01b81526001600160a01b0383166004820152602481018290526044016104e7565b6060825f610ff2846002611ac3565b610ffd906002611ada565b67ffffffffffffffff81111561101557611015611530565b6040519080825280601f01601f19166020018201604052801561103f576020820181803683370190505b509050600360fc1b815f8151811061105957611059611aed565b60200101906001600160f81b03191690815f1a905350600f60fb1b8160018151811061108757611087611aed565b60200101906001600160f81b03191690815f1a9053505f6110a9856002611ac3565b6110b4906001611ada565b90505b600181111561112b576f181899199a1a9b1b9c1cb0b131b232b360811b83600f16601081106110e8576110e8611aed565b1a60f81b8282815181106110fe576110fe611aed565b60200101906001600160f81b03191690815f1a90535060049290921c9161112481611b01565b90506110b7565b5081156111555760405163e22e27eb60e01b815260048101869052602481018590526044016104e7565b949350505050565b606082515f0361117b575060408051602081019091525f81526103f7565b5f826111ab576003845160026111919190611ada565b61119b9190611b16565b6111a6906004611ac3565b6111d0565b6003845160046111bb9190611ac3565b6111c6906002611ada565b6111d09190611b16565b905060405191507f4142434445464748494a4b4c4d4e4f505152535455565758595a616263646566601f5261067083027f6768696a6b6c6d6e6f707172737475767778797a303132333435363738392b2f18603f526020820181810185865187016020810180515f82525b8284101561128e576003840193508351603f8160121c16518753600187019650603f81600c1c16518753600187019650603f8160061c16518753600187019650603f81165187535060018601955061123b565b9052508590506112cf576003865106600181146112b257600281146112c5576112cd565b603d6001840353603d60028403536112cd565b603d60018403535b505b9183525060405292915050565b6112e68383611354565b6105e1335f858585610d18565b5f6001600160a01b038316158015906111555750826001600160a01b0316846001600160a01b0316148061132c575061132c848461093f565b806111555750505f908152600460205260409020546001600160a01b03908116911614919050565b6001600160a01b03821661137d57604051633250574960e11b81525f60048201526024016104e7565b5f61138983835f610ae1565b90506001600160a01b038116156105e1576040516339e3563760e11b81525f60048201526024016104e7565b6001600160e01b0319811681146105c4575f80fd5b5f602082840312156113da575f80fd5b81356113e5816113b5565b9392505050565b5f5b838110156114065781810151838201526020016113ee565b50505f910152565b5f81518084526114258160208601602086016113ec565b601f01601f19169290920160200192915050565b602081525f6113e5602083018461140e565b5f6020828403121561145b575f80fd5b5035919050565b80356001600160a01b0381168114611478575f80fd5b919050565b5f806040838503121561148e575f80fd5b61149783611462565b946020939093013593505050565b5f805f606084860312156114b7575f80fd5b6114c084611462565b92506114ce60208501611462565b9150604084013590509250925092565b5f602082840312156114ee575f80fd5b6113e582611462565b5f8060408385031215611508575f80fd5b61151183611462565b915060208301358015158114611525575f80fd5b809150509250929050565b634e487b7160e01b5f52604160045260245ffd5b5f805f8060808587031215611557575f80fd5b61156085611462565b935061156e60208601611462565b925060408501359150606085013567ffffffffffffffff80821115611591575f80fd5b818701915087601f8301126115a4575f80fd5b8135818111156115b6576115b6611530565b604051601f8201601f19908116603f011681019083821181831017156115de576115de611530565b816040528281528a60208487010111156115f6575f80fd5b826020860160208301375f60208483010152809550505050505092959194509250565b5f806040838503121561162a575f80fd5b8235915061163a60208401611462565b90509250929050565b5f8083601f840112611653575f80fd5b50813567ffffffffffffffff81111561166a575f80fd5b602083019150836020828501011115611681575f80fd5b9250929050565b5f8060208385031215611699575f80fd5b823567ffffffffffffffff8111156116af575f80fd5b6116bb85828601611643565b90969095509350505050565b5f80604083850312156116d8575f80fd5b6116e183611462565b915061163a60208401611462565b5f805f8060608587031215611702575f80fd5b61170b85611462565b9350602085013567ffffffffffffffff811115611726575f80fd5b61173287828801611643565b9094509250611745905060408601611462565b905092959194509250565b600181811c9082168061176457607f821691505b60208210810361178257634e487b7160e01b5f52602260045260245ffd5b50919050565b5f81516117998185602086016113ec565b9290920192915050565b683d913730b6b2911d1160b91b815283515f906117c78160098501602089016113ec565b6a0b9c995c1bcb989bde088b60aa1b6009918401918201527f226465736372697074696f6e223a22454e5320737562646f6d61696e20666f7260148201527f207265706f2e626f782067697420686f7374696e67222c00000000000000000060348201526d2261747472696275746573223a5b60901b604b8201527f7b2274726169745f74797065223a226e616d65222c2276616c7565223a2200006059820152845161187b8160778401602089016113ec565b62089f4b60ea1b607792909101918201527f7b2274726169745f74797065223a227265736f6c7665735f746f222c2276616c607a820152643ab2911d1160d91b609a8201526118ef6118e16118d3609f840187611788565b61227d60f01b815260020190565b615d7d60f01b815260020190565b9695505050505050565b7f646174613a6170706c69636174696f6e2f6a736f6e3b6261736536342c00000081525f825161193081601d8501602087016113ec565b91909101601d0192915050565b818382375f9101908152919050565b634e487b7160e01b5f52601160045260245ffd5b5f600182016119715761197161194c565b5060010190565b601f8211156105e157805f5260205f20601f840160051c8101602085101561199d5750805b601f840160051c820191505b81811015610e39575f81556001016119a9565b67ffffffffffffffff8311156119d4576119d4611530565b6119e8836119e28354611750565b83611978565b5f601f841160018114611a19575f8515611a025750838201355b5f19600387901b1c1916600186901b178355610e39565b5f83815260208120601f198716915b82811015611a485786850135825560209485019460019092019101611a28565b5086821015611a64575f1960f88860031b161c19848701351681555b505060018560011b0183555050505050565b6001600160a01b03858116825284166020820152604081018390526080606082018190525f906118ef9083018461140e565b5f60208284031215611ab8575f80fd5b81516113e5816113b5565b80820281158282048414176103f7576103f761194c565b808201808211156103f7576103f761194c565b634e487b7160e01b5f52603260045260245ffd5b5f81611b0f57611b0f61194c565b505f190190565b5f82611b3057634e487b7160e01b5f52601260045260245ffd5b50049056fea26469706673582212209ffe1d21bcc4a336f923cdae5a8abca7a79d11dc78aba33ee625e6a96b98c12f64736f6c63430008180033","linkReferences":{}},"methodIdentifiers":{"approve(address,uint256)":"095ea7b3","balanceOf(address)":"70a08231","getApproved(uint256)":"081812fc","isApprovedForAll(address,address)":"e985e9c5","mint(address,string,address)":"fa8509c8","mintContract()":"d0b6b6db","name()":"06fdde03","nameExists(string)":"cc637afe","nameToToken(bytes32)":"6a23b973","owner()":"8da5cb5b","ownerOf(uint256)":"6352211e","renounceOwnership()":"715018a6","resolvedAddress(uint256)":"b9f7e8e2","safeTransferFrom(address,address,uint256)":"42842e0e","safeTransferFrom(address,address,uint256,bytes)":"b88d4fde","setApprovalForAll(address,bool)":"a22cb465","setMintContract(address)":"5fb64a6a","setResolvedAddress(uint256,address)":"ba060ccb","supportsInterface(bytes4)":"01ffc9a7","symbol()":"95d89b41","tokenName(uint256)":"e725f877","tokenURI(uint256)":"c87b56dd","totalSupply()":"18160ddd","transferFrom(address,address,uint256)":"23b872dd","transferOwnership(address)":"f2fde38b","withdraw()":"3ccfd60b"},"id":2}