{"abi":[{"type":"function","name":"assertExists","inputs":[{"name":"self","type":"tuple","internalType":"struct Variable","components":[{"name":"ty","type":"tuple","internalType":"struct Type","components":[{"name":"kind","type":"TypeKind","internalType":"enum TypeKind"},{"name":"isArray","type":"bool","internalType":"bool"}]},{"name":"data","type":"bytes","internalType":"bytes"}]}],"outputs":[],"stateMutability":"pure"},{"type":"error","name":"NotInitialized","inputs":[]},{"type":"error","name":"TypeMismatch","inputs":[{"name":"expected","type":"string","internalType":"string"},{"name":"actual","type":"string","internalType":"string"}]},{"type":"error","name":"UnsafeCast","inputs":[{"name":"message","type":"string","internalType":"string"}]}],"bytecode":{"object":"0x6103ea610053600b82828239805160001a607314610046577f4e487b7100000000000000000000000000000000000000000000000000000000600052600060045260246000fd5b30600052607381538281f3fe73000000000000000000000000000000000000000030146080604052600436106100355760003560e01c806315af8fee1461003a575b600080fd5b610054600480360381019061004f919061033c565b610056565b005b6000600781111561006a57610069610385565b5b816000015160000151600781111561008557610084610385565b5b036100bc576040517f87138d5c00000000000000000000000000000000000000000000000000000000815260040160405180910390fd5b50565b6000604051905090565b600080fd5b600080fd5b600080fd5b6000601f19601f8301169050919050565b7f4e487b7100000000000000000000000000000000000000000000000000000000600052604160045260246000fd5b610121826100d8565b810181811067ffffffffffffffff821117156101405761013f6100e9565b5b80604052505050565b60006101536100bf565b905061015f8282610118565b919050565b600080fd5b6008811061017657600080fd5b50565b60008135905061018881610169565b92915050565b60008115159050919050565b6101a38161018e565b81146101ae57600080fd5b50565b6000813590506101c08161019a565b92915050565b6000604082840312156101dc576101db6100d3565b5b6101e66040610149565b905060006101f684828501610179565b600083015250602061020a848285016101b1565b60208301525092915050565b600080fd5b600080fd5b600067ffffffffffffffff82111561023b5761023a6100e9565b5b610244826100d8565b9050602081019050919050565b82818337600083830152505050565b600061027361026e84610220565b610149565b90508281526020810184848401111561028f5761028e61021b565b5b61029a848285610251565b509392505050565b600082601f8301126102b7576102b6610216565b5b81356102c7848260208601610260565b91505092915050565b6000606082840312156102e6576102e56100d3565b5b6102f06040610149565b90506000610300848285016101c6565b600083015250604082013567ffffffffffffffff81111561032457610323610164565b5b610330848285016102a2565b60208301525092915050565b600060208284031215610352576103516100c9565b5b600082013567ffffffffffffffff8111156103705761036f6100ce565b5b61037c848285016102d0565b91505092915050565b7f4e487b7100000000000000000000000000000000000000000000000000000000600052602160045260246000fdfea26469706673582212208c8461626ec37a5b9e711643471441d5547df22d0d3422ab96732822e7960f0b64736f6c63430008130033","linkReferences":{}},"methodIdentifiers":{"assertExists(Variable)":"15af8fee"},"id":3}