{"abi":[{"type":"constructor","inputs":[{"name":"_token","type":"address","internalType":"address"}],"stateMutability":"nonpayable"},{"type":"function","name":"cancel","inputs":[{"name":"jobId","type":"uint256","internalType":"uint256"}],"outputs":[],"stateMutability":"nonpayable"},{"type":"function","name":"claimRefund","inputs":[{"name":"jobId","type":"uint256","internalType":"uint256"}],"outputs":[],"stateMutability":"nonpayable"},{"type":"function","name":"complete","inputs":[{"name":"jobId","type":"uint256","internalType":"uint256"},{"name":"reason","type":"bytes32","internalType":"bytes32"}],"outputs":[],"stateMutability":"nonpayable"},{"type":"function","name":"createJob","inputs":[{"name":"provider","type":"address","internalType":"address"},{"name":"evaluator","type":"address","internalType":"address"},{"name":"expiredAt","type":"uint256","internalType":"uint256"},{"name":"description","type":"string","internalType":"string"},{"name":"repoName","type":"string","internalType":"string"},{"name":"hook","type":"address","internalType":"address"}],"outputs":[{"name":"jobId","type":"uint256","internalType":"uint256"}],"stateMutability":"nonpayable"},{"type":"function","name":"fund","inputs":[{"name":"jobId","type":"uint256","internalType":"uint256"},{"name":"expectedBudget","type":"uint256","internalType":"uint256"}],"outputs":[],"stateMutability":"nonpayable"},{"type":"function","name":"getJob","inputs":[{"name":"jobId","type":"uint256","internalType":"uint256"}],"outputs":[{"name":"job","type":"tuple","internalType":"struct BugBountyEscrow.Job","components":[{"name":"client","type":"address","internalType":"address"},{"name":"provider","type":"address","internalType":"address"},{"name":"evaluator","type":"address","internalType":"address"},{"name":"budget","type":"uint256","internalType":"uint256"},{"name":"expiredAt","type":"uint256","internalType":"uint256"},{"name":"status","type":"uint8","internalType":"enum BugBountyEscrow.Status"},{"name":"repoName","type":"string","internalType":"string"},{"name":"description","type":"string","internalType":"string"},{"name":"deliverable","type":"string","internalType":"string"},{"name":"hook","type":"address","internalType":"address"}]}],"stateMutability":"view"},{"type":"function","name":"jobExists","inputs":[{"name":"jobId","type":"uint256","internalType":"uint256"}],"outputs":[{"name":"exists","type":"bool","internalType":"bool"}],"stateMutability":"view"},{"type":"function","name":"jobs","inputs":[{"name":"","type":"uint256","internalType":"uint256"}],"outputs":[{"name":"client","type":"address","internalType":"address"},{"name":"provider","type":"address","internalType":"address"},{"name":"evaluator","type":"address","internalType":"address"},{"name":"budget","type":"uint256","internalType":"uint256"},{"name":"expiredAt","type":"uint256","internalType":"uint256"},{"name":"status","type":"uint8","internalType":"enum BugBountyEscrow.Status"},{"name":"repoName","type":"string","internalType":"string"},{"name":"description","type":"string","internalType":"string"},{"name":"deliverable","type":"string","internalType":"string"},{"name":"hook","type":"address","internalType":"address"}],"stateMutability":"view"},{"type":"function","name":"nextJobId","inputs":[],"outputs":[{"name":"","type":"uint256","internalType":"uint256"}],"stateMutability":"view"},{"type":"function","name":"reject","inputs":[{"name":"jobId","type":"uint256","internalType":"uint256"},{"name":"reason","type":"bytes32","internalType":"bytes32"}],"outputs":[],"stateMutability":"nonpayable"},{"type":"function","name":"setBudget","inputs":[{"name":"jobId","type":"uint256","internalType":"uint256"},{"name":"amount","type":"uint256","internalType":"uint256"}],"outputs":[],"stateMutability":"nonpayable"},{"type":"function","name":"setProvider","inputs":[{"name":"jobId","type":"uint256","internalType":"uint256"},{"name":"provider","type":"address","internalType":"address"}],"outputs":[],"stateMutability":"nonpayable"},{"type":"function","name":"submit","inputs":[{"name":"jobId","type":"uint256","internalType":"uint256"},{"name":"deliverable","type":"string","internalType":"string"}],"outputs":[],"stateMutability":"nonpayable"},{"type":"function","name":"token","inputs":[],"outputs":[{"name":"","type":"address","internalType":"contract IERC20"}],"stateMutability":"view"},{"type":"event","name":"BudgetSet","inputs":[{"name":"jobId","type":"uint256","indexed":true,"internalType":"uint256"},{"name":"budget","type":"uint256","indexed":false,"internalType":"uint256"}],"anonymous":false},{"type":"event","name":"JobCompleted","inputs":[{"name":"jobId","type":"uint256","indexed":true,"internalType":"uint256"},{"name":"reason","type":"bytes32","indexed":false,"internalType":"bytes32"}],"anonymous":false},{"type":"event","name":"JobCreated","inputs":[{"name":"jobId","type":"uint256","indexed":true,"internalType":"uint256"},{"name":"client","type":"address","indexed":true,"internalType":"address"},{"name":"evaluator","type":"address","indexed":true,"internalType":"address"},{"name":"repoName","type":"string","indexed":false,"internalType":"string"}],"anonymous":false},{"type":"event","name":"JobExpired","inputs":[{"name":"jobId","type":"uint256","indexed":true,"internalType":"uint256"}],"anonymous":false},{"type":"event","name":"JobFunded","inputs":[{"name":"jobId","type":"uint256","indexed":true,"internalType":"uint256"},{"name":"amount","type":"uint256","indexed":false,"internalType":"uint256"}],"anonymous":false},{"type":"event","name":"JobRejected","inputs":[{"name":"jobId","type":"uint256","indexed":true,"internalType":"uint256"},{"name":"reason","type":"bytes32","indexed":false,"internalType":"bytes32"}],"anonymous":false},{"type":"event","name":"JobSubmitted","inputs":[{"name":"jobId","type":"uint256","indexed":true,"internalType":"uint256"},{"name":"provider","type":"address","indexed":true,"internalType":"address"},{"name":"deliverable","type":"string","indexed":false,"internalType":"string"}],"anonymous":false},{"type":"event","name":"PaymentReleased","inputs":[{"name":"jobId","type":"uint256","indexed":true,"internalType":"uint256"},{"name":"provider","type":"address","indexed":true,"internalType":"address"},{"name":"amount","type":"uint256","indexed":false,"internalType":"uint256"}],"anonymous":false},{"type":"event","name":"ProviderSet","inputs":[{"name":"jobId","type":"uint256","indexed":true,"internalType":"uint256"},{"name":"provider","type":"address","indexed":true,"internalType":"address"}],"anonymous":false},{"type":"event","name":"Refunded","inputs":[{"name":"jobId","type":"uint256","indexed":true,"internalType":"uint256"},{"name":"client","type":"address","indexed":true,"internalType":"address"},{"name":"amount","type":"uint256","indexed":false,"internalType":"uint256"}],"anonymous":false},{"type":"error","name":"InsufficientFunds","inputs":[]},{"type":"error","name":"InvalidJobState","inputs":[]},{"type":"error","name":"InvalidParameters","inputs":[]},{"type":"error","name":"JobIsExpired","inputs":[]},{"type":"error","name":"JobNotYetExpired","inputs":[]},{"type":"error","name":"TransferFailed","inputs":[]},{"type":"error","name":"UnauthorizedCaller","inputs":[]}],"bytecode":{"object":"0x60a060405260018055348015610013575f80fd5b5060405162001fc538038062001fc58339810160408190526100349161006c565b6001600160a01b03811661005b57604051630e52390960e41b815260040160405180910390fd5b6001600160a01b0316608052610099565b5f6020828403121561007c575f80fd5b81516001600160a01b0381168114610092575f80fd5b9392505050565b608051611ef7620000ce5f395f818161023a0152818161099501528181610d23015281816110e4015261155c0152611ef75ff3fe608060405234801561000f575f80fd5b50600436106100e5575f3560e01c80639675dc1711610088578063bf22c45711610063578063bf22c457146101ef578063cd56b1b61461020f578063d0fae59114610222578063fc0c546a14610235575f80fd5b80639675dc17146101c0578063a65e2cfd146101d3578063b0c2aa5e146101e6575f80fd5b806340e58ee5116100c357806340e58ee5146101725780635b7baf64146101875780635d63f6c61461019a5780636be1320b146101ad575f80fd5b806311461014146100e9578063180aedf3146101285780632cd8a04514610151575b5f80fd5b6101136100f7366004611863565b5f908152602081905260409020546001600160a01b0316151590565b60405190151581526020015b60405180910390f35b61013b610136366004611863565b610274565b60405161011f9a999897969594939291906118f1565b61016461015f3660046119e1565b610471565b60405190815260200161011f565b610185610180366004611863565b6107ad565b005b610185610195366004611863565b6108b7565b6101856101a8366004611a85565b610ab5565b6101856101bb366004611acd565b610c3c565b6101856101ce366004611acd565b610e4b565b6101856101e1366004611acd565b610f8a565b61016460015481565b6102026101fd366004611863565b6111db565b60405161011f9190611aed565b61018561021d366004611acd565b611485565b610185610230366004611be2565b611689565b61025c7f000000000000000000000000000000000000000000000000000000000000000081565b6040516001600160a01b03909116815260200161011f565b5f6020819052908152604090208054600182015460028301546003840154600485015460058601546006870180546001600160a01b039788169896881697909516959394929360ff909216926102c990611c0c565b80601f01602080910402602001604051908101604052809291908181526020018280546102f590611c0c565b80156103405780601f1061031757610100808354040283529160200191610340565b820191905f5260205f20905b81548152906001019060200180831161032357829003601f168201915b50505050509080600701805461035590611c0c565b80601f016020809104026020016040519081016040528092919081815260200182805461038190611c0c565b80156103cc5780601f106103a3576101008083540402835291602001916103cc565b820191905f5260205f20905b8154815290600101906020018083116103af57829003601f168201915b5050505050908060080180546103e190611c0c565b80601f016020809104026020016040519081016040528092919081815260200182805461040d90611c0c565b80156104585780601f1061042f57610100808354040283529160200191610458565b820191905f5260205f20905b81548152906001019060200180831161043b57829003601f168201915b505050600990930154919250506001600160a01b03168a565b5f6001600160a01b03881661049957604051630e52390960e41b815260040160405180910390fd5b4287116104b957604051630e52390960e41b815260040160405180910390fd5b5f8590036104da57604051630e52390960e41b815260040160405180910390fd5b5f8390036104fb57604051630e52390960e41b815260040160405180910390fd5b60018054905f61050a83611c44565b919050559050604051806101400160405280336001600160a01b031681526020018a6001600160a01b03168152602001896001600160a01b031681526020015f81526020018881526020015f60058111156105675761056761187a565b815260200185858080601f0160208091040260200160405190810160405280939291908181526020018383808284375f92019190915250505090825250604080516020601f8a01819004810282018101909252888152918101919089908990819084018382808284375f92018290525093855250506040805160208082018352848252808601919091526001600160a01b038881169583019590955286845283815292819020855181546001600160a01b031990811691871691909117825593860151600180830180548716928816929092179091559186015160028201805490951695169490941790925550606083015160038301556080830151600483015560a0830151600580840180549293909260ff191691849081111561068e5761068e61187a565b021790555060c082015160068201906106a79082611cc7565b5060e082015160078201906106bc9082611cc7565b5061010082015160088201906106d29082611cc7565b506101209190910151600990910180546001600160a01b0319166001600160a01b0392831617905560405190891690339083907f80db542af6c20f3e65ef1491b0e21348d7e0886188a155c44e2fb98be44c232b906107349089908990611d83565b60405180910390a46001600160a01b03891615610781576040516001600160a01b038a169082907f9a87df076ea1725aba8ba29d32517ce37c9597d88cbf16ec6707892cc330ab69905f90a35b6107a181632cd8a04560e01b60405180602001604052805f8152506117e0565b98975050505050505050565b5f8181526020819052604090205481906001600160a01b031633146107e557604051635c427cd960e01b815260040160405180910390fd5b815f805f83815260208190526040902060059081015460ff169081111561080e5761080e61187a565b1461082c576040516306a67b1f60e21b815260040160405180910390fd5b5f8481526020818152604091829020600501805460ff1916600417905590517218d85b98d95b1b195917d89e57d8db1a595b9d606a1b815285917f0854a7c78c93bd827e71843f970b508d4cdc63d0c9fd44cf7238a61ec5501f92910160405180910390a26108b1846340e58ee560e01b60405180602001604052805f8152506117e0565b50505050565b5f8181526020819052604090206004015481904210156108ea576040516374c6f84560e01b815260040160405180910390fd5b5f828152602081905260409020600160058083015460ff16908111156109125761091261187a565b141580156109395750600260058083015460ff16908111156109365761093661187a565b14155b15610957576040516306a67b1f60e21b815260040160405180910390fd5b6005818101805460ff191690911790558054600382015460405163a9059cbb60e01b81526001600160a01b03928316600482015260248101919091527f00000000000000000000000000000000000000000000000000000000000000009091169063a9059cbb906044016020604051808303815f875af11580156109dd573d5f803e3d5ffd5b505050506040513d601f19601f82011682018060405250810190610a019190611db1565b610a1e576040516312171d8360e31b815260040160405180910390fd5b60405183907f97237956f8810192811e2c3f273fd02c5d6295206fdd9c62e6fe2bfc19ba9232905f90a2805460038201546040519081526001600160a01b039091169084907f7ca5472b7ea78c2c0141c5a12ee6d170cf4ce8ed06be3d22c8252ddfc7a6a2c49060200160405180910390a3610ab083635b7baf6460e01b60405180602001604052805f8152506117e0565b505050565b5f8381526020819052604090206001015483906001600160a01b03163314610af057604051635c427cd960e01b815260040160405180910390fd5b836001805f83815260208190526040902060059081015460ff1690811115610b1a57610b1a61187a565b14610b38576040516306a67b1f60e21b815260040160405180910390fd5b5f8681526020819052604090206004015486904210610b6a5760405163c16c6a4960e01b815260040160405180910390fd5b5f859003610b8b57604051630e52390960e41b815260040160405180910390fd5b5f878152602081905260409020600801610ba6868883611dd7565b505f8781526020819052604090819020600501805460ff1916600217905551339088907fc3cbb2202e3d73ca112df783c413b7a98625e6fe6f12adc7c68afb9c9053a38090610bf8908a908a90611d83565b60405180910390a3610c3387635d63f6c660e01b8888604051602001610c1f929190611d83565b6040516020818303038152906040526117e0565b50505050505050565b5f8281526020819052604090206002015482906001600160a01b03163314610c7757604051635c427cd960e01b815260040160405180910390fd5b5f838152602081905260409020600160058083015460ff1690811115610c9f57610c9f61187a565b14158015610cc65750600260058083015460ff1690811115610cc357610cc361187a565b14155b15610ce4576040516306a67b1f60e21b815260040160405180910390fd5b60058101805460ff191660049081179091558154600383015460405163a9059cbb60e01b81526001600160a01b039283169381019390935260248301527f0000000000000000000000000000000000000000000000000000000000000000169063a9059cbb906044016020604051808303815f875af1158015610d69573d5f803e3d5ffd5b505050506040513d601f19601f82011682018060405250810190610d8d9190611db1565b610daa576040516312171d8360e31b815260040160405180910390fd5b837f0854a7c78c93bd827e71843f970b508d4cdc63d0c9fd44cf7238a61ec5501f9284604051610ddc91815260200190565b60405180910390a2805460038201546040519081526001600160a01b039091169085907f7ca5472b7ea78c2c0141c5a12ee6d170cf4ce8ed06be3d22c8252ddfc7a6a2c49060200160405180910390a36108b184636be1320b60e01b85604051602001610c1f91815260200190565b5f8281526020819052604090205482906001600160a01b03163314610e8357604051635c427cd960e01b815260040160405180910390fd5b825f805f83815260208190526040902060059081015460ff1690811115610eac57610eac61187a565b14610eca576040516306a67b1f60e21b815260040160405180910390fd5b5f8581526020819052604090206004015485904210610efc5760405163c16c6a4960e01b815260040160405180910390fd5b845f03610f1c57604051630e52390960e41b815260040160405180910390fd5b5f8681526020818152604091829020600301879055905186815287917f869e2577b006bf47ee981cf6fec2e25583548081c14b98deab587f77b5068038910160405180910390a2610f8286639675dc1760e01b87604051602001610c1f91815260200190565b505050505050565b5f8281526020819052604090205482906001600160a01b03163314610fc257604051635c427cd960e01b815260040160405180910390fd5b825f805f83815260208190526040902060059081015460ff1690811115610feb57610feb61187a565b14611009576040516306a67b1f60e21b815260040160405180910390fd5b5f858152602081905260409020600401548590421061103b5760405163c16c6a4960e01b815260040160405180910390fd5b5f868152602081905260408120600381015490910361106d57604051630e52390960e41b815260040160405180910390fd5b8581600301541461109157604051630e52390960e41b815260040160405180910390fd5b60018101546001600160a01b03166110bc57604051630e52390960e41b815260040160405180910390fd5b60038101546040516323b872dd60e01b815233600482015230602482015260448101919091527f00000000000000000000000000000000000000000000000000000000000000006001600160a01b0316906323b872dd906064016020604051808303815f875af1158015611132573d5f803e3d5ffd5b505050506040513d601f19601f820116820180604052508101906111569190611db1565b611173576040516312171d8360e31b815260040160405180910390fd5b60058101805460ff19166001179055600381015460405190815287907f9d25c5cf940eed311c45e5a0b4c7c8790a356d3c356453b76bb7e232db3f384a9060200160405180910390a2610c338763a65e2cfd60e01b88604051602001610c1f91815260200190565b60408051610140810182525f8082526020820181905291810182905260608082018390526080820183905260a0820183905260c0820181905260e082018190526101008201526101208101919091525f828152602081815260409182902082516101408101845281546001600160a01b0390811682526001830154811693820193909352600282015490921692820192909252600382015460608201526004820154608082015260058083015491929160a084019160ff909116908111156112a5576112a561187a565b60058111156112b6576112b661187a565b81526020016006820180546112ca90611c0c565b80601f01602080910402602001604051908101604052809291908181526020018280546112f690611c0c565b80156113415780601f1061131857610100808354040283529160200191611341565b820191905f5260205f20905b81548152906001019060200180831161132457829003601f168201915b5050505050815260200160078201805461135a90611c0c565b80601f016020809104026020016040519081016040528092919081815260200182805461138690611c0c565b80156113d15780601f106113a8576101008083540402835291602001916113d1565b820191905f5260205f20905b8154815290600101906020018083116113b457829003601f168201915b505050505081526020016008820180546113ea90611c0c565b80601f016020809104026020016040519081016040528092919081815260200182805461141690611c0c565b80156114615780601f1061143857610100808354040283529160200191611461565b820191905f5260205f20905b81548152906001019060200180831161144457829003601f168201915b5050509183525050600991909101546001600160a01b031660209091015292915050565b5f8281526020819052604090206002015482906001600160a01b031633146114c057604051635c427cd960e01b815260040160405180910390fd5b826002805f83815260208190526040902060059081015460ff16908111156114ea576114ea61187a565b14611508576040516306a67b1f60e21b815260040160405180910390fd5b5f8581526020819052604090206005810180546003919060ff191660018302179055506001810154600382015460405163a9059cbb60e01b81526001600160a01b03928316600482015260248101919091527f00000000000000000000000000000000000000000000000000000000000000009091169063a9059cbb906044016020604051808303815f875af11580156115a4573d5f803e3d5ffd5b505050506040513d601f19601f820116820180604052508101906115c89190611db1565b6115e5576040516312171d8360e31b815260040160405180910390fd5b857f45c386dc6524a2d9fe630455323c6a39f557c52ab01e886deee20a0b538147ac8660405161161791815260200190565b60405180910390a2600181015460038201546040519081526001600160a01b039091169087907f21d71db5be59bb9fa133895586b7404307dd33fb93b16db09dc6f1d9d7d231b09060200160405180910390a3610f828663cd56b1b660e01b87604051602001610c1f91815260200190565b5f8281526020819052604090205482906001600160a01b031633146116c157604051635c427cd960e01b815260040160405180910390fd5b825f805f83815260208190526040902060059081015460ff16908111156116ea576116ea61187a565b14611708576040516306a67b1f60e21b815260040160405180910390fd5b5f858152602081905260409020600401548590421061173a5760405163c16c6a4960e01b815260040160405180910390fd5b6001600160a01b03851661176157604051630e52390960e41b815260040160405180910390fd5b5f8681526020819052604080822060010180546001600160a01b0319166001600160a01b0389169081179091559051909188917f9a87df076ea1725aba8ba29d32517ce37c9597d88cbf16ec6707892cc330ab699190a3604080516001600160a01b0387166020820152610f8291889163d0fae59160e01b9101610c1f565b5f838152602081905260409020600901546001600160a01b031680156108b15760405163dc08fb1d60e01b81526001600160a01b0382169063dc08fb1d9061183090879087908790600401611e91565b5f604051808303815f87803b158015611847575f80fd5b505af1925050508015611858575060015b156108b15750505050565b5f60208284031215611873575f80fd5b5035919050565b634e487b7160e01b5f52602160045260245ffd5b600681106118aa57634e487b7160e01b5f52602160045260245ffd5b9052565b5f81518084525f5b818110156118d2576020818501810151868301820152016118b6565b505f602082860101526020601f19601f83011685010191505092915050565b5f61014060018060a01b03808e168452808d166020850152808c1660408501528a606085015289608085015261192a60a085018a61188e565b8160c085015261193c828501896118ae565b915083820360e085015261195082886118ae565b915083820361010085015261196582876118ae565b925080851661012085015250509b9a5050505050505050505050565b80356001600160a01b0381168114611997575f80fd5b919050565b5f8083601f8401126119ac575f80fd5b50813567ffffffffffffffff8111156119c3575f80fd5b6020830191508360208285010111156119da575f80fd5b9250929050565b5f805f805f805f8060c0898b0312156119f8575f80fd5b611a0189611981565b9750611a0f60208a01611981565b965060408901359550606089013567ffffffffffffffff80821115611a32575f80fd5b611a3e8c838d0161199c565b909750955060808b0135915080821115611a56575f80fd5b50611a638b828c0161199c565b9094509250611a76905060a08a01611981565b90509295985092959890939650565b5f805f60408486031215611a97575f80fd5b83359250602084013567ffffffffffffffff811115611ab4575f80fd5b611ac08682870161199c565b9497909650939450505050565b5f8060408385031215611ade575f80fd5b50508035926020909101359150565b60208152611b076020820183516001600160a01b03169052565b5f6020830151611b2260408401826001600160a01b03169052565b5060408301516001600160a01b03811660608401525060608301516080830152608083015160a083015260a0830151611b5e60c084018261188e565b5060c08301516101408060e0850152611b7b6101608501836118ae565b915060e0850151601f19610100818786030181880152611b9b85846118ae565b945080880151925050610120818786030181880152611bba85846118ae565b94508088015192505050611bd8828601826001600160a01b03169052565b5090949350505050565b5f8060408385031215611bf3575f80fd5b82359150611c0360208401611981565b90509250929050565b600181811c90821680611c2057607f821691505b602082108103611c3e57634e487b7160e01b5f52602260045260245ffd5b50919050565b5f60018201611c6157634e487b7160e01b5f52601160045260245ffd5b5060010190565b634e487b7160e01b5f52604160045260245ffd5b601f821115610ab057805f5260205f20601f840160051c81016020851015611ca15750805b601f840160051c820191505b81811015611cc0575f8155600101611cad565b5050505050565b815167ffffffffffffffff811115611ce157611ce1611c68565b611cf581611cef8454611c0c565b84611c7c565b602080601f831160018114611d28575f8415611d115750858301515b5f19600386901b1c1916600185901b178555610f82565b5f85815260208120601f198616915b82811015611d5657888601518255948401946001909101908401611d37565b5085821015611d7357878501515f19600388901b60f8161c191681555b5050505050600190811b01905550565b60208152816020820152818360408301375f818301604090810191909152601f909201601f19160101919050565b5f60208284031215611dc1575f80fd5b81518015158114611dd0575f80fd5b9392505050565b67ffffffffffffffff831115611def57611def611c68565b611e0383611dfd8354611c0c565b83611c7c565b5f601f841160018114611e34575f8515611e1d5750838201355b5f19600387901b1c1916600186901b178355611cc0565b5f83815260208120601f198716915b82811015611e635786850135825560209485019460019092019101611e43565b5086821015611e7f575f1960f88860031b161c19848701351681555b505060018560011b0183555050505050565b83815263ffffffff60e01b83166020820152606060408201525f611eb860608301846118ae565b9594505050505056fea2646970667358221220a63d999f185b6102ee9999f5515cf7c63e9beaa7709f0017fb1f85d50e7d8a0a64736f6c63430008180033","linkReferences":{}},"methodIdentifiers":{"cancel(uint256)":"40e58ee5","claimRefund(uint256)":"5b7baf64","complete(uint256,bytes32)":"cd56b1b6","createJob(address,address,uint256,string,string,address)":"2cd8a045","fund(uint256,uint256)":"a65e2cfd","getJob(uint256)":"bf22c457","jobExists(uint256)":"11461014","jobs(uint256)":"180aedf3","nextJobId()":"b0c2aa5e","reject(uint256,bytes32)":"6be1320b","setBudget(uint256,uint256)":"9675dc17","setProvider(uint256,address)":"d0fae591","submit(uint256,string)":"5d63f6c6","token()":"fc0c546a"},"id":0}