{"abi":[{"type":"constructor","inputs":[{"name":"_nftContract","type":"address","internalType":"address"},{"name":"_recipient","type":"address","internalType":"address"}],"stateMutability":"nonpayable"},{"type":"function","name":"BASE_PRICE","inputs":[],"outputs":[{"name":"","type":"uint256","internalType":"uint256"}],"stateMutability":"view"},{"type":"function","name":"PRICE_INCREMENT","inputs":[],"outputs":[{"name":"","type":"uint256","internalType":"uint256"}],"stateMutability":"view"},{"type":"function","name":"currentPrice","inputs":[],"outputs":[{"name":"","type":"uint256","internalType":"uint256"}],"stateMutability":"view"},{"type":"function","name":"emergencyWithdraw","inputs":[],"outputs":[],"stateMutability":"nonpayable"},{"type":"function","name":"getPricingInfo","inputs":[],"outputs":[{"name":"basePrice","type":"uint256","internalType":"uint256"},{"name":"increment","type":"uint256","internalType":"uint256"},{"name":"current","type":"uint256","internalType":"uint256"},{"name":"next","type":"uint256","internalType":"uint256"},{"name":"minted","type":"uint256","internalType":"uint256"}],"stateMutability":"view"},{"type":"function","name":"mint","inputs":[{"name":"name","type":"string","internalType":"string"},{"name":"resolvedAddress","type":"address","internalType":"address"}],"outputs":[],"stateMutability":"payable"},{"type":"function","name":"nextPrice","inputs":[],"outputs":[{"name":"","type":"uint256","internalType":"uint256"}],"stateMutability":"view"},{"type":"function","name":"nftContract","inputs":[],"outputs":[{"name":"","type":"address","internalType":"contract RepoBoxNames"}],"stateMutability":"view"},{"type":"function","name":"recipient","inputs":[],"outputs":[{"name":"","type":"address","internalType":"address"}],"stateMutability":"view"},{"type":"function","name":"totalMinted","inputs":[],"outputs":[{"name":"","type":"uint256","internalType":"uint256"}],"stateMutability":"view"},{"type":"function","name":"validateName","inputs":[{"name":"name","type":"string","internalType":"string"}],"outputs":[{"name":"","type":"bool","internalType":"bool"}],"stateMutability":"pure"},{"type":"event","name":"NameMinted","inputs":[{"name":"to","type":"address","indexed":true,"internalType":"address"},{"name":"name","type":"string","indexed":false,"internalType":"string"},{"name":"price","type":"uint256","indexed":false,"internalType":"uint256"},{"name":"tokenId","type":"uint256","indexed":false,"internalType":"uint256"}],"anonymous":false},{"type":"error","name":"ReentrancyGuardReentrantCall","inputs":[]}],"bytecode":{"object":"0x60c060405234801561000f575f80fd5b50604051610f20380380610f2083398101604081905261002e91610129565b60017f9b779b17422d0df92223018b32b4d1fa46e071723d6817e2486d003becc55f00556001600160a01b0382166100ad5760405162461bcd60e51b815260206004820152601460248201527f496e76616c6964204e465420636f6e747261637400000000000000000000000060448201526064015b60405180910390fd5b6001600160a01b0381166100f75760405162461bcd60e51b8152602060048201526011602482015270125b9d985b1a59081c9958da5c1a595b9d607a1b60448201526064016100a4565b6001600160a01b039182166080521660a05261015a565b80516001600160a01b0381168114610124575f80fd5b919050565b5f806040838503121561013a575f80fd5b6101438361010e565b91506101516020840161010e565b90509250929050565b60805160a051610d8261019e5f395f818161010501526104da01525f81816101ce015281816102a1015281816103e301528181610471015261087b0152610d825ff3fe60806040526004361061009a575f3560e01c80639ffdb65a116100625780639ffdb65a1461017a578063a2309ff8146101a9578063d56d229d146101bd578063db2e21bc146101f0578063ef9089d614610204578063f86325ed14610218575f80fd5b80631c351a9d1461009e578063374f6d5d146100b357806366d003ac146100f45780636d25d8021461013f5780639d1b464a14610166575b5f80fd5b6100b16100ac366004610b3b565b610232565b005b3480156100be575f80fd5b506100c7610699565b604080519586526020860194909452928401919091526060830152608082015260a0015b60405180910390f35b3480156100ff575f80fd5b506101277f000000000000000000000000000000000000000000000000000000000000000081565b6040516001600160a01b0390911681526020016100eb565b34801561014a575f80fd5b5061015865048c2739500081565b6040519081526020016100eb565b348015610171575f80fd5b506101586106f2565b348015610185575f80fd5b50610199610194366004610b8a565b61071c565b60405190151581526020016100eb565b3480156101b4575f80fd5b506101585f5481565b3480156101c8575f80fd5b506101277f000000000000000000000000000000000000000000000000000000000000000081565b3480156101fb575f80fd5b506100b1610879565b34801561020f575f80fd5b506101586109f8565b348015610223575f80fd5b506101586601c6bf5263400081565b61023a610a18565b6102438261071c565b61028a5760405162461bcd60e51b8152602060048201526013602482015272125b9d985b1a59081b985b5948199bdc9b585d606a1b60448201526064015b60405180910390fd5b604051636631bd7f60e11b81526001600160a01b037f0000000000000000000000000000000000000000000000000000000000000000169063cc637afe906102d6908590600401610c07565b602060405180830381865afa1580156102f1573d5f803e3d5ffd5b505050506040513d601f19601f820116820180604052508101906103159190610c20565b156103585760405162461bcd60e51b81526020600482015260136024820152724e616d6520616c72656164792065786973747360681b6044820152606401610281565b5f6103616106f2565b9050803410156103aa5760405162461bcd60e51b8152602060048201526014602482015273125b9cdd59999a58da595b9d081c185e5b595b9d60621b6044820152606401610281565b5f6103b58234610c53565b5f8054919250806103c583610c6c565b909155505060405163079d98ef60e21b81525f906001600160a01b037f00000000000000000000000000000000000000000000000000000000000000001690631e7663bc90610418908890600401610c07565b602060405180830381865afa158015610433573d5f803e3d5ffd5b505050506040513d601f19601f820116820180604052508101906104579190610c84565b604051631f50a13960e31b81529091506001600160a01b037f0000000000000000000000000000000000000000000000000000000000000000169063fa8509c8906104aa90339089908990600401610c9b565b5f604051808303815f87803b1580156104c1575f80fd5b505af11580156104d3573d5f803e3d5ffd5b505050505f7f00000000000000000000000000000000000000000000000000000000000000006001600160a01b0316846040515f6040518083038185875af1925050503d805f8114610540576040519150601f19603f3d011682016040523d82523d5f602084013e610545565b606091505b50509050806105965760405162461bcd60e51b815260206004820152601760248201527f5061796d656e74207472616e73666572206661696c65640000000000000000006044820152606401610281565b8215610623576040515f90339085908381818185875af1925050503d805f81146105db576040519150601f19603f3d011682016040523d82523d5f602084013e6105e0565b606091505b50509050806106215760405162461bcd60e51b815260206004820152600d60248201526c1499599d5b990819985a5b1959609a1b6044820152606401610281565b505b336001600160a01b03167f5368c001f99f452c2722c23b03143d4c3794dbbc4fb7bd340e652f228915b8ba87868560405161066093929190610ccf565b60405180910390a25050505061069560017f9b779b17422d0df92223018b32b4d1fa46e071723d6817e2486d003becc55f0055565b5050565b6601c6bf5263400065048c273950005f80806106b36106f2565b925065048c273950005f5460016106ca9190610cf3565b6106d49190610d06565b6106e5906601c6bf52634000610cf3565b91505f5490509091929394565b5f65048c273950005f546107069190610d06565b610717906601c6bf52634000610cf3565b905090565b80515f90829060038110806107315750602081115b1561073f57505f9392505050565b815f8151811061075157610751610d1d565b6020910101516001600160f81b031916602d60f81b14806107a0575081610779600183610c53565b8151811061078957610789610d1d565b6020910101516001600160f81b031916602d60f81b145b156107ae57505f9392505050565b5f5b8181101561086e575f8382815181106107cb576107cb610d1d565b01602001516001600160f81b0319169050606160f81b81108015906107fe5750603d60f91b6001600160f81b0319821611155b156108095750610866565b600360fc1b6001600160f81b03198216108015906108355750603960f81b6001600160f81b0319821611155b156108405750610866565b6001600160f81b03198116602d60f81b0361085b5750610866565b505f95945050505050565b6001016107b0565b506001949350505050565b7f00000000000000000000000000000000000000000000000000000000000000006001600160a01b0316638da5cb5b6040518163ffffffff1660e01b8152600401602060405180830381865afa1580156108d5573d5f803e3d5ffd5b505050506040513d601f19601f820116820180604052508101906108f99190610d31565b6001600160a01b0316336001600160a01b0316146109595760405162461bcd60e51b815260206004820152601760248201527f4f6e6c79204e465420636f6e7472616374206f776e65720000000000000000006044820152606401610281565b4780156109f5576040515f90339083908381818185875af1925050503d805f811461099f576040519150601f19603f3d011682016040523d82523d5f602084013e6109a4565b606091505b50509050806106955760405162461bcd60e51b815260206004820152601b60248201527f456d657267656e6379207769746864726177616c206661696c656400000000006044820152606401610281565b50565b5f65048c273950005f546001610a0e9190610cf3565b6107069190610d06565b610a20610a46565b60027f9b779b17422d0df92223018b32b4d1fa46e071723d6817e2486d003becc55f0055565b7f9b779b17422d0df92223018b32b4d1fa46e071723d6817e2486d003becc55f0054600203610a8857604051633ee5aeb560e01b815260040160405180910390fd5b565b634e487b7160e01b5f52604160045260245ffd5b5f82601f830112610aad575f80fd5b813567ffffffffffffffff80821115610ac857610ac8610a8a565b604051601f8301601f19908116603f01168101908282118183101715610af057610af0610a8a565b81604052838152866020858801011115610b08575f80fd5b836020870160208301375f602085830101528094505050505092915050565b6001600160a01b03811681146109f5575f80fd5b5f8060408385031215610b4c575f80fd5b823567ffffffffffffffff811115610b62575f80fd5b610b6e85828601610a9e565b9250506020830135610b7f81610b27565b809150509250929050565b5f60208284031215610b9a575f80fd5b813567ffffffffffffffff811115610bb0575f80fd5b610bbc84828501610a9e565b949350505050565b5f81518084525f5b81811015610be857602081850181015186830182015201610bcc565b505f602082860101526020601f19601f83011685010191505092915050565b602081525f610c196020830184610bc4565b9392505050565b5f60208284031215610c30575f80fd5b81518015158114610c19575f80fd5b634e487b7160e01b5f52601160045260245ffd5b81810381811115610c6657610c66610c3f565b92915050565b5f60018201610c7d57610c7d610c3f565b5060010190565b5f60208284031215610c94575f80fd5b5051919050565b5f60018060a01b03808616835260606020840152610cbc6060840186610bc4565b9150808416604084015250949350505050565b606081525f610ce16060830186610bc4565b60208301949094525060400152919050565b80820180821115610c6657610c66610c3f565b8082028115828204841417610c6657610c66610c3f565b634e487b7160e01b5f52603260045260245ffd5b5f60208284031215610d41575f80fd5b8151610c1981610b2756fea2646970667358221220285689b094994e3454134a7912e54f31c7d1aaa884be55545bcad4b72adad9d264736f6c63430008180033","linkReferences":{}},"methodIdentifiers":{"BASE_PRICE()":"f86325ed","PRICE_INCREMENT()":"6d25d802","currentPrice()":"9d1b464a","emergencyWithdraw()":"db2e21bc","getPricingInfo()":"374f6d5d","mint(string,address)":"1c351a9d","nextPrice()":"ef9089d6","nftContract()":"d56d229d","recipient()":"66d003ac","totalMinted()":"a2309ff8","validateName(string)":"9ffdb65a"},"id":38}