{"abi":[{"type":"constructor","inputs":[{"name":"_names","type":"address","internalType":"address"},{"name":"_recipient","type":"address","internalType":"address payable"}],"stateMutability":"nonpayable"},{"type":"function","name":"BASE_PRICE","inputs":[],"outputs":[{"name":"","type":"uint256","internalType":"uint256"}],"stateMutability":"view"},{"type":"function","name":"PRICE_INCREMENT","inputs":[],"outputs":[{"name":"","type":"uint256","internalType":"uint256"}],"stateMutability":"view"},{"type":"function","name":"currentPrice","inputs":[],"outputs":[{"name":"","type":"uint256","internalType":"uint256"}],"stateMutability":"view"},{"type":"function","name":"mint","inputs":[{"name":"name","type":"string","internalType":"string"},{"name":"resolvedAddress","type":"address","internalType":"address"}],"outputs":[],"stateMutability":"payable"},{"type":"function","name":"names","inputs":[],"outputs":[{"name":"","type":"address","internalType":"contract IRepoBoxNames"}],"stateMutability":"view"},{"type":"function","name":"recipient","inputs":[],"outputs":[{"name":"","type":"address","internalType":"address payable"}],"stateMutability":"view"},{"type":"function","name":"totalMinted","inputs":[],"outputs":[{"name":"","type":"uint256","internalType":"uint256"}],"stateMutability":"view"},{"type":"event","name":"NameMinted","inputs":[{"name":"buyer","type":"address","indexed":true,"internalType":"address"},{"name":"name","type":"string","indexed":false,"internalType":"string"},{"name":"price","type":"uint256","indexed":false,"internalType":"uint256"},{"name":"mintNumber","type":"uint256","indexed":false,"internalType":"uint256"}],"anonymous":false},{"type":"error","name":"InsufficientPayment","inputs":[]},{"type":"error","name":"InvalidName","inputs":[]},{"type":"error","name":"NameTaken","inputs":[]},{"type":"error","name":"TransferFailed","inputs":[]}],"bytecode":{"object":"0x60c060405234801561000f575f80fd5b5060405161090e38038061090e83398101604081905261002e9161005c565b6001600160a01b039182166080521660a052610094565b6001600160a01b0381168114610059575f80fd5b50565b5f806040838503121561006d575f80fd5b825161007881610045565b602084015190925061008981610045565b809150509250929050565b60805160a0516108466100c85f395f818160e801526102fd01525f8181608301528181610194015261027e01526108465ff3fe60806040526004361061006e575f3560e01c80636d25d8021161004c5780636d25d8021461010a5780639d1b464a14610131578063a2309ff814610145578063f86325ed14610159575f80fd5b8063056da048146100725780631c351a9d146100c257806366d003ac146100d7575b5f80fd5b34801561007d575f80fd5b506100a57f000000000000000000000000000000000000000000000000000000000000000081565b6040516001600160a01b0390911681526020015b60405180910390f35b6100d56100d036600461062a565b610173565b005b3480156100e2575f80fd5b506100a57f000000000000000000000000000000000000000000000000000000000000000081565b348015610115575f80fd5b5061012365048c2739500081565b6040519081526020016100b9565b34801561013c575f80fd5b50610123610447565b348015610150575f80fd5b506101235f5481565b348015610164575f80fd5b506101236601c6bf5263400081565b61017d8383610471565b604051636631bd7f60e11b81526001600160a01b037f0000000000000000000000000000000000000000000000000000000000000000169063cc637afe906101cb90869086906004016106d9565b602060405180830381865afa1580156101e6573d5f803e3d5ffd5b505050506040513d601f19601f8201168201806040525081019061020a91906106f4565b1561022857604051639e4b268560e01b815260040160405180910390fd5b5f610231610447565b9050803410156102545760405163cd1c886760e01b815260040160405180910390fd5b5f805490806102628361072e565b9091555050604051631f50a13960e31b81526001600160a01b037f0000000000000000000000000000000000000000000000000000000000000000169063fa8509c8906102b9903390889088908890600401610746565b6020604051808303815f875af11580156102d5573d5f803e3d5ffd5b505050506040513d601f19601f820116820180604052508101906102f9919061077c565b505f7f00000000000000000000000000000000000000000000000000000000000000006001600160a01b0316826040515f6040518083038185875af1925050503d805f8114610363576040519150601f19603f3d011682016040523d82523d5f602084013e610368565b606091505b505090508061038a576040516312171d8360e31b815260040160405180910390fd5b81341115610400575f3361039e8434610793565b6040515f81818185875af1925050503d805f81146103d7576040519150601f19603f3d011682016040523d82523d5f602084013e6103dc565b606091505b50509050806103fe576040516312171d8360e31b815260040160405180910390fd5b505b5f5460405133917f5368c001f99f452c2722c23b03143d4c3794dbbc4fb7bd340e652f228915b8ba91610438918991899188916107ac565b60405180910390a25050505050565b5f65048c273950005f5461045b91906107d2565b61046c906601c6bf526340006107e9565b905090565b5f82828080601f0160208091040260200160405190810160405280939291908181526020018383808284375f920191909152505082519293505060039091109050806104be575060208151115b156104dc5760405163430f13b360e01b815260040160405180910390fd5b805f815181106104ee576104ee6107fc565b6020910101516001600160f81b031916602d60f81b1480610540575080600182516105199190610793565b81518110610529576105296107fc565b6020910101516001600160f81b031916602d60f81b145b1561055e5760405163430f13b360e01b815260040160405180910390fd5b5f5b8151811015610624575f82828151811061057c5761057c6107fc565b01602001516001600160f81b03191690505f606160f81b82108015906105b05750603d60f91b6001600160f81b0319831611155b806105e25750600360fc1b6001600160f81b03198316108015906105e25750603960f81b6001600160f81b0319831611155b806105fa5750602d60f81b6001600160f81b03198316145b90508061061a5760405163430f13b360e01b815260040160405180910390fd5b5050600101610560565b50505050565b5f805f6040848603121561063c575f80fd5b833567ffffffffffffffff80821115610653575f80fd5b818601915086601f830112610666575f80fd5b813581811115610674575f80fd5b876020828501011115610685575f80fd5b602092830195509350508401356001600160a01b03811681146106a6575f80fd5b809150509250925092565b81835281816020850137505f828201602090810191909152601f909101601f19169091010190565b602081525f6106ec6020830184866106b1565b949350505050565b5f60208284031215610704575f80fd5b81518015158114610713575f80fd5b9392505050565b634e487b7160e01b5f52601160045260245ffd5b5f6001820161073f5761073f61071a565b5060010190565b5f60018060a01b038087168352606060208401526107686060840186886106b1565b915080841660408401525095945050505050565b5f6020828403121561078c575f80fd5b5051919050565b818103818111156107a6576107a661071a565b92915050565b606081525f6107bf6060830186886106b1565b6020830194909452506040015292915050565b80820281158282048414176107a6576107a661071a565b808201808211156107a6576107a661071a565b634e487b7160e01b5f52603260045260245ffdfea264697066735822122013f8c2776f148a94e178bf62a37741eb87de4356cac843616640ae665a70ff5264736f6c63430008180033","linkReferences":{}},"methodIdentifiers":{"BASE_PRICE()":"f86325ed","PRICE_INCREMENT()":"6d25d802","currentPrice()":"9d1b464a","mint(string,address)":"1c351a9d","names()":"056da048","recipient()":"66d003ac","totalMinted()":"a2309ff8"},"id":1}