{"abi":[{"type":"constructor","inputs":[{"name":"_names","type":"address","internalType":"address"},{"name":"_gatewayUrl","type":"string","internalType":"string"},{"name":"_signer","type":"address","internalType":"address"}],"stateMutability":"nonpayable"},{"type":"function","name":"addr","inputs":[{"name":"node","type":"bytes32","internalType":"bytes32"}],"outputs":[{"name":"","type":"address","internalType":"address"}],"stateMutability":"view"},{"type":"function","name":"names","inputs":[],"outputs":[{"name":"","type":"address","internalType":"contract IRepoBoxNames"}],"stateMutability":"view"},{"type":"function","name":"resolve","inputs":[{"name":"name","type":"bytes","internalType":"bytes"},{"name":"data","type":"bytes","internalType":"bytes"}],"outputs":[{"name":"","type":"bytes","internalType":"bytes"}],"stateMutability":"view"},{"type":"function","name":"resolveWithProof","inputs":[{"name":"response","type":"bytes","internalType":"bytes"},{"name":"extraData","type":"bytes","internalType":"bytes"}],"outputs":[{"name":"","type":"bytes","internalType":"bytes"}],"stateMutability":"view"},{"type":"function","name":"signer","inputs":[],"outputs":[{"name":"","type":"address","internalType":"address"}],"stateMutability":"view"},{"type":"function","name":"supportsInterface","inputs":[{"name":"interfaceId","type":"bytes4","internalType":"bytes4"}],"outputs":[{"name":"","type":"bool","internalType":"bool"}],"stateMutability":"pure"},{"type":"error","name":"InvalidSignature","inputs":[]},{"type":"error","name":"OffchainLookup","inputs":[{"name":"sender","type":"address","internalType":"address"},{"name":"urls","type":"string[]","internalType":"string[]"},{"name":"callData","type":"bytes","internalType":"bytes"},{"name":"callbackFunction","type":"bytes4","internalType":"bytes4"},{"name":"extraData","type":"bytes","internalType":"bytes"}]}],"bytecode":{"object":"0x60c060405234801562000010575f80fd5b5060405162001058380380620010588339810160408190526200003391620001c2565b6001600160a01b03831660805260408051600180825281830190925290816020015b60608152602001906001900390816200005557505080516200007f915f91602090910190620000c2565b50815f8081548110620000965762000096620002b5565b905f5260205f20019081620000ac919062000353565b506001600160a01b031660a052506200041f9050565b828054828255905f5260205f209081019282156200010b579160200282015b828111156200010b5782518290620000fa908262000353565b5091602001919060010190620000e1565b50620001199291506200011d565b5090565b8082111562000119575f6200013382826200013d565b506001016200011d565b5080546200014b90620002c9565b5f825580601f106200015b575050565b601f0160209004905f5260205f20908101906200017991906200017c565b50565b5b8082111562000119575f81556001016200017d565b80516001600160a01b0381168114620001a9575f80fd5b919050565b634e487b7160e01b5f52604160045260245ffd5b5f805f60608486031215620001d5575f80fd5b620001e08462000192565b602085810151919450906001600160401b0380821115620001ff575f80fd5b818701915087601f83011262000213575f80fd5b815181811115620002285762000228620001ae565b604051601f8201601f19908116603f01168101908382118183101715620002535762000253620001ae565b816040528281528a868487010111156200026b575f80fd5b5f93505b828410156200028e57848401860151818501870152928501926200026f565b5f868483010152809750505050505050620002ac6040850162000192565b90509250925092565b634e487b7160e01b5f52603260045260245ffd5b600181811c90821680620002de57607f821691505b602082108103620002fd57634e487b7160e01b5f52602260045260245ffd5b50919050565b601f8211156200034e57805f5260205f20601f840160051c810160208510156200032a5750805b601f840160051c820191505b818110156200034b575f815560010162000336565b50505b505050565b81516001600160401b038111156200036f576200036f620001ae565b6200038781620003808454620002c9565b8462000303565b602080601f831160018114620003bd575f8415620003a55750858301515b5f19600386901b1c1916600185901b17855562000417565b5f85815260208120601f198616915b82811015620003ed57888601518255948401946001909101908401620003cc565b50858210156200040b57878501515f19600388901b60f8161c191681555b505060018460011b0185555b505050505050565b60805160a051610c04620004545f395f818160d001526104e301525f81816091015281816102b401526103450152610c045ff3fe608060405234801561000f575f80fd5b5060043610610060575f3560e01c806301ffc9a714610064578063056da0481461008c578063238ac933146100cb5780633b3b57de146100f25780639061b92314610105578063f4d4d2f814610125575b5f80fd5b6100776100723660046106da565b610138565b60405190151581526020015b60405180910390f35b6100b37f000000000000000000000000000000000000000000000000000000000000000081565b6040516001600160a01b039091168152602001610083565b6100b37f000000000000000000000000000000000000000000000000000000000000000081565b6100b3610100366004610708565b610189565b610118610113366004610764565b610284565b6040516100839190610818565b610118610133366004610764565b610436565b5f6001600160e01b03198216631d9dabef60e11b148061016857506001600160e01b03198216639061b92360e01b145b8061018357506001600160e01b031982166301ffc9a760e01b145b92915050565b5f80633b3b57de60e01b836040516024016101a691815260200190565b604051602081830303815290604052906001600160e01b0319166020820180516001600160e01b0383818316178352505050509050305f846040516020016101f091815260200190565b60408051601f198184030181529082905261020f91859060200161082a565b60408051601f198184030181528282526020830188905291631e9a9a5f60e31b910160408051601f198184030181529082905261025091879060200161082a565b60408051601f1981840301815290829052630556f18360e41b825261027b9594939291600401610857565b60405180910390fd5b60605f610291868661054b565b80516020820120604051636a23b97360e01b815260048101829052919250905f907f00000000000000000000000000000000000000000000000000000000000000006001600160a01b031690636a23b97390602401602060405180830381865afa158015610301573d5f803e3d5ffd5b505050506040513d601f19601f820116820180604052508101906103259190610999565b905080156103e757604051635cfbf47160e11b8152600481018290525f907f00000000000000000000000000000000000000000000000000000000000000006001600160a01b03169063b9f7e8e290602401602060405180830381865afa158015610392573d5f803e3d5ffd5b505050506040513d601f19601f820116820180604052508101906103b691906109b0565b604080516001600160a01b03831660208201529192500160405160208183030381529060405294505050505061042e565b305f8989898960405160200161040094939291906109fe565b60405160208183030381529060405263f4d4d2f860e01b8b8b8b8b60405160200161025094939291906109fe565b949350505050565b60605f8061044686880188610acc565b90925090505f8061045986880188610acc565b915091505f82828660405160200161047393929190610b2c565b6040516020818303038152906040528051906020012090505f816040516020016104c991907f19457468657265756d205369676e6564204d6573736167653a0a3332000000008152601c810191909152603c0190565b6040516020818303038152906040528051906020012090507f00000000000000000000000000000000000000000000000000000000000000006001600160a01b03166105158287610614565b6001600160a01b03161461053c57604051638baa579f60e01b815260040160405180910390fd5b50939998505050505050505050565b60605f829003610569575060408051602081019091525f8152610183565b5f83835f81811061057c5761057c610b6e565b919091013560f81c9150508015806105a057508261059b826001610b82565b60ff16115b156105ba57505060408051602081019091525f8152610183565b836001846105c88483610b82565b60ff16926105d893929190610ba7565b8080601f0160208091040260200160405190810160405280939291908181526020018383808284375f9201919091525092979650505050505050565b5f815160411461062557505f610183565b6020820151604083015160608401515f1a601b81101561064d5761064a601b82610b82565b90505b8060ff16601b1415801561066557508060ff16601c14155b15610675575f9350505050610183565b604080515f81526020810180835288905260ff831691810191909152606081018490526080810183905260019060a0016020604051602081039080840390855afa1580156106c5573d5f803e3d5ffd5b5050604051601f190151979650505050505050565b5f602082840312156106ea575f80fd5b81356001600160e01b031981168114610701575f80fd5b9392505050565b5f60208284031215610718575f80fd5b5035919050565b5f8083601f84011261072f575f80fd5b50813567ffffffffffffffff811115610746575f80fd5b60208301915083602082850101111561075d575f80fd5b9250929050565b5f805f8060408587031215610777575f80fd5b843567ffffffffffffffff8082111561078e575f80fd5b61079a8883890161071f565b909650945060208701359150808211156107b2575f80fd5b506107bf8782880161071f565b95989497509550505050565b5f5b838110156107e55781810151838201526020016107cd565b50505f910152565b5f81518084526108048160208601602086016107cb565b601f01601f19169290920160200192915050565b602081525f61070160208301846107ed565b604081525f61083c60408301856107ed565b828103602084015261084e81856107ed565b95945050505050565b5f60a0820160018060a01b0388168352602060a0602085015281885480845260c0860191506005935060c08160051b8701018a5f5260205f205f5b8381101561094b5788830360bf1901855281545f90600181811c90808316806108bc57607f831692505b8a831081036108d957634e487b7160e01b5f52602260045260245ffd5b828852602088018180156108f4576001811461090957610932565b60ff19861682528415158e1b82019650610932565b5f898152602090205f5b8681101561092c57815484820152908501908e01610913565b83019750505b5050509789019792955050509190910190600101610892565b5050868103604088015261095f818b6107ed565b94505050505061097b60608401866001600160e01b0319169052565b828103608084015261098d81856107ed565b98975050505050505050565b5f602082840312156109a9575f80fd5b5051919050565b5f602082840312156109c0575f80fd5b81516001600160a01b0381168114610701575f80fd5b81835281816020850137505f828201602090810191909152601f909101601f19169091010190565b604081525f610a116040830186886109d6565b8281036020840152610a248185876109d6565b979650505050505050565b634e487b7160e01b5f52604160045260245ffd5b5f82601f830112610a52575f80fd5b813567ffffffffffffffff80821115610a6d57610a6d610a2f565b604051601f8301601f19908116603f01168101908282118183101715610a9557610a95610a2f565b81604052838152866020858801011115610aad575f80fd5b836020870160208301375f602085830101528094505050505092915050565b5f8060408385031215610add575f80fd5b823567ffffffffffffffff80821115610af4575f80fd5b610b0086838701610a43565b93506020850135915080821115610b15575f80fd5b50610b2285828601610a43565b9150509250929050565b5f8451610b3d8184602089016107cb565b845190830190610b518183602089016107cb565b8451910190610b648183602088016107cb565b0195945050505050565b634e487b7160e01b5f52603260045260245ffd5b60ff818116838216019081111561018357634e487b7160e01b5f52601160045260245ffd5b5f8085851115610bb5575f80fd5b83861115610bc1575f80fd5b505082019391909203915056fea26469706673582212200269642d3f8bc94015364c86a9e6c9383cab013ebdfdb6e766b0b873252c2ce464736f6c63430008180033","linkReferences":{}},"methodIdentifiers":{"addr(bytes32)":"3b3b57de","names()":"056da048","resolve(bytes,bytes)":"9061b923","resolveWithProof(bytes,bytes)":"f4d4d2f8","signer()":"238ac933","supportsInterface(bytes4)":"01ffc9a7"},"id":3}