{"abi":[{"type":"constructor","inputs":[{"name":"_gatewayUrl","type":"string","internalType":"string"},{"name":"_signer","type":"address","internalType":"address"}],"stateMutability":"nonpayable"},{"type":"function","name":"addr","inputs":[{"name":"node","type":"bytes32","internalType":"bytes32"}],"outputs":[{"name":"","type":"address","internalType":"address"}],"stateMutability":"view"},{"type":"function","name":"resolve","inputs":[{"name":"name","type":"bytes","internalType":"bytes"},{"name":"data","type":"bytes","internalType":"bytes"}],"outputs":[{"name":"","type":"bytes","internalType":"bytes"}],"stateMutability":"view"},{"type":"function","name":"resolveWithProof","inputs":[{"name":"response","type":"bytes","internalType":"bytes"},{"name":"extraData","type":"bytes","internalType":"bytes"}],"outputs":[{"name":"","type":"bytes","internalType":"bytes"}],"stateMutability":"view"},{"type":"function","name":"signer","inputs":[],"outputs":[{"name":"","type":"address","internalType":"address"}],"stateMutability":"view"},{"type":"function","name":"supportsInterface","inputs":[{"name":"interfaceId","type":"bytes4","internalType":"bytes4"}],"outputs":[{"name":"","type":"bool","internalType":"bool"}],"stateMutability":"pure"},{"type":"event","name":"SignerUpdated","inputs":[{"name":"newSigner","type":"address","indexed":true,"internalType":"address"}],"anonymous":false},{"type":"error","name":"InvalidData","inputs":[]},{"type":"error","name":"InvalidSignature","inputs":[]},{"type":"error","name":"OffchainLookup","inputs":[{"name":"sender","type":"address","internalType":"address"},{"name":"urls","type":"string[]","internalType":"string[]"},{"name":"callData","type":"bytes","internalType":"bytes"},{"name":"callbackFunction","type":"bytes4","internalType":"bytes4"},{"name":"extraData","type":"bytes","internalType":"bytes"}]}],"bytecode":{"object":"0x60a060405234801562000010575f80fd5b5060405162000dcc38038062000dcc8339810160408190526200003391620001b3565b60408051600180825281830190925290816020015b606081526020019060019003908162000048575050805162000072915f91602090910190620000b3565b50815f808154811062000089576200008962000294565b905f5260205f200190816200009f919062000332565b506001600160a01b031660805250620003fe565b828054828255905f5260205f20908101928215620000fc579160200282015b82811115620000fc5782518290620000eb908262000332565b5091602001919060010190620000d2565b506200010a9291506200010e565b5090565b808211156200010a575f6200012482826200012e565b506001016200010e565b5080546200013c90620002a8565b5f825580601f106200014c575050565b601f0160209004905f5260205f20908101906200016a91906200016d565b50565b5b808211156200010a575f81556001016200016e565b634e487b7160e01b5f52604160045260245ffd5b80516001600160a01b0381168114620001ae575f80fd5b919050565b5f8060408385031215620001c5575f80fd5b82516001600160401b0380821115620001dc575f80fd5b818501915085601f830112620001f0575f80fd5b81518181111562000205576200020562000183565b604051601f8201601f19908116603f0116810190838211818310171562000230576200023062000183565b816040528281526020935088848487010111156200024c575f80fd5b5f91505b828210156200026f578482018401518183018501529083019062000250565b5f8484830101528096505050506200028981860162000197565b925050509250929050565b634e487b7160e01b5f52603260045260245ffd5b600181811c90821680620002bd57607f821691505b602082108103620002dc57634e487b7160e01b5f52602260045260245ffd5b50919050565b601f8211156200032d57805f5260205f20601f840160051c81016020851015620003095750805b601f840160051c820191505b818110156200032a575f815560010162000315565b50505b505050565b81516001600160401b038111156200034e576200034e62000183565b62000366816200035f8454620002a8565b84620002e2565b602080601f8311600181146200039c575f8415620003845750858301515b5f19600386901b1c1916600185901b178555620003f6565b5f85815260208120601f198616915b82811015620003cc57888601518255948401946001909101908401620003ab565b5085821015620003ea57878501515f19600388901b60f8161c191681555b505060018460011b0185555b505050505050565b6080516109af6200041d5f395f8181608601526103b701526109af5ff3fe608060405234801561000f575f80fd5b5060043610610055575f3560e01c806301ffc9a714610059578063238ac933146100815780633b3b57de146100c05780639061b923146100d3578063f4d4d2f8146100f3575b5f80fd5b61006c6100673660046104fd565b610106565b60405190151581526020015b60405180910390f35b6100a87f000000000000000000000000000000000000000000000000000000000000000081565b6040516001600160a01b039091168152602001610078565b6100a86100ce36600461052b565b610157565b6100e66100e1366004610587565b610289565b604051610078919061063b565b6100e6610101366004610587565b6102fd565b5f6001600160e01b03198216631d9dabef60e11b148061013657506001600160e01b03198216639061b92360e01b145b8061015157506001600160e01b031982166301ffc9a760e01b145b92915050565b5f80633b3b57de60e01b8360405160240161017491815260200190565b60408051601f19818403018152918152602080830180516001600160e01b03166001600160e01b0319909516949094179093525190925030915f91639061b92360e01b916101c89188910190815260200190565b60408051601f19818403018152908290526101e791869060240161064d565b60408051601f19818403018152918152602080830180516001600160e01b03166001600160e01b031990951694909417909352519091631e9a9a5f60e31b916102369189910190815260200190565b60408051601f198184030181529082905261025591879060200161064d565b60408051601f1981840301815290829052630556f18360e41b8252610280959493929160040161067a565b60405180910390fd5b6060305f639061b92360e01b878787876040516024016102ac94939291906107e4565b60408051601f19818403018152918152602080830180516001600160e01b03166001600160e01b031990951694909417909352519091631e9a9a5f60e31b91610255918b918b918b918b91016107e4565b60605f8061030d868801886108b2565b90925090505f80610320868801886108b2565b915091505f82828660405160200161033a93929190610912565b6040516020818303038152906040528051906020012090505f8160405160200161039091907f19457468657265756d205369676e6564204d6573736167653a0a3332000000008152601c810191909152603c0190565b6040516020818303038152906040528051906020012090505f6103b38287610417565b90507f00000000000000000000000000000000000000000000000000000000000000006001600160a01b0316816001600160a01b03161461040757604051638baa579f60e01b815260040160405180910390fd5b50949a9950505050505050505050565b5f815160411461043a57604051638baa579f60e01b815260040160405180910390fd5b6020820151604083015160608401515f1a601b8110156104625761045f601b82610954565b90505b8060ff16601b1415801561047a57508060ff16601c14155b1561049857604051638baa579f60e01b815260040160405180910390fd5b604080515f81526020810180835288905260ff831691810191909152606081018490526080810183905260019060a0016020604051602081039080840390855afa1580156104e8573d5f803e3d5ffd5b5050604051601f190151979650505050505050565b5f6020828403121561050d575f80fd5b81356001600160e01b031981168114610524575f80fd5b9392505050565b5f6020828403121561053b575f80fd5b5035919050565b5f8083601f840112610552575f80fd5b50813567ffffffffffffffff811115610569575f80fd5b602083019150836020828501011115610580575f80fd5b9250929050565b5f805f806040858703121561059a575f80fd5b843567ffffffffffffffff808211156105b1575f80fd5b6105bd88838901610542565b909650945060208701359150808211156105d5575f80fd5b506105e287828801610542565b95989497509550505050565b5f5b838110156106085781810151838201526020016105f0565b50505f910152565b5f81518084526106278160208601602086016105ee565b601f01601f19169290920160200192915050565b602081525f6105246020830184610610565b604081525f61065f6040830185610610565b82810360208401526106718185610610565b95945050505050565b5f60a0820160018060a01b0388168352602060a0602085015281885480845260c0860191506005935060c08160051b8701018a5f5260205f205f5b8381101561076e5788830360bf1901855281545f90600181811c90808316806106df57607f831692505b8a831081036106fc57634e487b7160e01b5f52602260045260245ffd5b82885260208801818015610717576001811461072c57610755565b60ff19861682528415158e1b82019650610755565b5f898152602090205f5b8681101561074f57815484820152908501908e01610736565b83019750505b50505097890197929550505091909101906001016106b5565b50508681036040880152610782818b610610565b94505050505061079e60608401866001600160e01b0319169052565b82810360808401526107b08185610610565b98975050505050505050565b81835281816020850137505f828201602090810191909152601f909101601f19169091010190565b604081525f6107f76040830186886107bc565b828103602084015261080a8185876107bc565b979650505050505050565b634e487b7160e01b5f52604160045260245ffd5b5f82601f830112610838575f80fd5b813567ffffffffffffffff8082111561085357610853610815565b604051601f8301601f19908116603f0116810190828211818310171561087b5761087b610815565b81604052838152866020858801011115610893575f80fd5b836020870160208301375f602085830101528094505050505092915050565b5f80604083850312156108c3575f80fd5b823567ffffffffffffffff808211156108da575f80fd5b6108e686838701610829565b935060208501359150808211156108fb575f80fd5b5061090885828601610829565b9150509250929050565b5f84516109238184602089016105ee565b8451908301906109378183602089016105ee565b845191019061094a8183602088016105ee565b0195945050505050565b60ff818116838216019081111561015157634e487b7160e01b5f52601160045260245ffdfea2646970667358221220c7d00f5ea566d5d42abb60983bdbb4624e82969636fd3e7702f2a523220f734864736f6c63430008180033","linkReferences":{}},"methodIdentifiers":{"addr(bytes32)":"3b3b57de","resolve(bytes,bytes)":"9061b923","resolveWithProof(bytes,bytes)":"f4d4d2f8","signer()":"238ac933","supportsInterface(bytes4)":"01ffc9a7"},"id":2}