{"abi":[{"type":"constructor","inputs":[{"name":"_token","type":"address","internalType":"address"},{"name":"_trustedMerger","type":"address","internalType":"address"}],"stateMutability":"nonpayable"},{"type":"function","name":"claim","inputs":[{"name":"commitHash","type":"bytes32","internalType":"bytes32"},{"name":"units","type":"uint128","internalType":"uint128"},{"name":"nonce","type":"uint256","internalType":"uint256"},{"name":"signature","type":"bytes","internalType":"bytes"}],"outputs":[],"stateMutability":"nonpayable"},{"type":"function","name":"claimed","inputs":[{"name":"","type":"bytes32","internalType":"bytes32"}],"outputs":[{"name":"","type":"bool","internalType":"bool"}],"stateMutability":"view"},{"type":"function","name":"pool","inputs":[],"outputs":[{"name":"","type":"address","internalType":"address"}],"stateMutability":"view"},{"type":"function","name":"token","inputs":[],"outputs":[{"name":"","type":"address","internalType":"address"}],"stateMutability":"view"},{"type":"function","name":"totalMembers","inputs":[],"outputs":[{"name":"","type":"uint128","internalType":"uint128"}],"stateMutability":"view"},{"type":"function","name":"trustedMerger","inputs":[],"outputs":[{"name":"","type":"address","internalType":"address"}],"stateMutability":"view"},{"type":"event","name":"Claimed","inputs":[{"name":"contributor","type":"address","indexed":true,"internalType":"address"},{"name":"commitHash","type":"bytes32","indexed":false,"internalType":"bytes32"},{"name":"units","type":"uint128","indexed":false,"internalType":"uint128"}],"anonymous":false}],"bytecode":{"object":"0x60e06040523480156200001157600080fd5b506040516200173b3803806200173b8339818101604052810190620000379190620001fd565b8073ffffffffffffffffffffffffffffffffffffffff1660808173ffffffffffffffffffffffffffffffffffffffff16815250508173ffffffffffffffffffffffffffffffffffffffff1660c08173ffffffffffffffffffffffffffffffffffffffff16815250506000736da13bde224a05a288748d857b9e7ddeffd1de0873ffffffffffffffffffffffffffffffffffffffff16630779d36584306040518060400160405280600015158152602001600115158152506040518463ffffffff1660e01b81526004016200010e93929190620002a5565b60408051808303816000875af11580156200012d573d6000803e3d6000fd5b505050506040513d601f19601f8201168201806040525081019062000153919062000313565b9150508073ffffffffffffffffffffffffffffffffffffffff1660a08173ffffffffffffffffffffffffffffffffffffffff16815250505050506200035a565b600080fd5b600073ffffffffffffffffffffffffffffffffffffffff82169050919050565b6000620001c58262000198565b9050919050565b620001d781620001b8565b8114620001e357600080fd5b50565b600081519050620001f781620001cc565b92915050565b6000806040838503121562000217576200021662000193565b5b60006200022785828601620001e6565b92505060206200023a85828601620001e6565b9150509250929050565b6200024f81620001b8565b82525050565b60008115159050919050565b6200026c8162000255565b82525050565b6040820160008201516200028a600085018262000261565b5060208201516200029f602085018262000261565b50505050565b6000608082019050620002bc600083018662000244565b620002cb602083018562000244565b620002da604083018462000272565b949350505050565b620002ed8162000255565b8114620002f957600080fd5b50565b6000815190506200030d81620002e2565b92915050565b600080604083850312156200032d576200032c62000193565b5b60006200033d85828601620002fc565b92505060206200035085828601620001e6565b9150509250929050565b60805160a05160c05161139c6200039f600039600061077201526000818161040e015281816104d801526106e8015260008181610272015261070c015261139c6000f3fe608060405234801561001057600080fd5b50600436106100625760003560e01c80631476b8631461006757806316f0115b14610083578063598bc289146100a157806376e92559146100bf578063cc3c0f06146100dd578063fc0c546a1461010d575b600080fd5b610081600480360381019061007c9190610978565b61012b565b005b61008b6106e6565b6040516100989190610a41565b60405180910390f35b6100a961070a565b6040516100b69190610a41565b60405180910390f35b6100c761072e565b6040516100d49190610a6b565b60405180910390f35b6100f760048036038101906100f29190610a86565b610750565b6040516101049190610ace565b60405180910390f35b610115610770565b6040516101229190610a41565b60405180910390f35b6000846fffffffffffffffffffffffffffffffff161180156101605750600a846fffffffffffffffffffffffffffffffff1611155b61019f576040517f08c379a000000000000000000000000000000000000000000000000000000000815260040161019690610b46565b60405180910390fd5b6000338686866040516020016101b89493929190610c26565b60405160208183030381529060405280519060200120905060008082815260200190815260200160002060009054906101000a900460ff1615610230576040517f08c379a000000000000000000000000000000000000000000000000000000000815260040161022790610cc0565b60405180910390fd5b600080600061023f8686610794565b9250925092506000846040516020016102589190610d37565b6040516020818303038152906040528051906020012090507f000000000000000000000000000000000000000000000000000000000000000073ffffffffffffffffffffffffffffffffffffffff16600182848787604051600081526020016040526040516102ca9493929190610d88565b6020604051602081039080840390855afa1580156102ec573d6000803e3d6000fd5b5050506020604051035173ffffffffffffffffffffffffffffffffffffffff161461034c576040517f08c379a000000000000000000000000000000000000000000000000000000000815260040161034390610e19565b60405180910390fd5b600160008087815260200190815260200160002060006101000a81548160ff0219169083151502179055506001600081819054906101000a90046fffffffffffffffffffffffffffffffff16809291906103a590610e68565b91906101000a8154816fffffffffffffffffffffffffffffffff02191690836fffffffffffffffffffffffffffffffff16021790555050736da13bde224a05a288748d857b9e7ddeffd1de0873ffffffffffffffffffffffffffffffffffffffff1663398c74e17f0000000000000000000000000000000000000000000000000000000000000000338c6040518463ffffffff1660e01b815260040161044d93929190610ed7565b6020604051808303816000875af115801561046c573d6000803e3d6000fd5b505050506040513d601f19601f820116820180604052508101906104909190610f4d565b50734c073b3bab6d8826b8c5b229f3cfdc1ec6e47e7473ffffffffffffffffffffffffffffffffffffffff166339255d5b73fe6c87be05fedb2059d2ec41ba0a09826c9fd7aa7f000000000000000000000000000000000000000000000000000000000000000033600067ffffffffffffffff81111561051357610512610f7a565b5b6040519080825280601f01601f1916602001820160405280156105455781602001600182028036833780820191505090505b5060405160240161055893929190611028565b6040516020818303038152906040527f2040fd39000000000000000000000000000000000000000000000000000000007bffffffffffffffffffffffffffffffffffffffffffffffffffffffff19166020820180517bffffffffffffffffffffffffffffffffffffffffffffffffffffffff8381831617835250505050600067ffffffffffffffff8111156105f0576105ef610f7a565b5b6040519080825280601f01601f1916602001820160405280156106225781602001600182028036833780820191505090505b506040518463ffffffff1660e01b815260040161064193929190611066565b6000604051808303816000875af1158015610660573d6000803e3d6000fd5b505050506040513d6000823e3d601f19601f82011682018060405250810190610689919061119d565b503373ffffffffffffffffffffffffffffffffffffffff167f1dffef216c16a10aaa2988e3f5da954e5a0c03ab06d348c76f35982910f8f1498b8b6040516106d29291906111e6565b60405180910390a250505050505050505050565b7f000000000000000000000000000000000000000000000000000000000000000081565b7f000000000000000000000000000000000000000000000000000000000000000081565b600160009054906101000a90046fffffffffffffffffffffffffffffffff1681565b60006020528060005260406000206000915054906101000a900460ff1681565b7f000000000000000000000000000000000000000000000000000000000000000081565b6000806000604185859050146107df576040517f08c379a00000000000000000000000000000000000000000000000000000000081526004016107d69061125b565b60405180910390fd5b84846000906020926107f393929190611285565b906107fe91906112d8565b9250848460209060409261081493929190611285565b9061081f91906112d8565b91508484604081811061083557610834611337565b5b9050013560f81c60f81b60f81c90509250925092565b6000604051905090565b600080fd5b600080fd5b6000819050919050565b6108728161085f565b811461087d57600080fd5b50565b60008135905061088f81610869565b92915050565b60006fffffffffffffffffffffffffffffffff82169050919050565b6108ba81610895565b81146108c557600080fd5b50565b6000813590506108d7816108b1565b92915050565b6000819050919050565b6108f0816108dd565b81146108fb57600080fd5b50565b60008135905061090d816108e7565b92915050565b600080fd5b600080fd5b600080fd5b60008083601f84011261093857610937610913565b5b8235905067ffffffffffffffff81111561095557610954610918565b5b6020830191508360018202830111156109715761097061091d565b5b9250929050565b60008060008060006080868803121561099457610993610855565b5b60006109a288828901610880565b95505060206109b3888289016108c8565b94505060406109c4888289016108fe565b935050606086013567ffffffffffffffff8111156109e5576109e461085a565b5b6109f188828901610922565b92509250509295509295909350565b600073ffffffffffffffffffffffffffffffffffffffff82169050919050565b6000610a2b82610a00565b9050919050565b610a3b81610a20565b82525050565b6000602082019050610a566000830184610a32565b92915050565b610a6581610895565b82525050565b6000602082019050610a806000830184610a5c565b92915050565b600060208284031215610a9c57610a9b610855565b5b6000610aaa84828501610880565b91505092915050565b60008115159050919050565b610ac881610ab3565b82525050565b6000602082019050610ae36000830184610abf565b92915050565b600082825260208201905092915050565b7f756e69747320312d313000000000000000000000000000000000000000000000600082015250565b6000610b30600a83610ae9565b9150610b3b82610afa565b602082019050919050565b60006020820190508181036000830152610b5f81610b23565b9050919050565b60008160601b9050919050565b6000610b7e82610b66565b9050919050565b6000610b9082610b73565b9050919050565b610ba8610ba382610a20565b610b85565b82525050565b6000819050919050565b610bc9610bc48261085f565b610bae565b82525050565b60008160801b9050919050565b6000610be782610bcf565b9050919050565b610bff610bfa82610895565b610bdc565b82525050565b6000819050919050565b610c20610c1b826108dd565b610c05565b82525050565b6000610c328287610b97565b601482019150610c428286610bb8565b602082019150610c528285610bee565b601082019150610c628284610c0f565b60208201915081905095945050505050565b7f616c726561647920636c61696d65640000000000000000000000000000000000600082015250565b6000610caa600f83610ae9565b9150610cb582610c74565b602082019050919050565b60006020820190508181036000830152610cd981610c9d565b9050919050565b600081905092915050565b7f19457468657265756d205369676e6564204d6573736167653a0a333200000000600082015250565b6000610d21601c83610ce0565b9150610d2c82610ceb565b601c82019050919050565b6000610d4282610d14565b9150610d4e8284610bb8565b60208201915081905092915050565b610d668161085f565b82525050565b600060ff82169050919050565b610d8281610d6c565b82525050565b6000608082019050610d9d6000830187610d5d565b610daa6020830186610d79565b610db76040830185610d5d565b610dc46060830184610d5d565b95945050505050565b7f6261642073696700000000000000000000000000000000000000000000000000600082015250565b6000610e03600783610ae9565b9150610e0e82610dcd565b602082019050919050565b60006020820190508181036000830152610e3281610df6565b9050919050565b7f4e487b7100000000000000000000000000000000000000000000000000000000600052601160045260246000fd5b6000610e7382610895565b91506fffffffffffffffffffffffffffffffff8203610e9557610e94610e39565b5b600182019050919050565b600082825260208201905092915050565b50565b6000610ec1600083610ea0565b9150610ecc82610eb1565b600082019050919050565b6000608082019050610eec6000830186610a32565b610ef96020830185610a32565b610f066040830184610a5c565b8181036060830152610f1781610eb4565b9050949350505050565b610f2a81610ab3565b8114610f3557600080fd5b50565b600081519050610f4781610f21565b92915050565b600060208284031215610f6357610f62610855565b5b6000610f7184828501610f38565b91505092915050565b7f4e487b7100000000000000000000000000000000000000000000000000000000600052604160045260246000fd5b600081519050919050565b60005b83811015610fd2578082015181840152602081019050610fb7565b60008484015250505050565b6000601f19601f8301169050919050565b6000610ffa82610fa9565b6110048185610ea0565b9350611014818560208601610fb4565b61101d81610fde565b840191505092915050565b600060608201905061103d6000830186610a32565b61104a6020830185610a32565b818103604083015261105c8184610fef565b9050949350505050565b600060608201905061107b6000830186610a32565b818103602083015261108d8185610fef565b905081810360408301526110a18184610fef565b9050949350505050565b600080fd5b6110b982610fde565b810181811067ffffffffffffffff821117156110d8576110d7610f7a565b5b80604052505050565b60006110eb61084b565b90506110f782826110b0565b919050565b600067ffffffffffffffff82111561111757611116610f7a565b5b61112082610fde565b9050602081019050919050565b600061114061113b846110fc565b6110e1565b90508281526020810184848401111561115c5761115b6110ab565b5b611167848285610fb4565b509392505050565b600082601f83011261118457611183610913565b5b815161119484826020860161112d565b91505092915050565b6000602082840312156111b3576111b2610855565b5b600082015167ffffffffffffffff8111156111d1576111d061085a565b5b6111dd8482850161116f565b91505092915050565b60006040820190506111fb6000830185610d5d565b6112086020830184610a5c565b9392505050565b7f62616420736967206c656e000000000000000000000000000000000000000000600082015250565b6000611245600b83610ae9565b91506112508261120f565b602082019050919050565b6000602082019050818103600083015261127481611238565b9050919050565b600080fd5b600080fd5b600080858511156112995761129861127b565b5b838611156112aa576112a9611280565b5b6001850283019150848603905094509492505050565b600082905092915050565b600082821b905092915050565b60006112e483836112c0565b826112ef813561085f565b9250602082101561132f5761132a7fffffffffffffffffffffffffffffffffffffffffffffffffffffffffffffffff836020036008026112cb565b831692505b505092915050565b7f4e487b7100000000000000000000000000000000000000000000000000000000600052603260045260246000fdfea2646970667358221220b953ee49c8746b60d2d3af443d1ef6aeb533d5b07354701d853af8bb33d67ddb64736f6c63430008130033","linkReferences":{}},"methodIdentifiers":{"claim(bytes32,uint128,uint256,bytes)":"1476b863","claimed(bytes32)":"cc3c0f06","pool()":"16f0115b","token()":"fc0c546a","totalMembers()":"76e92559","trustedMerger()":"598bc289"},"id":0}