{"abi":[{"type":"constructor","inputs":[{"name":"_token","type":"address","internalType":"address"},{"name":"_trustedMerger","type":"address","internalType":"address"}],"stateMutability":"nonpayable"},{"type":"function","name":"claim","inputs":[{"name":"commitHash","type":"bytes32","internalType":"bytes32"},{"name":"units","type":"uint128","internalType":"uint128"},{"name":"nonce","type":"uint256","internalType":"uint256"},{"name":"signature","type":"bytes","internalType":"bytes"}],"outputs":[],"stateMutability":"nonpayable"},{"type":"function","name":"claimed","inputs":[{"name":"","type":"bytes32","internalType":"bytes32"}],"outputs":[{"name":"","type":"bool","internalType":"bool"}],"stateMutability":"view"},{"type":"function","name":"pool","inputs":[],"outputs":[{"name":"","type":"address","internalType":"address"}],"stateMutability":"view"},{"type":"function","name":"token","inputs":[],"outputs":[{"name":"","type":"address","internalType":"address"}],"stateMutability":"view"},{"type":"function","name":"totalMembers","inputs":[],"outputs":[{"name":"","type":"uint128","internalType":"uint128"}],"stateMutability":"view"},{"type":"function","name":"trustedMerger","inputs":[],"outputs":[{"name":"","type":"address","internalType":"address"}],"stateMutability":"view"},{"type":"event","name":"Claimed","inputs":[{"name":"contributor","type":"address","indexed":true,"internalType":"address"},{"name":"commitHash","type":"bytes32","indexed":false,"internalType":"bytes32"},{"name":"units","type":"uint128","indexed":false,"internalType":"uint128"}],"anonymous":false}],"bytecode":{"object":"0x60e060405234801561000f575f80fd5b50604051610b4d380380610b4d83398101604081905261002e91610115565b6001600160a01b03818116608052821660c08190526040805180820182525f8082526001602083019081529251630779d36560e01b8152600481019490945230602485015290511515604484015290511515606483015290736da13bde224a05a288748d857b9e7ddeffd1de0890630779d3659060840160408051808303815f875af11580156100c0573d5f803e3d5ffd5b505050506040513d601f19601f820116820180604052508101906100e49190610146565b6001600160a01b031660a0525061016692505050565b80516001600160a01b0381168114610110575f80fd5b919050565b5f8060408385031215610126575f80fd5b61012f836100fa565b915061013d602084016100fa565b90509250929050565b5f8060408385031215610157575f80fd5b8251801515811461012f575f80fd5b60805160a05160c0516109aa6101a35f395f61014601525f8181607e0152818161040601526104ed01525f818160c2015261030e01526109aa5ff3fe608060405234801561000f575f80fd5b5060043610610060575f3560e01c80631476b8631461006457806316f0115b14610079578063598bc289146100bd57806376e92559146100e4578063cc3c0f061461010f578063fc0c546a14610141575b5f80fd5b610077610072366004610698565b610168565b005b6100a07f000000000000000000000000000000000000000000000000000000000000000081565b6040516001600160a01b0390911681526020015b60405180910390f35b6100a07f000000000000000000000000000000000000000000000000000000000000000081565b6001546100f7906001600160801b031681565b6040516001600160801b0390911681526020016100b4565b61013161011d366004610731565b5f6020819052908152604090205460ff1681565b60405190151581526020016100b4565b6100a07f000000000000000000000000000000000000000000000000000000000000000081565b5f846001600160801b031611801561018a5750600a846001600160801b031611155b6101c85760405162461bcd60e51b815260206004820152600a6024820152690756e69747320312d31360b41b60448201526064015b60405180910390fd5b6040516bffffffffffffffffffffffff193360601b166020820152603481018690526fffffffffffffffffffffffffffffffff19608086901b166054820152606481018490525f9060840160408051601f1981840301815291815281516020928301205f8181529283905291205490915060ff161561027b5760405162461bcd60e51b815260206004820152600f60248201526e185b1c9958591e4818db185a5b5959608a1b60448201526064016101bf565b5f805f6102888686610600565b6040517f19457468657265756d205369676e6564204d6573736167653a0a3332000000006020820152603c810188905292955090935091505f90605c0160408051601f1981840301815282825280516020918201205f845290830180835281905260ff851691830191909152606082018690526080820185905291506001600160a01b037f0000000000000000000000000000000000000000000000000000000000000000169060019060a0016020604051602081039080840390855afa158015610355573d5f803e3d5ffd5b505050602060405103516001600160a01b03161461039f5760405162461bcd60e51b81526020600482015260076024820152666261642073696760c81b60448201526064016101bf565b5f858152602081905260408120805460ff1916600190811790915580546001600160801b0316916103cf83610748565b82546101009290920a6001600160801b0381810219909316918316021790915560405163398c74e160e01b81526001600160a01b037f0000000000000000000000000000000000000000000000000000000000000000166004820152336024820152908b166044820152608060648201525f6084820152736da13bde224a05a288748d857b9e7ddeffd1de08915063398c74e19060a4016020604051808303815f875af1158015610482573d5f803e3d5ffd5b505050506040513d601f19601f820116820180604052508101906104a69190610779565b50604080515f815260208101909152734c073b3bab6d8826b8c5b229f3cfdc1ec6e47e74906339255d5b9073fe6c87be05fedb2059d2ec41ba0a09826c9fd7aa90610518907f000000000000000000000000000000000000000000000000000000000000000090339060448101610800565b60408051601f19818403018152918152602080830180516001600160e01b0316632040fd3960e01b17905281515f808252918101909252506040518463ffffffff1660e01b815260040161056e93929190610834565b5f604051808303815f875af1158015610589573d5f803e3d5ffd5b505050506040513d5f823e601f3d908101601f191682016040526105b09190810190610873565b50604080518b81526001600160801b038b16602082015233917f1dffef216c16a10aaa2988e3f5da954e5a0c03ab06d348c76f35982910f8f149910160405180910390a250505050505050505050565b5f8080604184146106415760405162461bcd60e51b815260206004820152600b60248201526a3130b21039b4b3903632b760a91b60448201526064016101bf565b61064e60205f868861091b565b61065791610942565b925061066760406020868861091b565b61067091610942565b91508484604081811061068557610685610960565b9497939650509092013560f81c92509050565b5f805f805f608086880312156106ac575f80fd5b8535945060208601356001600160801b03811681146106c9575f80fd5b935060408601359250606086013567ffffffffffffffff808211156106ec575f80fd5b818801915088601f8301126106ff575f80fd5b81358181111561070d575f80fd5b89602082850101111561071e575f80fd5b9699959850939650602001949392505050565b5f60208284031215610741575f80fd5b5035919050565b5f6001600160801b0380831681810361076f57634e487b7160e01b5f52601160045260245ffd5b6001019392505050565b5f60208284031215610789575f80fd5b81518015158114610798575f80fd5b9392505050565b634e487b7160e01b5f52604160045260245ffd5b5f5b838110156107cd5781810151838201526020016107b5565b50505f910152565b5f81518084526107ec8160208601602086016107b3565b601f01601f19169290920160200192915050565b6001600160a01b038481168252831660208201526060604082018190525f9061082b908301846107d5565b95945050505050565b6001600160a01b03841681526060602082018190525f90610857908301856107d5565b828103604084015261086981856107d5565b9695505050505050565b5f60208284031215610883575f80fd5b815167ffffffffffffffff8082111561089a575f80fd5b818401915084601f8301126108ad575f80fd5b8151818111156108bf576108bf61079f565b604051601f8201601f19908116603f011681019083821181831017156108e7576108e761079f565b816040528281528760208487010111156108ff575f80fd5b6109108360208301602088016107b3565b979650505050505050565b5f8085851115610929575f80fd5b83861115610935575f80fd5b5050820193919092039150565b8035602083101561095a575f19602084900360031b1b165b92915050565b634e487b7160e01b5f52603260045260245ffdfea2646970667358221220430d44ef517fcc3aba5dcb0fe7f1c395ed3f45fa391cc5526a1aa95001d2c7fc64736f6c63430008180033","linkReferences":{}},"methodIdentifiers":{"claim(bytes32,uint128,uint256,bytes)":"1476b863","claimed(bytes32)":"cc3c0f06","pool()":"16f0115b","token()":"fc0c546a","totalMembers()":"76e92559","trustedMerger()":"598bc289"},"id":1}