{"abi":[{"type":"constructor","inputs":[{"name":"configFilePath","type":"string","internalType":"string"},{"name":"writeToFile","type":"bool","internalType":"bool"}],"stateMutability":"nonpayable"},{"type":"function","name":"exists","inputs":[{"name":"key","type":"string","internalType":"string"}],"outputs":[{"name":"","type":"bool","internalType":"bool"}],"stateMutability":"view"},{"type":"function","name":"exists","inputs":[{"name":"chain_id","type":"uint256","internalType":"uint256"},{"name":"key","type":"string","internalType":"string"}],"outputs":[{"name":"","type":"bool","internalType":"bool"}],"stateMutability":"view"},{"type":"function","name":"get","inputs":[{"name":"key","type":"string","internalType":"string"}],"outputs":[{"name":"","type":"tuple","internalType":"struct Variable","components":[{"name":"ty","type":"tuple","internalType":"struct Type","components":[{"name":"kind","type":"uint8","internalType":"enum TypeKind"},{"name":"isArray","type":"bool","internalType":"bool"}]},{"name":"data","type":"bytes","internalType":"bytes"}]}],"stateMutability":"view"},{"type":"function","name":"get","inputs":[{"name":"chain_id","type":"uint256","internalType":"uint256"},{"name":"key","type":"string","internalType":"string"}],"outputs":[{"name":"","type":"tuple","internalType":"struct Variable","components":[{"name":"ty","type":"tuple","internalType":"struct Type","components":[{"name":"kind","type":"uint8","internalType":"enum TypeKind"},{"name":"isArray","type":"bool","internalType":"bool"}]},{"name":"data","type":"bytes","internalType":"bytes"}]}],"stateMutability":"view"},{"type":"function","name":"getChainIds","inputs":[],"outputs":[{"name":"","type":"uint256[]","internalType":"uint256[]"}],"stateMutability":"view"},{"type":"function","name":"getRpcUrl","inputs":[],"outputs":[{"name":"","type":"string","internalType":"string"}],"stateMutability":"view"},{"type":"function","name":"getRpcUrl","inputs":[{"name":"chainId","type":"uint256","internalType":"uint256"}],"outputs":[{"name":"","type":"string","internalType":"string"}],"stateMutability":"view"},{"type":"function","name":"resolveChainId","inputs":[{"name":"aliasOrId","type":"string","internalType":"string"}],"outputs":[{"name":"","type":"uint256","internalType":"uint256"}],"stateMutability":"view"},{"type":"function","name":"set","inputs":[{"name":"chainId","type":"uint256","internalType":"uint256"},{"name":"key","type":"string","internalType":"string"},{"name":"value","type":"int256","internalType":"int256"}],"outputs":[],"stateMutability":"nonpayable"},{"type":"function","name":"set","inputs":[{"name":"chainId","type":"uint256","internalType":"uint256"},{"name":"key","type":"string","internalType":"string"},{"name":"value","type":"bytes32[]","internalType":"bytes32[]"}],"outputs":[],"stateMutability":"nonpayable"},{"type":"function","name":"set","inputs":[{"name":"chainId","type":"uint256","internalType":"uint256"},{"name":"key","type":"string","internalType":"string"},{"name":"value","type":"uint256","internalType":"uint256"}],"outputs":[],"stateMutability":"nonpayable"},{"type":"function","name":"set","inputs":[{"name":"key","type":"string","internalType":"string"},{"name":"value","type":"bytes","internalType":"bytes"}],"outputs":[],"stateMutability":"nonpayable"},{"type":"function","name":"set","inputs":[{"name":"key","type":"string","internalType":"string"},{"name":"value","type":"bytes32","internalType":"bytes32"}],"outputs":[],"stateMutability":"nonpayable"},{"type":"function","name":"set","inputs":[{"name":"key","type":"string","internalType":"string"},{"name":"value","type":"int256","internalType":"int256"}],"outputs":[],"stateMutability":"nonpayable"},{"type":"function","name":"set","inputs":[{"name":"chainId","type":"uint256","internalType":"uint256"},{"name":"key","type":"string","internalType":"string"},{"name":"value","type":"bytes","internalType":"bytes"}],"outputs":[],"stateMutability":"nonpayable"},{"type":"function","name":"set","inputs":[{"name":"key","type":"string","internalType":"string"},{"name":"value","type":"string[]","internalType":"string[]"}],"outputs":[],"stateMutability":"nonpayable"},{"type":"function","name":"set","inputs":[{"name":"chainId","type":"uint256","internalType":"uint256"},{"name":"key","type":"string","internalType":"string"},{"name":"value","type":"address","internalType":"address"}],"outputs":[],"stateMutability":"nonpayable"},{"type":"function","name":"set","inputs":[{"name":"chainId","type":"uint256","internalType":"uint256"},{"name":"key","type":"string","internalType":"string"},{"name":"value","type":"address[]","internalType":"address[]"}],"outputs":[],"stateMutability":"nonpayable"},{"type":"function","name":"set","inputs":[{"name":"chainId","type":"uint256","internalType":"uint256"},{"name":"key","type":"string","internalType":"string"},{"name":"value","type":"string","internalType":"string"}],"outputs":[],"stateMutability":"nonpayable"},{"type":"function","name":"set","inputs":[{"name":"key","type":"string","internalType":"string"},{"name":"value","type":"uint256[]","internalType":"uint256[]"}],"outputs":[],"stateMutability":"nonpayable"},{"type":"function","name":"set","inputs":[{"name":"key","type":"string","internalType":"string"},{"name":"value","type":"address[]","internalType":"address[]"}],"outputs":[],"stateMutability":"nonpayable"},{"type":"function","name":"set","inputs":[{"name":"key","type":"string","internalType":"string"},{"name":"value","type":"uint256","internalType":"uint256"}],"outputs":[],"stateMutability":"nonpayable"},{"type":"function","name":"set","inputs":[{"name":"chainId","type":"uint256","internalType":"uint256"},{"name":"key","type":"string","internalType":"string"},{"name":"value","type":"int256[]","internalType":"int256[]"}],"outputs":[],"stateMutability":"nonpayable"},{"type":"function","name":"set","inputs":[{"name":"chainId","type":"uint256","internalType":"uint256"},{"name":"key","type":"string","internalType":"string"},{"name":"value","type":"bytes[]","internalType":"bytes[]"}],"outputs":[],"stateMutability":"nonpayable"},{"type":"function","name":"set","inputs":[{"name":"key","type":"string","internalType":"string"},{"name":"value","type":"address","internalType":"address"}],"outputs":[],"stateMutability":"nonpayable"},{"type":"function","name":"set","inputs":[{"name":"chainId","type":"uint256","internalType":"uint256"},{"name":"key","type":"string","internalType":"string"},{"name":"value","type":"bool","internalType":"bool"}],"outputs":[],"stateMutability":"nonpayable"},{"type":"function","name":"set","inputs":[{"name":"key","type":"string","internalType":"string"},{"name":"value","type":"bool","internalType":"bool"}],"outputs":[],"stateMutability":"nonpayable"},{"type":"function","name":"set","inputs":[{"name":"key","type":"string","internalType":"string"},{"name":"value","type":"bytes[]","internalType":"bytes[]"}],"outputs":[],"stateMutability":"nonpayable"},{"type":"function","name":"set","inputs":[{"name":"chainId","type":"uint256","internalType":"uint256"},{"name":"key","type":"string","internalType":"string"},{"name":"value","type":"bytes32","internalType":"bytes32"}],"outputs":[],"stateMutability":"nonpayable"},{"type":"function","name":"set","inputs":[{"name":"chainId","type":"uint256","internalType":"uint256"},{"name":"key","type":"string","internalType":"string"},{"name":"value","type":"string[]","internalType":"string[]"}],"outputs":[],"stateMutability":"nonpayable"},{"type":"function","name":"set","inputs":[{"name":"chainId","type":"uint256","internalType":"uint256"},{"name":"key","type":"string","internalType":"string"},{"name":"value","type":"uint256[]","internalType":"uint256[]"}],"outputs":[],"stateMutability":"nonpayable"},{"type":"function","name":"set","inputs":[{"name":"key","type":"string","internalType":"string"},{"name":"value","type":"int256[]","internalType":"int256[]"}],"outputs":[],"stateMutability":"nonpayable"},{"type":"function","name":"set","inputs":[{"name":"chainId","type":"uint256","internalType":"uint256"},{"name":"key","type":"string","internalType":"string"},{"name":"value","type":"bool[]","internalType":"bool[]"}],"outputs":[],"stateMutability":"nonpayable"},{"type":"function","name":"set","inputs":[{"name":"key","type":"string","internalType":"string"},{"name":"value","type":"bytes32[]","internalType":"bytes32[]"}],"outputs":[],"stateMutability":"nonpayable"},{"type":"function","name":"set","inputs":[{"name":"key","type":"string","internalType":"string"},{"name":"value","type":"string","internalType":"string"}],"outputs":[],"stateMutability":"nonpayable"},{"type":"function","name":"set","inputs":[{"name":"key","type":"string","internalType":"string"},{"name":"value","type":"bool[]","internalType":"bool[]"}],"outputs":[],"stateMutability":"nonpayable"},{"type":"function","name":"writeUpdatesBackToFile","inputs":[{"name":"enabled","type":"bool","internalType":"bool"}],"outputs":[],"stateMutability":"nonpayable"},{"type":"error","name":"AlreadyInitialized","inputs":[{"name":"key","type":"string","internalType":"string"}]},{"type":"error","name":"ChainNotInitialized","inputs":[{"name":"chainId","type":"uint256","internalType":"uint256"}]},{"type":"error","name":"InvalidChainKey","inputs":[{"name":"aliasOrId","type":"string","internalType":"string"}]},{"type":"error","name":"TypeMismatch","inputs":[{"name":"expected","type":"string","internalType":"string"},{"name":"actual","type":"string","internalType":"string"}]},{"type":"error","name":"UnableToParseVariable","inputs":[{"name":"key","type":"string","internalType":"string"}]},{"type":"error","name":"WriteToFileInForbiddenCtxt","inputs":[]}],"bytecode":{"object":"0x6080604052348015630000001257600080fd5b50604051630000b8fd380380630000b8fd8339818101604052810190630000003c91906300002df3565b80801563000000f057507f885cb69240a935d632d79c317109709ecfa91a80626ff3989d68f67f5b1dd12d60001c73ffffffffffffffffffffffffffffffffffffffff166364af255d60046040518263ffffffff1660e01b815260040163000000a791906300002eec565b602060405180830381865afa15801563000000c6573d6000803e3d6000fd5b505050506040513d601f19601f8201168201806040525081019063000000ee91906300002f0b565b155b156300000129576040517f2ebcd21800000000000000000000000000000000000000000000000000000000815260040160405180910390fd5b8160009081630000013c919063000031b7565b5080600560006101000a81548160ff02191690831515021790555060007f885cb69240a935d632d79c317109709ecfa91a80626ff3989d68f67f5b1dd12d60001c73ffffffffffffffffffffffffffffffffffffffff1663ddd2128d7f885cb69240a935d632d79c317109709ecfa91a80626ff3989d68f67f5b1dd12d60001c73ffffffffffffffffffffffffffffffffffffffff166360f9bb11866040518263ffffffff1660e01b815260040163000001f89190630000330d565b600060405180830381865afa1580156300000217573d6000803e3d6000fd5b505050506040513d6000823e3d601f19601f82011682018060405250810190630000024491906300003333565b6040518263ffffffff1660e01b815260040163000002649190630000330d565b6000604051808303816000875af11580156300000285573d6000803e3d6000fd5b505050506040513d6000823e3d601f19601f8201168201806040525081019063000002b291906300003333565b905060007f885cb69240a935d632d79c317109709ecfa91a80626ff3989d68f67f5b1dd12d60001c73ffffffffffffffffffffffffffffffffffffffff1663812a44b2836040518263ffffffff1660e01b81526004016300000316919063000033e0565b600060405180830381865afa1580156300000335573d6000803e3d6000fd5b505050506040513d6000823e3d601f19601f8201168201806040525081019063000003629190630000352f565b905060005b81518110156300000ab4576000828281518110630000038d57630000038c6300003588565b5b6020026020010151905060007f885cb69240a935d632d79c317109709ecfa91a80626ff3989d68f67f5b1dd12d60001c73ffffffffffffffffffffffffffffffffffffffff1663812a44b2868460405160200163000003ee91906300003625565b6040516020818303038152906040526040518363ffffffff1660e01b8152600401630000041e9291906300003653565b600060405180830381865afa158015630000043d573d6000803e3d6000fd5b505050506040513d6000823e3d601f19601f82011682018060405250810190630000046a9190630000352f565b5103630000047a57506300000a9b565b6000630000048f826300000ac060201b60201c565b905060018290806001815401808255809150506001900390600052602060002001600090919091909150908163000004c9919063000031b7565b507f885cb69240a935d632d79c317109709ecfa91a80626ff3989d68f67f5b1dd12d60001c73ffffffffffffffffffffffffffffffffffffffff16638bb8dd438684604051602001630000051f919063000036b8565b6040516020818303038152906040526040518363ffffffff1660e01b8152600401630000054f9291906300003653565b600060405180830381865afa925050508015630000059457506040513d6000823e3d601f19601f82011682018060405250810190630000059191906300003333565b60015b630000071e577f885cb69240a935d632d79c317109709ecfa91a80626ff3989d68f67f5b1dd12d60001c73ffffffffffffffffffffffffffffffffffffffff1663ddd2128d7f885cb69240a935d632d79c317109709ecfa91a80626ff3989d68f67f5b1dd12d60001c73ffffffffffffffffffffffffffffffffffffffff1663975a6ce9856040518263ffffffff1660e01b815260040163000006399190630000330d565b600060405180830381865afa1580156300000658573d6000803e3d6000fd5b505050506040513d6000823e3d601f19601f82011682018060405250810190630000068591906300003333565b6040518263ffffffff1660e01b815260040163000006a59190630000330d565b6000604051808303816000875af115801563000006c6573d6000803e3d6000fd5b505050506040513d6000823e3d601f19601f8201168201806040525081019063000006f391906300003333565b6002600083815260200190815260200160002090816300000716919063000031b7565b5063000007f2565b7f885cb69240a935d632d79c317109709ecfa91a80626ff3989d68f67f5b1dd12d60001c73ffffffffffffffffffffffffffffffffffffffff1663ddd2128d826040518263ffffffff1660e01b8152600401630000077e9190630000330d565b6000604051808303816000875af1158015630000079f573d6000803e3d6000fd5b505050506040513d6000823e3d601f19601f8201168201806040525081019063000007cc91906300003333565b60026000848152602001908152602001600020908163000007ef919063000031b7565b50505b6000600190505b600760ff168160ff16116300000a975760008160ff16600781111563000008275763000008266300002e63565b5b90506000846300000857836007811115630000084a5763000008496300002e63565b5b6300000c6d60201b60201c565b604051602001630000086c929190630000371f565b60405160208183030381529060405290507f885cb69240a935d632d79c317109709ecfa91a80626ff3989d68f67f5b1dd12d60001c73ffffffffffffffffffffffffffffffffffffffff1663812a44b289836040518363ffffffff1660e01b815260040163000008df9291906300003653565b600060405180830381865afa925050508015630000092457506040513d6000823e3d601f19601f8201168201806040525081019063000009219190630000352f565b60015b156300000a7c5760005b81518110156300000a7957600082828151811063000009545763000009536300003588565b5b602002602001015190506000600781111563000009785763000009776300002e63565b5b6004600089815260200190815260200160002082604051630000099d91906300003771565b908152602001604051809103902060000160009054906101000a900460ff16600781111563000009d45763000009d36300002e63565b5b036300000a1e576300000a178b858360405160200163000009f8929190630000378c565b6040516020818303038152906040528984896300000ffb60201b60201c565b6300000a5f565b806040517f7140fee00000000000000000000000000000000000000000000000000000000081526004016300000a569190630000330d565b60405180910390fd5b5080806300000a6f9063000037fa565b915050630000092e565b50505b505080806300000a8d906300003859565b91505063000007f9565b5050505b80806300000aaa9063000037fa565b9150506300000367565b50505050506300004f75565b60007f885cb69240a935d632d79c317109709ecfa91a80626ff3989d68f67f5b1dd12d60001c73ffffffffffffffffffffffffffffffffffffffff1663fa91454d836040518263ffffffff1660e01b81526004016300000b229190630000330d565b602060405180830381865afa9250505080156300000b6257506040513d601f19601f820116820180604052508101906300000b5f919063000038c2565b60015b6300000c63577f885cb69240a935d632d79c317109709ecfa91a80626ff3989d68f67f5b1dd12d60001c73ffffffffffffffffffffffffffffffffffffffff16634cc1c2bb836040518263ffffffff1660e01b81526004016300000bc89190630000330d565b600060405180830381865afa9250505080156300000c0d57506040513d6000823e3d601f19601f820116820180604052508101906300000c0a919063000039fb565b60015b6300000c5457816040517f97aa94df0000000000000000000000000000000000000000000000000000000081526004016300000c4b9190630000330d565b60405180910390fd5b80602001519150506300000c68565b809150505b919050565b6060600160078111156300000c89576300000c886300002e63565b5b8260078111156300000ca2576300000ca16300002e63565b5b036300000ce8576040518060400160405280600481526020017f626f6f6c0000000000000000000000000000000000000000000000000000000081525090506300000ff6565b600260078111156300000d02576300000d016300002e63565b5b8260078111156300000d1b576300000d1a6300002e63565b5b036300000d61576040518060400160405280600781526020017f616464726573730000000000000000000000000000000000000000000000000081525090506300000ff6565b600360078111156300000d7b576300000d7a6300002e63565b5b8260078111156300000d94576300000d936300002e63565b5b036300000dda576040518060400160405280600781526020017f627974657333320000000000000000000000000000000000000000000000000081525090506300000ff6565b600460078111156300000df4576300000df36300002e63565b5b8260078111156300000e0d576300000e0c6300002e63565b5b036300000e53576040518060400160405280600481526020017f75696e740000000000000000000000000000000000000000000000000000000081525090506300000ff6565b600560078111156300000e6d576300000e6c6300002e63565b5b8260078111156300000e86576300000e856300002e63565b5b036300000ecc576040518060400160405280600381526020017f696e74000000000000000000000000000000000000000000000000000000000081525090506300000ff6565b600660078111156300000ee6576300000ee56300002e63565b5b8260078111156300000eff576300000efe6300002e63565b5b036300000f45576040518060400160405280600681526020017f737472696e67000000000000000000000000000000000000000000000000000081525090506300000ff6565b6007808111156300000f5e576300000f5d6300002e63565b5b8260078111156300000f77576300000f766300002e63565b5b036300000fbd576040518060400160405280600581526020017f627974657300000000000000000000000000000000000000000000000000000081525090506300000ff6565b6040518060400160405280600481526020017f6e6f6e650000000000000000000000000000000000000000000000000000000081525090505b919050565b60006001600781111563000010175763000010166300002e63565b5b826007811115630000103057630000102f6300002e63565b5b0363000013f1577f885cb69240a935d632d79c317109709ecfa91a80626ff3989d68f67f5b1dd12d60001c73ffffffffffffffffffffffffffffffffffffffff1663d30dced687876040518363ffffffff1660e01b815260040163000010999291906300003653565b602060405180830381865afa92505050801563000010d957506040513d601f19601f8201168201806040525081019063000010d691906300002f0b565b60015b63000012bf577f885cb69240a935d632d79c317109709ecfa91a80626ff3989d68f67f5b1dd12d60001c73ffffffffffffffffffffffffffffffffffffffff1663127cfe9a87876040518363ffffffff1660e01b815260040163000011419291906300003653565b600060405180830381865afa925050508015630000118657506040513d6000823e3d601f19601f82011682018060405250810190630000118391906300003b3d565b60015b1563000012b8578060405160200163000011a291906300003c74565b604051602081830303815290604052600360008781526020019081526020016000208560405163000011d691906300003771565b9081526020016040518091039020908163000011f491906300003d14565b50604051806040016040528060016007811115630000121a5763000012196300002e63565b5b8152602001600115158152506004600087815260200190815260200160002085604051630000124b91906300003771565b908152602001604051809103902060008201518160000160006101000a81548160ff02191690836007811115630000128a5763000012896300002e63565b5b021790555060208201518160000160016101000a81548160ff02191690831515021790555090505060019150505b63000013ea565b8060405160200163000012d491906300003e23565b6040516020818303038152906040526003600087815260200190815260200160002085604051630000130891906300003771565b90815260200160405180910390209081630000132691906300003d14565b50604051806040016040528060016007811115630000134c57630000134b6300002e63565b5b8152602001600015158152506004600087815260200190815260200160002085604051630000137d91906300003771565b908152602001604051809103902060008201518160000160006101000a81548160ff0219169083600781111563000013bc5763000013bb6300002e63565b5b021790555060208201518160000160016101000a81548160ff02191690831515021790555090505060019150505b6300002bb0565b60026007811115630000140b57630000140a6300002e63565b5b82600781111563000014245763000014236300002e63565b5b0363000017e5577f885cb69240a935d632d79c317109709ecfa91a80626ff3989d68f67f5b1dd12d60001c73ffffffffffffffffffffffffffffffffffffffff166365e7c84487876040518363ffffffff1660e01b8152600401630000148d9291906300003653565b602060405180830381865afa92505050801563000014cd57506040513d601f19601f8201168201806040525081019063000014ca91906300003eae565b60015b63000016b3577f885cb69240a935d632d79c317109709ecfa91a80626ff3989d68f67f5b1dd12d60001c73ffffffffffffffffffffffffffffffffffffffff166365c428e787876040518363ffffffff1660e01b815260040163000015359291906300003653565b600060405180830381865afa925050508015630000157a57506040513d6000823e3d601f19601f82011682018060405250810190630000157791906300003fce565b60015b1563000016ac5780604051602001630000159691906300004105565b604051602081830303815290604052600360008781526020019081526020016000208560405163000015ca91906300003771565b9081526020016040518091039020908163000015e891906300003d14565b50604051806040016040528060026007811115630000160e57630000160d6300002e63565b5b8152602001600115158152506004600087815260200190815260200160002085604051630000163f91906300003771565b908152602001604051809103902060008201518160000160006101000a81548160ff02191690836007811115630000167e57630000167d6300002e63565b5b021790555060208201518160000160016101000a81548160ff02191690831515021790555090505060019150505b63000017de565b8060405160200163000016c89190630000413e565b604051602081830303815290604052600360008781526020019081526020016000208560405163000016fc91906300003771565b90815260200160405180910390209081630000171a91906300003d14565b50604051806040016040528060026007811115630000174057630000173f6300002e63565b5b8152602001600015158152506004600087815260200190815260200160002085604051630000177191906300003771565b908152602001604051809103902060008201518160000160006101000a81548160ff0219169083600781111563000017b05763000017af6300002e63565b5b021790555060208201518160000160016101000a81548160ff02191690831515021790555090505060019150505b6300002baf565b6003600781111563000017ff5763000017fe6300002e63565b5b82600781111563000018185763000018176300002e63565b5b036300001bd9577f885cb69240a935d632d79c317109709ecfa91a80626ff3989d68f67f5b1dd12d60001c73ffffffffffffffffffffffffffffffffffffffff16638e21481087876040518363ffffffff1660e01b815260040163000018819291906300003653565b602060405180830381865afa92505050801563000018c157506040513d601f19601f8201168201806040525081019063000018be9190630000419d565b60015b6300001aa7577f885cb69240a935d632d79c317109709ecfa91a80626ff3989d68f67f5b1dd12d60001c73ffffffffffffffffffffffffffffffffffffffff16633e716f8187876040518363ffffffff1660e01b815260040163000019299291906300003653565b600060405180830381865afa925050508015630000196e57506040513d6000823e3d601f19601f82011682018060405250810190630000196b919063000042bd565b60015b156300001aa05780604051602001630000198a919063000043f4565b604051602081830303815290604052600360008781526020019081526020016000208560405163000019be91906300003771565b9081526020016040518091039020908163000019dc91906300003d14565b506040518060400160405280600360078111156300001a02576300001a016300002e63565b5b81526020016001151581525060046000878152602001908152602001600020856040516300001a3391906300003771565b908152602001604051809103902060008201518160000160006101000a81548160ff021916908360078111156300001a72576300001a716300002e63565b5b021790555060208201518160000160016101000a81548160ff02191690831515021790555090505060019150505b6300001bd2565b806040516020016300001abc9190630000442d565b60405160208183030381529060405260036000878152602001908152602001600020856040516300001af091906300003771565b908152602001604051809103902090816300001b0e91906300003d14565b506040518060400160405280600360078111156300001b34576300001b336300002e63565b5b81526020016000151581525060046000878152602001908152602001600020856040516300001b6591906300003771565b908152602001604051809103902060008201518160000160006101000a81548160ff021916908360078111156300001ba4576300001ba36300002e63565b5b021790555060208201518160000160016101000a81548160ff02191690831515021790555090505060019150505b6300002bae565b600460078111156300001bf3576300001bf26300002e63565b5b8260078111156300001c0c576300001c0b6300002e63565b5b036300001fcd577f885cb69240a935d632d79c317109709ecfa91a80626ff3989d68f67f5b1dd12d60001c73ffffffffffffffffffffffffffffffffffffffff1663cc7b048787876040518363ffffffff1660e01b81526004016300001c759291906300003653565b602060405180830381865afa9250505080156300001cb557506040513d601f19601f820116820180604052508101906300001cb2919063000038c2565b60015b6300001e9b577f885cb69240a935d632d79c317109709ecfa91a80626ff3989d68f67f5b1dd12d60001c73ffffffffffffffffffffffffffffffffffffffff1663b5df27c887876040518363ffffffff1660e01b81526004016300001d1d9291906300003653565b600060405180830381865afa9250505080156300001d6257506040513d6000823e3d601f19601f820116820180604052508101906300001d5f91906300004535565b60015b156300001e9457806040516020016300001d7e9190630000466c565b60405160208183030381529060405260036000878152602001908152602001600020856040516300001db291906300003771565b908152602001604051809103902090816300001dd091906300003d14565b506040518060400160405280600460078111156300001df6576300001df56300002e63565b5b81526020016001151581525060046000878152602001908152602001600020856040516300001e2791906300003771565b908152602001604051809103902060008201518160000160006101000a81548160ff021916908360078111156300001e66576300001e656300002e63565b5b021790555060208201518160000160016101000a81548160ff02191690831515021790555090505060019150505b6300001fc6565b806040516020016300001eb0919063000046a5565b60405160208183030381529060405260036000878152602001908152602001600020856040516300001ee491906300003771565b908152602001604051809103902090816300001f0291906300003d14565b506040518060400160405280600460078111156300001f28576300001f276300002e63565b5b81526020016000151581525060046000878152602001908152602001600020856040516300001f5991906300003771565b908152602001604051809103902060008201518160000160006101000a81548160ff021916908360078111156300001f98576300001f976300002e63565b5b021790555060208201518160000160016101000a81548160ff02191690831515021790555090505060019150505b6300002bad565b600560078111156300001fe7576300001fe66300002e63565b5b8260078111156300002000576300001fff6300002e63565b5b0363000023c1577f885cb69240a935d632d79c317109709ecfa91a80626ff3989d68f67f5b1dd12d60001c73ffffffffffffffffffffffffffffffffffffffff1663c135073987876040518363ffffffff1660e01b815260040163000020699291906300003653565b602060405180830381865afa92505050801563000020a957506040513d601f19601f8201168201806040525081019063000020a691906300004704565b60015b630000228f577f885cb69240a935d632d79c317109709ecfa91a80626ff3989d68f67f5b1dd12d60001c73ffffffffffffffffffffffffffffffffffffffff1663d3522ae687876040518363ffffffff1660e01b815260040163000021119291906300003653565b600060405180830381865afa925050508015630000215657506040513d6000823e3d601f19601f82011682018060405250810190630000215391906300004824565b60015b156300002288578060405160200163000021729190630000495b565b604051602081830303815290604052600360008781526020019081526020016000208560405163000021a691906300003771565b9081526020016040518091039020908163000021c491906300003d14565b5060405180604001604052806005600781111563000021ea5763000021e96300002e63565b5b8152602001600115158152506004600087815260200190815260200160002085604051630000221b91906300003771565b908152602001604051809103902060008201518160000160006101000a81548160ff02191690836007811115630000225a5763000022596300002e63565b5b021790555060208201518160000160016101000a81548160ff02191690831515021790555090505060019150505b63000023ba565b8060405160200163000022a491906300004994565b604051602081830303815290604052600360008781526020019081526020016000208560405163000022d891906300003771565b9081526020016040518091039020908163000022f691906300003d14565b50604051806040016040528060056007811115630000231c57630000231b6300002e63565b5b8152602001600015158152506004600087815260200190815260200160002085604051630000234d91906300003771565b908152602001604051809103902060008201518160000160006101000a81548160ff02191690836007811115630000238c57630000238b6300002e63565b5b021790555060208201518160000160016101000a81548160ff02191690831515021790555090505060019150505b6300002bac565b60078081111563000023da5763000023d96300002e63565b5b82600781111563000023f35763000023f26300002e63565b5b0363000027b7577f885cb69240a935d632d79c317109709ecfa91a80626ff3989d68f67f5b1dd12d60001c73ffffffffffffffffffffffffffffffffffffffff1663d77bfdb987876040518363ffffffff1660e01b8152600401630000245c9291906300003653565b600060405180830381865afa92505050801563000024a157506040513d6000823e3d601f19601f82011682018060405250810190630000249e91906300004a7a565b60015b6300002686577f885cb69240a935d632d79c317109709ecfa91a80626ff3989d68f67f5b1dd12d60001c73ffffffffffffffffffffffffffffffffffffffff1663b197c24787876040518363ffffffff1660e01b815260040163000025099291906300003653565b600060405180830381865afa925050508015630000254e57506040513d6000823e3d601f19601f82011682018060405250810190630000254b91906300004be0565b60015b15630000267f5780604051602001630000256a91906300004d71565b6040516020818303038152906040526003600087815260200190815260200160002085604051630000259e91906300003771565b9081526020016040518091039020908163000025bc91906300003d14565b50604051806040016040528060078081111563000025e15763000025e06300002e63565b5b8152602001600115158152506004600087815260200190815260200160002085604051630000261291906300003771565b908152602001604051809103902060008201518160000160006101000a81548160ff0219169083600781111563000026515763000026506300002e63565b5b021790555060208201518160000160016101000a81548160ff02191690831515021790555090505060019150505b63000027b0565b80604051602001630000269b91906300004df1565b604051602081830303815290604052600360008781526020019081526020016000208560405163000026cf91906300003771565b9081526020016040518091039020908163000026ed91906300003d14565b50604051806040016040528060078081111563000027125763000027116300002e63565b5b8152602001600015158152506004600087815260200190815260200160002085604051630000274391906300003771565b908152602001604051809103902060008201518160000160006101000a81548160ff0219169083600781111563000027825763000027816300002e63565b5b021790555060208201518160000160016101000a81548160ff02191690831515021790555090505060019150505b6300002bab565b6006600781111563000027d15763000027d06300002e63565b5b82600781111563000027ea5763000027e96300002e63565b5b036300002baa577f885cb69240a935d632d79c317109709ecfa91a80626ff3989d68f67f5b1dd12d60001c73ffffffffffffffffffffffffffffffffffffffff16638bb8dd4387876040518363ffffffff1660e01b815260040163000028539291906300003653565b600060405180830381865afa925050508015630000289857506040513d6000823e3d601f19601f82011682018060405250810190630000289591906300003333565b60015b6300002a7e577f885cb69240a935d632d79c317109709ecfa91a80626ff3989d68f67f5b1dd12d60001c73ffffffffffffffffffffffffffffffffffffffff16639f62928187876040518363ffffffff1660e01b815260040163000029009291906300003653565b600060405180830381865afa925050508015630000294557506040513d6000823e3d601f19601f8201168201806040525081019063000029429190630000352f565b60015b156300002a775780604051602001630000296191906300004f4f565b6040516020818303038152906040526003600087815260200190815260200160002085604051630000299591906300003771565b9081526020016040518091039020908163000029b391906300003d14565b5060405180604001604052806006600781111563000029d95763000029d86300002e63565b5b81526020016001151581525060046000878152602001908152602001600020856040516300002a0a91906300003771565b908152602001604051809103902060008201518160000160006101000a81548160ff021916908360078111156300002a49576300002a486300002e63565b5b021790555060208201518160000160016101000a81548160ff02191690831515021790555090505060019150505b6300002ba9565b806040516020016300002a939190630000330d565b60405160208183030381529060405260036000878152602001908152602001600020856040516300002ac791906300003771565b908152602001604051809103902090816300002ae591906300003d14565b506040518060400160405280600660078111156300002b0b576300002b0a6300002e63565b5b81526020016000151581525060046000878152602001908152602001600020856040516300002b3c91906300003771565b908152602001604051809103902060008201518160000160006101000a81548160ff021916908360078111156300002b7b576300002b7a6300002e63565b5b021790555060208201518160000160016101000a81548160ff02191690831515021790555090505060019150505b5b5b5b5b5b5b5b806300002bf857826040517fea00fa130000000000000000000000000000000000000000000000000000000081526004016300002bef9190630000330d565b60405180910390fd5b505050505050565b6000604051905090565b600080fd5b600080fd5b600080fd5b600080fd5b6000601f19601f8301169050919050565b7f4e487b7100000000000000000000000000000000000000000000000000000000600052604160045260246000fd5b6300002c6b826300002c1e565b810181811067ffffffffffffffff821117156300002c90576300002c8f6300002c2f565b5b80604052505050565b60006300002ca76300002c00565b90506300002cb782826300002c5e565b919050565b600067ffffffffffffffff8211156300002cdd576300002cdc6300002c2f565b5b6300002cea826300002c1e565b9050602081019050919050565b60005b838110156300002d195780820151818401526020810190506300002cfa565b60008484015250505050565b60006300002d406300002d39846300002cbc565b6300002c99565b9050828152602081018484840111156300002d62576300002d616300002c19565b5b6300002d718482856300002cf7565b509392505050565b600082601f8301126300002d94576300002d936300002c14565b5b81516300002da88482602086016300002d25565b91505092915050565b60008115159050919050565b6300002dca816300002db1565b81146300002dd757600080fd5b50565b6000815190506300002ded816300002dbd565b92915050565b600080604083850312156300002e10576300002e0f6300002c0a565b5b600083015167ffffffffffffffff8111156300002e34576300002e336300002c0f565b5b6300002e44858286016300002d79565b92505060206300002e59858286016300002dda565b9150509250929050565b7f4e487b7100000000000000000000000000000000000000000000000000000000600052602160045260246000fd5b600981106300002ea9576300002ea86300002e63565b5b50565b60008190506300002ebe826300002e92565b919050565b60006300002ed2826300002eac565b9050919050565b6300002ee6816300002ec3565b82525050565b60006020820190506300002f0560008301846300002ed9565b92915050565b6000602082840312156300002f27576300002f266300002c0a565b5b60006300002f39848285016300002dda565b91505092915050565b600081519050919050565b7f4e487b7100000000000000000000000000000000000000000000000000000000600052602260045260246000fd5b600060028204905060018216806300002f9657607f821691505b6020821081036300002faf576300002fae6300002f4d565b5b50919050565b60008190508160005260206000209050919050565b60006020601f8301049050919050565b600082821b905092915050565b600060088302630000301b7fffffffffffffffffffffffffffffffffffffffffffffffffffffffffffffffff826300002fda565b630000302986836300002fda565b95508019841693508086168417925050509392505050565b6000819050919050565b6000819050919050565b6000630000307c6300003075630000306e846300003041565b630000304b565b6300003041565b9050919050565b6000819050919050565b630000309a836300003055565b63000030b663000030ac826300003083565b8484546300002fe7565b825550505050565b600090565b63000030cf63000030be565b63000030de818484630000308d565b505050565b5b81811015630000310a5763000030fd60008263000030c3565b60018101905063000030e4565b5050565b601f8211156300003163576300003126816300002fb5565b6300003133846300002fca565b810160208510156300003144578190505b63000031606300003156856300002fca565b83018263000030e3565b50505b505050565b600082821c905092915050565b6000630000318a600019846008026300003168565b1980831691505092915050565b600063000031a783836300003175565b9150826002028217905092915050565b63000031c4826300002f42565b67ffffffffffffffff81111563000031e35763000031e26300002c2f565b5b63000031f182546300002f7c565b6300003200828285630000310e565b600060209050601f831160018114630000323d57600084156300003225578287015190505b630000323385826300003197565b86555063000032ab565b601f198416630000324f866300002fb5565b60005b82811015630000327b578489015182556001820191506020850194506020810190506300003252565b86831015630000329e5784890151630000329a601f8916826300003175565b8355505b6001600288020188555050505b505050505050565b600082825260208201905092915050565b600063000032d3826300002f42565b63000032e1818563000032b3565b935063000032f58185602086016300002cf7565b6300003302816300002c1e565b840191505092915050565b60006020820190508181036000830152630000332b818463000032c4565b905092915050565b600060208284031215630000334f57630000334e6300002c0a565b5b600082015167ffffffffffffffff81111563000033735763000033726300002c0f565b5b6300003383848285016300002d79565b91505092915050565b7f2400000000000000000000000000000000000000000000000000000000000000600082015250565b600063000033c660018363000032b3565b915063000033d582630000338c565b602082019050919050565b6000604082019050818103600083015263000033fe818463000032c4565b9050818103602083015263000034158163000033b5565b905092915050565b600067ffffffffffffffff821115630000343e57630000343d6300002c2f565b5b602082029050602081019050919050565b600080fd5b6000630000346f630000346884630000341d565b6300002c99565b905080838252602082019050602084028301858111156300003498576300003497630000344f565b5b835b8181101563000034ed57805167ffffffffffffffff81111563000034c55763000034c46300002c14565b5b80860163000034d689826300002d79565b85526020850194505050602081019050630000349a565b5050509392505050565b600082601f83011263000035125763000035116300002c14565b5b815163000035268482602086016300003454565b91505092915050565b600060208284031215630000354b57630000354a6300002c0a565b5b600082015167ffffffffffffffff811115630000356f57630000356e6300002c0f565b5b630000357f8482850163000034f7565b91505092915050565b7f4e487b7100000000000000000000000000000000000000000000000000000000600052603260045260246000fd5b7f242e000000000000000000000000000000000000000000000000000000000000815250565b600081905092915050565b600063000035f7826300002f42565b6300003605818563000035dd565b935063000036198185602086016300002cf7565b80840191505092915050565b600063000036348263000035b7565b6002820191506300003648828463000035e8565b915081905092915050565b600060408201905081810360008301526300003671818563000032c4565b905081810360208301526300003689818463000032c4565b90509392505050565b7f2e656e64706f696e745f75726c00000000000000000000000000000000000000815250565b600063000036c78263000035b7565b60028201915063000036db828463000035e8565b915063000036ea826300003692565b600d8201915081905092915050565b7f2e00000000000000000000000000000000000000000000000000000000000000815250565b6000630000372e8263000035b7565b6002820191506300003742828563000035e8565b915063000037518263000036f9565b6001820191506300003765828463000035e8565b91508190509392505050565b60006300003781828463000035e8565b915081905092915050565b6000630000379c828563000035e8565b915063000037ab8263000036f9565b60018201915063000037bf828463000035e8565b91508190509392505050565b7f4e487b7100000000000000000000000000000000000000000000000000000000600052601160045260246000fd5b60006300003809826300003041565b91507fffffffffffffffffffffffffffffffffffffffffffffffffffffffffffffffff8203630000384157630000384063000037cb565b5b600182019050919050565b600060ff82169050919050565b6000630000386882630000384c565b915060ff8203630000388157630000388063000037cb565b5b600182019050919050565b6300003899816300003041565b811463000038a657600080fd5b50565b60008151905063000038bc81630000388c565b92915050565b60006020828403121563000038de5763000038dd6300002c0a565b5b600063000038f08482850163000038a9565b91505092915050565b600080fd5b600080fd5b600060808284031215630000391f57630000391e63000038f9565b5b630000392d60806300002c99565b9050600082015167ffffffffffffffff811115630000395357630000395263000038fe565b5b6300003963848285016300002d79565b6000830152506020630000397b8482850163000038a9565b602083015250604082015167ffffffffffffffff81111563000039a55763000039a463000038fe565b5b63000039b5848285016300002d79565b604083015250606082015167ffffffffffffffff81111563000039df5763000039de63000038fe565b5b63000039ef848285016300002d79565b60608301525092915050565b6000602082840312156300003a17576300003a166300002c0a565b5b600082015167ffffffffffffffff8111156300003a3b576300003a3a6300002c0f565b5b6300003a4b848285016300003903565b91505092915050565b600067ffffffffffffffff8211156300003a75576300003a746300002c2f565b5b602082029050602081019050919050565b60006300003aa16300003a9a846300003a54565b6300002c99565b905080838252602082019050602084028301858111156300003aca576300003ac9630000344f565b5b835b818110156300003afb57806300003ae588826300002dda565b8452602084019350506020810190506300003acc565b5050509392505050565b600082601f8301126300003b20576300003b1f6300002c14565b5b81516300003b348482602086016300003a86565b91505092915050565b6000602082840312156300003b59576300003b586300002c0a565b5b600082015167ffffffffffffffff8111156300003b7d576300003b7c6300002c0f565b5b6300003b8d848285016300003b05565b91505092915050565b600081519050919050565b600082825260208201905092915050565b6000819050602082019050919050565b6300003bcf816300002db1565b82525050565b60006300003be583836300003bc2565b60208301905092915050565b6000602082019050919050565b60006300003c0d826300003b96565b6300003c1b81856300003ba1565b93506300003c2a836300003bb2565b8060005b838110156300003c675781516300003c4888826300003bd5565b97506300003c57836300003bf1565b9250506001810190506300003c2e565b5085935050505092915050565b600060208201905081810360008301526300003c9281846300003bfe565b905092915050565b600081519050919050565b60008190508160005260206000209050919050565b601f8211156300003d0f576300003cd2816300003ca5565b6300003cdf846300002fca565b810160208510156300003cf0578190505b6300003d0c6300003d02856300002fca565b83018263000030e3565b50505b505050565b6300003d21826300003c9a565b67ffffffffffffffff8111156300003d40576300003d3f6300002c2f565b5b6300003d4e82546300002f7c565b6300003d5d8282856300003cba565b600060209050601f8311600181146300003d9a57600084156300003d82578287015190505b6300003d9085826300003197565b8655506300003e08565b601f1984166300003dac866300003ca5565b60005b828110156300003dd8578489015182556001820191506020850194506020810190506300003daf565b868310156300003dfb57848901516300003df7601f8916826300003175565b8355505b6001600288020188555050505b505050505050565b6300003e1d816300002db1565b82525050565b60006020820190506300003e3c60008301846300003e10565b92915050565b600073ffffffffffffffffffffffffffffffffffffffff82169050919050565b60006300003e71826300003e42565b9050919050565b6300003e85816300003e62565b81146300003e9257600080fd5b50565b6000815190506300003ea8816300003e78565b92915050565b6000602082840312156300003eca576300003ec96300002c0a565b5b60006300003edc848285016300003e95565b91505092915050565b600067ffffffffffffffff8211156300003f06576300003f056300002c2f565b5b602082029050602081019050919050565b60006300003f326300003f2b846300003ee5565b6300002c99565b905080838252602082019050602084028301858111156300003f5b576300003f5a630000344f565b5b835b818110156300003f8c57806300003f7688826300003e95565b8452602084019350506020810190506300003f5d565b5050509392505050565b600082601f8301126300003fb1576300003fb06300002c14565b5b81516300003fc58482602086016300003f17565b91505092915050565b6000602082840312156300003fea576300003fe96300002c0a565b5b600082015167ffffffffffffffff811115630000400e57630000400d6300002c0f565b5b630000401e848285016300003f96565b91505092915050565b600081519050919050565b600082825260208201905092915050565b6000819050602082019050919050565b6300004060816300003e62565b82525050565b6000630000407683836300004053565b60208301905092915050565b6000602082019050919050565b6000630000409e826300004027565b63000040ac81856300004032565b935063000040bb836300004043565b8060005b8381101563000040f857815163000040d988826300004066565b975063000040e8836300004082565b92505060018101905063000040bf565b5085935050505092915050565b6000602082019050818103600083015263000041238184630000408f565b905092915050565b6300004138816300003e62565b82525050565b600060208201905063000041576000830184630000412b565b92915050565b6000819050919050565b630000417481630000415d565b8114630000418157600080fd5b50565b6000815190506300004197816300004167565b92915050565b60006020828403121563000041b95763000041b86300002c0a565b5b600063000041cb848285016300004184565b91505092915050565b600067ffffffffffffffff82111563000041f55763000041f46300002c2f565b5b602082029050602081019050919050565b60006300004221630000421a8463000041d4565b6300002c99565b90508083825260208201905060208402830185811115630000424a576300004249630000344f565b5b835b81811015630000427b5780630000426588826300004184565b845260208401935050602081019050630000424c565b5050509392505050565b600082601f83011263000042a057630000429f6300002c14565b5b815163000042b48482602086016300004206565b91505092915050565b60006020828403121563000042d95763000042d86300002c0a565b5b600082015167ffffffffffffffff81111563000042fd5763000042fc6300002c0f565b5b630000430d848285016300004285565b91505092915050565b600081519050919050565b600082825260208201905092915050565b6000819050602082019050919050565b630000434f81630000415d565b82525050565b6000630000436583836300004342565b60208301905092915050565b6000602082019050919050565b6000630000438d826300004316565b630000439b81856300004321565b935063000043aa836300004332565b8060005b8381101563000043e757815163000043c888826300004355565b975063000043d7836300004371565b92505060018101905063000043ae565b5085935050505092915050565b6000602082019050818103600083015263000044128184630000437e565b905092915050565b630000442781630000415d565b82525050565b600060208201905063000044466000830184630000441a565b92915050565b600067ffffffffffffffff821115630000446d57630000446c6300002c2f565b5b602082029050602081019050919050565b60006300004499630000449284630000444c565b6300002c99565b9050808382526020820190506020840283018581111563000044c25763000044c1630000344f565b5b835b8181101563000044f3578063000044dd888263000038a9565b84526020840193505060208101905063000044c4565b5050509392505050565b600082601f83011263000045185763000045176300002c14565b5b8151630000452c848260208601630000447e565b91505092915050565b60006020828403121563000045515763000045506300002c0a565b5b600082015167ffffffffffffffff81111563000045755763000045746300002c0f565b5b63000045858482850163000044fd565b91505092915050565b600081519050919050565b600082825260208201905092915050565b6000819050602082019050919050565b63000045c7816300003041565b82525050565b600063000045dd838363000045ba565b60208301905092915050565b6000602082019050919050565b6000630000460582630000458e565b630000461381856300004599565b935063000046228363000045aa565b8060005b83811015630000465f5781516300004640888263000045cd565b9750630000464f8363000045e9565b9250506001810190506300004626565b5085935050505092915050565b60006020820190508181036000830152630000468a818463000045f6565b905092915050565b630000469f816300003041565b82525050565b600060208201905063000046be60008301846300004692565b92915050565b6000819050919050565b63000046db8163000046c4565b811463000046e857600080fd5b50565b60008151905063000046fe8163000046ce565b92915050565b600060208284031215630000472057630000471f6300002c0a565b5b600063000047328482850163000046eb565b91505092915050565b600067ffffffffffffffff821115630000475c57630000475b6300002c2f565b5b602082029050602081019050919050565b60006300004788630000478184630000473b565b6300002c99565b9050808382526020820190506020840283018581111563000047b15763000047b0630000344f565b5b835b8181101563000047e2578063000047cc888263000046eb565b84526020840193505060208101905063000047b3565b5050509392505050565b600082601f83011263000048075763000048066300002c14565b5b8151630000481b848260208601630000476d565b91505092915050565b600060208284031215630000484057630000483f6300002c0a565b5b600082015167ffffffffffffffff81111563000048645763000048636300002c0f565b5b63000048748482850163000047ec565b91505092915050565b600081519050919050565b600082825260208201905092915050565b6000819050602082019050919050565b63000048b68163000046c4565b82525050565b600063000048cc838363000048a9565b60208301905092915050565b6000602082019050919050565b600063000048f482630000487d565b630000490281856300004888565b93506300004911836300004899565b8060005b83811015630000494e578151630000492f888263000048bc565b9750630000493e8363000048d8565b9250506001810190506300004915565b5085935050505092915050565b600060208201905081810360008301526300004979818463000048e5565b905092915050565b630000498e8163000046c4565b82525050565b600060208201905063000049ad60008301846300004981565b92915050565b600067ffffffffffffffff82111563000049d45763000049d36300002c2f565b5b63000049e1826300002c1e565b9050602081019050919050565b60006300004a096300004a028463000049b3565b6300002c99565b9050828152602081018484840111156300004a2b576300004a2a6300002c19565b5b6300004a3a8482856300002cf7565b509392505050565b600082601f8301126300004a5d576300004a5c6300002c14565b5b81516300004a7184826020860163000049ee565b91505092915050565b6000602082840312156300004a96576300004a956300002c0a565b5b600082015167ffffffffffffffff8111156300004aba576300004ab96300002c0f565b5b6300004aca848285016300004a42565b91505092915050565b600067ffffffffffffffff8211156300004af4576300004af36300002c2f565b5b602082029050602081019050919050565b60006300004b206300004b19846300004ad3565b6300002c99565b905080838252602082019050602084028301858111156300004b49576300004b48630000344f565b5b835b818110156300004b9e57805167ffffffffffffffff8111156300004b76576300004b756300002c14565b5b8086016300004b8789826300004a42565b855260208501945050506020810190506300004b4b565b5050509392505050565b600082601f8301126300004bc3576300004bc26300002c14565b5b81516300004bd78482602086016300004b05565b91505092915050565b6000602082840312156300004bfc576300004bfb6300002c0a565b5b600082015167ffffffffffffffff8111156300004c20576300004c1f6300002c0f565b5b6300004c30848285016300004ba8565b91505092915050565b600081519050919050565b600082825260208201905092915050565b6000819050602082019050919050565b600082825260208201905092915050565b60006300004c85826300003c9a565b6300004c9381856300004c65565b93506300004ca78185602086016300002cf7565b6300004cb4816300002c1e565b840191505092915050565b60006300004ccf83836300004c76565b905092915050565b6000602082019050919050565b60006300004cf3826300004c39565b6300004d0181856300004c44565b9350836020820285016300004d17856300004c55565b8060005b858110156300004d5f57848403895281516300004d3a85826300004cbf565b94506300004d49836300004cd7565b925060208a019950506001810190506300004d1b565b50829750879550505050505092915050565b600060208201905081810360008301526300004d8f81846300004ce4565b905092915050565b600082825260208201905092915050565b60006300004db7826300003c9a565b6300004dc581856300004d97565b93506300004dd98185602086016300002cf7565b6300004de6816300002c1e565b840191505092915050565b600060208201905081810360008301526300004e0f81846300004da8565b905092915050565b600081519050919050565b600082825260208201905092915050565b6000819050602082019050919050565b600082825260208201905092915050565b60006300004e63826300002f42565b6300004e7181856300004e43565b93506300004e858185602086016300002cf7565b6300004e92816300002c1e565b840191505092915050565b60006300004ead83836300004e54565b905092915050565b6000602082019050919050565b60006300004ed1826300004e17565b6300004edf81856300004e22565b9350836020820285016300004ef5856300004e33565b8060005b858110156300004f3d57848403895281516300004f1885826300004e9d565b94506300004f27836300004eb5565b925060208a019950506001810190506300004ef9565b50829750879550505050505092915050565b600060208201905081810360008301526300004f6d81846300004ec2565b905092915050565b616977806300004f866000396000f3fe608060405234801561001057600080fd5b50600436106102275760003560e01c80637df3ef1211610130578063c91ca7ba116100b8578063de0fc9b31161007c578063de0fc9b314610628578063e298d00b14610644578063e605325014610660578063e942b5161461067c578063fa3c074a1461069857610227565b8063c91ca7ba1461059c578063cf1cfa99146105b8578063cf72a2f3146105d4578063d6698dc4146105f0578063db0075df1461060c57610227565b80638be19924116100ff5780638be199241461051057806393dbe6e01461052c578063a815ff1514610548578063b3a6400114610564578063ba0ff22c1461058057610227565b80637df3ef1214610478578063805da4ad146104a857806388c63d45146104d85780638a42ebe9146104f457610227565b806343d9eb7b116101b35780635eba0df0116101825780635eba0df0146103d857806361141c97146103f45780636556095014610410578063693ec85e1461042c5780637b8fed811461045c57610227565b806343d9eb7b1461035257806343ec8b6a146103825780634d85ce80146103a057806359b39526146103bc57610227565b8063261a323e116101fa578063261a323e1461029e5780632b29c0fa146102ce5780632e3196a5146102ea5780632ef8ba74146103065780633f3a75881461032257610227565b806307d79d9a1461022c57806308f7b4b2146102485780631d7763231461026457806322dc48fd14610282575b600080fd5b6102466004803603810190610241919061408f565b6106b4565b005b610262600480360381019061025d91906141fc565b610831565b005b61026c610aa9565b6040516102799190614345565b60405180910390f35b61029c60048036038101906102979190614367565b610c39565b005b6102b860048036038101906102b391906143d6565b610db6565b6040516102c5919061443a565b60405180910390f35b6102e860048036038101906102e391906144f6565b610e5a565b005b61030460048036038101906102ff919061456e565b610efa565b005b610320600480360381019061031b91906145ca565b610f9a565b005b61033c600480360381019061033791906143d6565b61103a565b6040516103499190614635565b60405180910390f35b61036c60048036038101906103679190614650565b6111c9565b604051610379919061443a565b60405180910390f35b61038a611211565b604051610397919061472b565b60405180910390f35b6103ba60048036038101906103b5919061474d565b611345565b005b6103d660048036038101906103d191906148b9565b6114c9565b005b6103f260048036038101906103ed919061498f565b611569565b005b61040e60048036038101906104099190614ac1565b6116ee565b005b61042a60048036038101906104259190614b4c565b611966565b005b610446600480360381019061044191906143d6565b611a4a565b6040516104539190614d1e565b60405180910390f35b61047660048036038101906104719190614e03565b611af4565b005b610492600480360381019061048d9190614e7b565b611b94565b60405161049f919061472b565b60405180910390f35b6104c260048036038101906104bd9190614650565b611c39565b6040516104cf9190614d1e565b60405180910390f35b6104f260048036038101906104ed9190614ea8565b611da4565b005b61050e60048036038101906105099190614f20565b611e44565b005b61052a6004803603810190610525919061503f565b611ee4565b005b610546600480360381019061054191906151ab565b612154565b005b610562600480360381019061055d9190615236565b6123cb565b005b61057e600480360381019061057991906152be565b61246b565b005b61059a6004803603810190610595919061532d565b6125e8565b005b6105b660048036038101906105b19190615389565b612688565b005b6105d260048036038101906105cd9190615401565b612728565b005b6105ee60048036038101906105e99190615470565b6128ad565b005b61060a600480360381019061060591906154fb565b612a84565b005b61062660048036038101906106219190615528565b612b80565b005b610642600480360381019061063d91906155b3565b612df0565b005b61065e600480360381019061065991906156ee565b612e90565b005b61067a60048036038101906106759190615779565b613100565b005b610696600480360381019061069191906157f1565b6131a0565b005b6106b260048036038101906106ad9190615869565b613240565b005b60006040518060400160405280600560078111156106d5576106d4614bd7565b5b81526020016000151581525090506106ee8484836132e0565b816040516020016106ff91906158f0565b604051602081830303815290604052600360008681526020019081526020016000208460405161072f9190615947565b908152602001604051809103902090816107499190615b6a565b50600560009054906101000a900460ff161561082b5761082a846107828360000151600781111561077d5761077c614bd7565b5b613446565b857f885cb69240a935d632d79c317109709ecfa91a80626ff3989d68f67f5b1dd12d60001c73ffffffffffffffffffffffffffffffffffffffff1663a322c40e876040518263ffffffff1660e01b81526004016107df91906158f0565b600060405180830381865afa1580156107fc573d6000803e3d6000fd5b505050506040513d6000823e3d601f19601f820116820180604052508101906108259190615cac565b613764565b5b50505050565b600060405180604001604052806003600781111561085257610851614bd7565b5b815260200160011515815250905061086b8484836132e0565b8160405160200161087c9190615db3565b60405160208183030381529060405260036000868152602001908152602001600020846040516108ac9190615947565b908152602001604051809103902090816108c69190615b6a565b50600560009054906101000a900460ff1615610aa35760006040518060400160405280600181526020017f5b00000000000000000000000000000000000000000000000000000000000000815250905060005b8351811015610a5457816109e77f885cb69240a935d632d79c317109709ecfa91a80626ff3989d68f67f5b1dd12d60001c73ffffffffffffffffffffffffffffffffffffffff1663b11a19e887858151811061097857610977615dd5565b5b60200260200101516040518263ffffffff1660e01b815260040161099c9190615e13565b600060405180830381865afa1580156109b9573d6000803e3d6000fd5b505050506040513d6000823e3d601f19601f820116820180604052508101906109e29190615cac565b613834565b6040516020016109f8929190615e2e565b604051602081830303815290604052915060018451610a179190615e81565b811015610a415781604051602001610a2f9190615edb565b60405160208183030381529060405291505b8080610a4c90615f01565b915050610919565b5080604051602001610a669190615f6f565b6040516020818303038152906040529050610aa185610a9a84600001516007811115610a9557610a94614bd7565b5b613446565b8684613764565b505b50505050565b606060006001805480602002602001604051908101604052809291908181526020016000905b82821015610b7b578382906000526020600020018054610aee9061598d565b80601f0160208091040260200160405190810160405280929190818152602001828054610b1a9061598d565b8015610b675780601f10610b3c57610100808354040283529160200191610b67565b820191906000526020600020905b815481529060010190602001808311610b4a57829003601f168201915b505050505081526020019060010190610acf565b5050505090506000815167ffffffffffffffff811115610b9e57610b9d613f2e565b5b604051908082528060200260200182016040528015610bcc5781602001602082028036833780820191505090505b50905060005b8251811015610c3057610bfe838281518110610bf157610bf0615dd5565b5b602002602001015161103a565b828281518110610c1157610c10615dd5565b5b6020026020010181815250508080610c2890615f01565b915050610bd2565b50809250505090565b6000604051806040016040528060046007811115610c5a57610c59614bd7565b5b8152602001600015158152509050610c738484836132e0565b81604051602001610c849190614635565b6040516020818303038152906040526003600086815260200190815260200160002084604051610cb49190615947565b90815260200160405180910390209081610cce9190615b6a565b50600560009054906101000a900460ff1615610db057610daf84610d0783600001516007811115610d0257610d01614bd7565b5b613446565b857f885cb69240a935d632d79c317109709ecfa91a80626ff3989d68f67f5b1dd12d60001c73ffffffffffffffffffffffffffffffffffffffff16636900a3ae876040518263ffffffff1660e01b8152600401610d649190614635565b600060405180830381865afa158015610d81573d6000803e3d6000fd5b505050506040513d6000823e3d601f19601f82011682018060405250810190610daa9190615cac565b613764565b5b50505050565b6000610e537f885cb69240a935d632d79c317109709ecfa91a80626ff3989d68f67f5b1dd12d60001c73ffffffffffffffffffffffffffffffffffffffff16633408e4706040518163ffffffff1660e01b8152600401602060405180830381865afa158015610e29573d6000803e3d6000fd5b505050506040513d601f19601f82011682018060405250810190610e4d9190615faa565b836111c9565b9050919050565b610ef67f885cb69240a935d632d79c317109709ecfa91a80626ff3989d68f67f5b1dd12d60001c73ffffffffffffffffffffffffffffffffffffffff16633408e4706040518163ffffffff1660e01b8152600401602060405180830381865afa158015610ecb573d6000803e3d6000fd5b505050506040513d601f19601f82011682018060405250810190610eef9190615faa565b8383611345565b5050565b610f967f885cb69240a935d632d79c317109709ecfa91a80626ff3989d68f67f5b1dd12d60001c73ffffffffffffffffffffffffffffffffffffffff16633408e4706040518163ffffffff1660e01b8152600401602060405180830381865afa158015610f6b573d6000803e3d6000fd5b505050506040513d601f19601f82011682018060405250810190610f8f9190615faa565b8383612728565b5050565b6110367f885cb69240a935d632d79c317109709ecfa91a80626ff3989d68f67f5b1dd12d60001c73ffffffffffffffffffffffffffffffffffffffff16633408e4706040518163ffffffff1660e01b8152600401602060405180830381865afa15801561100b573d6000803e3d6000fd5b505050506040513d601f19601f8201168201806040525081019061102f9190615faa565b83836106b4565b5050565b60007f885cb69240a935d632d79c317109709ecfa91a80626ff3989d68f67f5b1dd12d60001c73ffffffffffffffffffffffffffffffffffffffff1663fa91454d836040518263ffffffff1660e01b8152600401611098919061472b565b602060405180830381865afa9250505080156110d257506040513d601f19601f820116820180604052508101906110cf9190615faa565b60015b6111bf577f885cb69240a935d632d79c317109709ecfa91a80626ff3989d68f67f5b1dd12d60001c73ffffffffffffffffffffffffffffffffffffffff16634cc1c2bb836040518263ffffffff1660e01b8152600401611132919061472b565b600060405180830381865afa92505050801561117157506040513d6000823e3d601f19601f8201168201806040525081019061116e91906160ad565b60015b6111b257816040517f97aa94df0000000000000000000000000000000000000000000000000000000081526004016111a9919061472b565b60405180910390fd5b80602001519150506111c4565b809150505b919050565b60008060036000858152602001908152602001600020836040516111ed9190615947565b908152602001604051809103902080546112069061598d565b905011905092915050565b6060600260007f885cb69240a935d632d79c317109709ecfa91a80626ff3989d68f67f5b1dd12d60001c73ffffffffffffffffffffffffffffffffffffffff16633408e4706040518163ffffffff1660e01b8152600401602060405180830381865afa158015611285573d6000803e3d6000fd5b505050506040513d601f19601f820116820180604052508101906112a99190615faa565b815260200190815260200160002080546112c29061598d565b80601f01602080910402602001604051908101604052809291908181526020018280546112ee9061598d565b801561133b5780601f106113105761010080835404028352916020019161133b565b820191906000526020600020905b81548152906001019060200180831161131e57829003601f168201915b5050505050905090565b6000604051806040016040528060078081111561136557611364614bd7565b5b815260200160001515815250905061137e8484836132e0565b8160405160200161138f9190616140565b60405160208183030381529060405260036000868152602001908152602001600020846040516113bf9190615947565b908152602001604051809103902090816113d99190615b6a565b50600560009054906101000a900460ff16156114c3576114c2846114128360000151600781111561140d5761140c614bd7565b5b613446565b856114bd7f885cb69240a935d632d79c317109709ecfa91a80626ff3989d68f67f5b1dd12d60001c73ffffffffffffffffffffffffffffffffffffffff166371aad10d886040518263ffffffff1660e01b81526004016114729190616140565b600060405180830381865afa15801561148f573d6000803e3d6000fd5b505050506040513d6000823e3d601f19601f820116820180604052508101906114b89190615cac565b613834565b613764565b5b50505050565b6115657f885cb69240a935d632d79c317109709ecfa91a80626ff3989d68f67f5b1dd12d60001c73ffffffffffffffffffffffffffffffffffffffff16633408e4706040518163ffffffff1660e01b8152600401602060405180830381865afa15801561153a573d6000803e3d6000fd5b505050506040513d601f19601f8201168201806040525081019061155e9190615faa565b83836128ad565b5050565b600060405180604001604052806002600781111561158a57611589614bd7565b5b81526020016000151581525090506115a38484836132e0565b816040516020016115b49190616171565b60405160208183030381529060405260036000868152602001908152602001600020846040516115e49190615947565b908152602001604051809103902090816115fe9190615b6a565b50600560009054906101000a900460ff16156116e8576116e7846116378360000151600781111561163257611631614bd7565b5b613446565b856116e27f885cb69240a935d632d79c317109709ecfa91a80626ff3989d68f67f5b1dd12d60001c73ffffffffffffffffffffffffffffffffffffffff166356ca623e886040518263ffffffff1660e01b81526004016116979190616171565b600060405180830381865afa1580156116b4573d6000803e3d6000fd5b505050506040513d6000823e3d601f19601f820116820180604052508101906116dd9190615cac565b613834565b613764565b5b50505050565b600060405180604001604052806002600781111561170f5761170e614bd7565b5b81526020016001151581525090506117288484836132e0565b81604051602001611739919061624a565b60405160208183030381529060405260036000868152602001908152602001600020846040516117699190615947565b908152602001604051809103902090816117839190615b6a565b50600560009054906101000a900460ff16156119605760006040518060400160405280600181526020017f5b00000000000000000000000000000000000000000000000000000000000000815250905060005b835181101561191157816118a47f885cb69240a935d632d79c317109709ecfa91a80626ff3989d68f67f5b1dd12d60001c73ffffffffffffffffffffffffffffffffffffffff166356ca623e87858151811061183557611834615dd5565b5b60200260200101516040518263ffffffff1660e01b81526004016118599190616171565b600060405180830381865afa158015611876573d6000803e3d6000fd5b505050506040513d6000823e3d601f19601f8201168201806040525081019061189f9190615cac565b613834565b6040516020016118b5929190615e2e565b6040516020818303038152906040529150600184516118d49190615e81565b8110156118fe57816040516020016118ec9190615edb565b60405160208183030381529060405291505b808061190990615f01565b9150506117d6565b50806040516020016119239190615f6f565b604051602081830303815290604052905061195e856119578460000151600781111561195257611951614bd7565b5b613446565b8684613764565b505b50505050565b600060405180604001604052806006600781111561198757611986614bd7565b5b81526020016000151581525090506119a08484836132e0565b816040516020016119b1919061472b565b60405160208183030381529060405260036000868152602001908152602001600020846040516119e19190615947565b908152602001604051809103902090816119fb9190615b6a565b50600560009054906101000a900460ff1615611a4457611a4384611a3483600001516007811115611a2f57611a2e614bd7565b5b613446565b85611a3e86613834565b613764565b5b50505050565b611a52613e7b565b611aed7f885cb69240a935d632d79c317109709ecfa91a80626ff3989d68f67f5b1dd12d60001c73ffffffffffffffffffffffffffffffffffffffff16633408e4706040518163ffffffff1660e01b8152600401602060405180830381865afa158015611ac3573d6000803e3d6000fd5b505050506040513d601f19601f82011682018060405250810190611ae79190615faa565b83611c39565b9050919050565b611b907f885cb69240a935d632d79c317109709ecfa91a80626ff3989d68f67f5b1dd12d60001c73ffffffffffffffffffffffffffffffffffffffff16633408e4706040518163ffffffff1660e01b8152600401602060405180830381865afa158015611b65573d6000803e3d6000fd5b505050506040513d601f19601f82011682018060405250810190611b899190615faa565b8383612b80565b5050565b6060600260008381526020019081526020016000208054611bb49061598d565b80601f0160208091040260200160405190810160405280929190818152602001828054611be09061598d565b8015611c2d5780601f10611c0257610100808354040283529160200191611c2d565b820191906000526020600020905b815481529060010190602001808311611c1057829003601f168201915b50505050509050919050565b611c41613e7b565b60405180604001604052806004600086815260200190815260200160002084604051611c6d9190615947565b90815260200160405180910390206040518060400160405290816000820160009054906101000a900460ff166007811115611cab57611caa614bd7565b5b6007811115611cbd57611cbc614bd7565b5b81526020016000820160019054906101000a900460ff16151515158152505081526020016003600086815260200190815260200160002084604051611d029190615947565b90815260200160405180910390208054611d1b9061598d565b80601f0160208091040260200160405190810160405280929190818152602001828054611d479061598d565b8015611d945780601f10611d6957610100808354040283529160200191611d94565b820191906000526020600020905b815481529060010190602001808311611d7757829003601f168201915b5050505050815250905092915050565b611e407f885cb69240a935d632d79c317109709ecfa91a80626ff3989d68f67f5b1dd12d60001c73ffffffffffffffffffffffffffffffffffffffff16633408e4706040518163ffffffff1660e01b8152600401602060405180830381865afa158015611e15573d6000803e3d6000fd5b505050506040513d601f19601f82011682018060405250810190611e399190615faa565b83836116ee565b5050565b611ee07f885cb69240a935d632d79c317109709ecfa91a80626ff3989d68f67f5b1dd12d60001c73ffffffffffffffffffffffffffffffffffffffff16633408e4706040518163ffffffff1660e01b8152600401602060405180830381865afa158015611eb5573d6000803e3d6000fd5b505050506040513d601f19601f82011682018060405250810190611ed99190615faa565b8383610c39565b5050565b6000604051806040016040528060056007811115611f0557611f04614bd7565b5b8152602001600115158152509050611f1e8484836132e0565b81604051602001611f2f919061632a565b6040516020818303038152906040526003600086815260200190815260200160002084604051611f5f9190615947565b90815260200160405180910390209081611f799190615b6a565b50600560009054906101000a900460ff161561214e5760006040518060400160405280600181526020017f5b00000000000000000000000000000000000000000000000000000000000000815250905060005b83518110156120ff57817f885cb69240a935d632d79c317109709ecfa91a80626ff3989d68f67f5b1dd12d60001c73ffffffffffffffffffffffffffffffffffffffff1663a322c40e86848151811061202857612027615dd5565b5b60200260200101516040518263ffffffff1660e01b815260040161204c91906158f0565b600060405180830381865afa158015612069573d6000803e3d6000fd5b505050506040513d6000823e3d601f19601f820116820180604052508101906120929190615cac565b6040516020016120a3929190615e2e565b6040516020818303038152906040529150600184516120c29190615e81565b8110156120ec57816040516020016120da9190615edb565b60405160208183030381529060405291505b80806120f790615f01565b915050611fcc565b50806040516020016121119190615f6f565b604051602081830303815290604052905061214c85612145846000015160078111156121405761213f614bd7565b5b613446565b8684613764565b505b50505050565b6000604051806040016040528060078081111561217457612173614bd7565b5b815260200160011515815250905061218d8484836132e0565b8160405160200161219e919061640e565b60405160208183030381529060405260036000868152602001908152602001600020846040516121ce9190615947565b908152602001604051809103902090816121e89190615b6a565b50600560009054906101000a900460ff16156123c55760006040518060400160405280600181526020017f5b00000000000000000000000000000000000000000000000000000000000000815250905060005b835181101561237657816123097f885cb69240a935d632d79c317109709ecfa91a80626ff3989d68f67f5b1dd12d60001c73ffffffffffffffffffffffffffffffffffffffff166371aad10d87858151811061229a57612299615dd5565b5b60200260200101516040518263ffffffff1660e01b81526004016122be9190616140565b600060405180830381865afa1580156122db573d6000803e3d6000fd5b505050506040513d6000823e3d601f19601f820116820180604052508101906123049190615cac565b613834565b60405160200161231a929190615e2e565b6040516020818303038152906040529150600184516123399190615e81565b81101561236357816040516020016123519190615edb565b60405160208183030381529060405291505b808061236e90615f01565b91505061223b565b50806040516020016123889190615f6f565b60405160208183030381529060405290506123c3856123bc846000015160078111156123b7576123b6614bd7565b5b613446565b8684613764565b505b50505050565b6124677f885cb69240a935d632d79c317109709ecfa91a80626ff3989d68f67f5b1dd12d60001c73ffffffffffffffffffffffffffffffffffffffff16633408e4706040518163ffffffff1660e01b8152600401602060405180830381865afa15801561243c573d6000803e3d6000fd5b505050506040513d601f19601f820116820180604052508101906124609190615faa565b8383611569565b5050565b600060405180604001604052806001600781111561248c5761248b614bd7565b5b81526020016000151581525090506124a58484836132e0565b816040516020016124b6919061443a565b60405160208183030381529060405260036000868152602001908152602001600020846040516124e69190615947565b908152602001604051809103902090816125009190615b6a565b50600560009054906101000a900460ff16156125e2576125e1846125398360000151600781111561253457612533614bd7565b5b613446565b857f885cb69240a935d632d79c317109709ecfa91a80626ff3989d68f67f5b1dd12d60001c73ffffffffffffffffffffffffffffffffffffffff166371dce7da876040518263ffffffff1660e01b8152600401612596919061443a565b600060405180830381865afa1580156125b3573d6000803e3d6000fd5b505050506040513d6000823e3d601f19601f820116820180604052508101906125dc9190615cac565b613764565b5b50505050565b6126847f885cb69240a935d632d79c317109709ecfa91a80626ff3989d68f67f5b1dd12d60001c73ffffffffffffffffffffffffffffffffffffffff16633408e4706040518163ffffffff1660e01b8152600401602060405180830381865afa158015612659573d6000803e3d6000fd5b505050506040513d601f19601f8201168201806040525081019061267d9190615faa565b838361246b565b5050565b6127247f885cb69240a935d632d79c317109709ecfa91a80626ff3989d68f67f5b1dd12d60001c73ffffffffffffffffffffffffffffffffffffffff16633408e4706040518163ffffffff1660e01b8152600401602060405180830381865afa1580156126f9573d6000803e3d6000fd5b505050506040513d601f19601f8201168201806040525081019061271d9190615faa565b8383612154565b5050565b600060405180604001604052806003600781111561274957612748614bd7565b5b81526020016000151581525090506127628484836132e0565b816040516020016127739190615e13565b60405160208183030381529060405260036000868152602001908152602001600020846040516127a39190615947565b908152602001604051809103902090816127bd9190615b6a565b50600560009054906101000a900460ff16156128a7576128a6846127f6836000015160078111156127f1576127f0614bd7565b5b613446565b856128a17f885cb69240a935d632d79c317109709ecfa91a80626ff3989d68f67f5b1dd12d60001c73ffffffffffffffffffffffffffffffffffffffff1663b11a19e8886040518263ffffffff1660e01b81526004016128569190615e13565b600060405180830381865afa158015612873573d6000803e3d6000fd5b505050506040513d6000823e3d601f19601f8201168201806040525081019061289c9190615cac565b613834565b613764565b5b50505050565b60006040518060400160405280600660078111156128ce576128cd614bd7565b5b81526020016001151581525090506128e78484836132e0565b816040516020016128f8919061653c565b60405160208183030381529060405260036000868152602001908152602001600020846040516129289190615947565b908152602001604051809103902090816129429190615b6a565b50600560009054906101000a900460ff1615612a7e5760006040518060400160405280600181526020017f5b00000000000000000000000000000000000000000000000000000000000000815250905060005b8351811015612a2f57816129c28583815181106129b5576129b4615dd5565b5b6020026020010151613834565b6040516020016129d3929190615e2e565b6040516020818303038152906040529150600184516129f29190615e81565b811015612a1c5781604051602001612a0a9190615edb565b60405160208183030381529060405291505b8080612a2790615f01565b915050612995565b5080604051602001612a419190615f6f565b6040516020818303038152906040529050612a7c85612a7584600001516007811115612a7057612a6f614bd7565b5b613446565b8684613764565b505b50505050565b808015612b2c57507f885cb69240a935d632d79c317109709ecfa91a80626ff3989d68f67f5b1dd12d60001c73ffffffffffffffffffffffffffffffffffffffff166364af255d60046040518263ffffffff1660e01b8152600401612ae991906165a6565b602060405180830381865afa158015612b06573d6000803e3d6000fd5b505050506040513d601f19601f82011682018060405250810190612b2a91906165d6565b155b15612b63576040517f2ebcd21800000000000000000000000000000000000000000000000000000000815260040160405180910390fd5b80600560006101000a81548160ff02191690831515021790555050565b6000604051806040016040528060046007811115612ba157612ba0614bd7565b5b8152602001600115158152509050612bba8484836132e0565b81604051602001612bcb9190614345565b6040516020818303038152906040526003600086815260200190815260200160002084604051612bfb9190615947565b90815260200160405180910390209081612c159190615b6a565b50600560009054906101000a900460ff1615612dea5760006040518060400160405280600181526020017f5b00000000000000000000000000000000000000000000000000000000000000815250905060005b8351811015612d9b57817f885cb69240a935d632d79c317109709ecfa91a80626ff3989d68f67f5b1dd12d60001c73ffffffffffffffffffffffffffffffffffffffff16636900a3ae868481518110612cc457612cc3615dd5565b5b60200260200101516040518263ffffffff1660e01b8152600401612ce89190614635565b600060405180830381865afa158015612d05573d6000803e3d6000fd5b505050506040513d6000823e3d601f19601f82011682018060405250810190612d2e9190615cac565b604051602001612d3f929190615e2e565b604051602081830303815290604052915060018451612d5e9190615e81565b811015612d885781604051602001612d769190615edb565b60405160208183030381529060405291505b8080612d9390615f01565b915050612c68565b5080604051602001612dad9190615f6f565b6040516020818303038152906040529050612de885612de184600001516007811115612ddc57612ddb614bd7565b5b613446565b8684613764565b505b50505050565b612e8c7f885cb69240a935d632d79c317109709ecfa91a80626ff3989d68f67f5b1dd12d60001c73ffffffffffffffffffffffffffffffffffffffff16633408e4706040518163ffffffff1660e01b8152600401602060405180830381865afa158015612e61573d6000803e3d6000fd5b505050506040513d601f19601f82011682018060405250810190612e859190615faa565b8383611ee4565b5050565b6000604051806040016040528060016007811115612eb157612eb0614bd7565b5b8152602001600115158152509050612eca8484836132e0565b81604051602001612edb91906166b2565b6040516020818303038152906040526003600086815260200190815260200160002084604051612f0b9190615947565b90815260200160405180910390209081612f259190615b6a565b50600560009054906101000a900460ff16156130fa5760006040518060400160405280600181526020017f5b00000000000000000000000000000000000000000000000000000000000000815250905060005b83518110156130ab57817f885cb69240a935d632d79c317109709ecfa91a80626ff3989d68f67f5b1dd12d60001c73ffffffffffffffffffffffffffffffffffffffff166371dce7da868481518110612fd457612fd3615dd5565b5b60200260200101516040518263ffffffff1660e01b8152600401612ff8919061443a565b600060405180830381865afa158015613015573d6000803e3d6000fd5b505050506040513d6000823e3d601f19601f8201168201806040525081019061303e9190615cac565b60405160200161304f929190615e2e565b60405160208183030381529060405291506001845161306e9190615e81565b81101561309857816040516020016130869190615edb565b60405160208183030381529060405291505b80806130a390615f01565b915050612f78565b50806040516020016130bd9190615f6f565b60405160208183030381529060405290506130f8856130f1846000015160078111156130ec576130eb614bd7565b5b613446565b8684613764565b505b50505050565b61319c7f885cb69240a935d632d79c317109709ecfa91a80626ff3989d68f67f5b1dd12d60001c73ffffffffffffffffffffffffffffffffffffffff16633408e4706040518163ffffffff1660e01b8152600401602060405180830381865afa158015613171573d6000803e3d6000fd5b505050506040513d601f19601f820116820180604052508101906131959190615faa565b8383610831565b5050565b61323c7f885cb69240a935d632d79c317109709ecfa91a80626ff3989d68f67f5b1dd12d60001c73ffffffffffffffffffffffffffffffffffffffff16633408e4706040518163ffffffff1660e01b8152600401602060405180830381865afa158015613211573d6000803e3d6000fd5b505050506040513d601f19601f820116820180604052508101906132359190615faa565b8383611966565b5050565b6132dc7f885cb69240a935d632d79c317109709ecfa91a80626ff3989d68f67f5b1dd12d60001c73ffffffffffffffffffffffffffffffffffffffff16633408e4706040518163ffffffff1660e01b8152600401602060405180830381865afa1580156132b1573d6000803e3d6000fd5b505050506040513d601f19601f820116820180604052508101906132d59190615faa565b8383612e90565b5050565b600060046000858152602001908152602001600020836040516133039190615947565b90815260200160405180910390206040518060400160405290816000820160009054906101000a900460ff16600781111561334157613340614bd7565b5b600781111561335357613352614bd7565b5b81526020016000820160019054906101000a900460ff16151515158152505090506000600781111561338857613387614bd7565b5b8160000151600781111561339f5761339e614bd7565b5b0361342c578160046000868152602001908152602001600020846040516133c69190615947565b908152602001604051809103902060008201518160000160006101000a81548160ff021916908360078111156133ff576133fe614bd7565b5b021790555060208201518160000160016101000a81548160ff021916908315150217905550905050613440565b61343f828261385d90919063ffffffff16565b5b50505050565b60606001600781111561345c5761345b614bd7565b5b82600781111561346f5761346e614bd7565b5b036134b1576040518060400160405280600481526020017f626f6f6c00000000000000000000000000000000000000000000000000000000815250905061375f565b600260078111156134c5576134c4614bd7565b5b8260078111156134d8576134d7614bd7565b5b0361351a576040518060400160405280600781526020017f6164647265737300000000000000000000000000000000000000000000000000815250905061375f565b6003600781111561352e5761352d614bd7565b5b82600781111561354157613540614bd7565b5b03613583576040518060400160405280600781526020017f6279746573333200000000000000000000000000000000000000000000000000815250905061375f565b6004600781111561359757613596614bd7565b5b8260078111156135aa576135a9614bd7565b5b036135ec576040518060400160405280600481526020017f75696e7400000000000000000000000000000000000000000000000000000000815250905061375f565b60056007811115613600576135ff614bd7565b5b82600781111561361357613612614bd7565b5b03613655576040518060400160405280600381526020017f696e740000000000000000000000000000000000000000000000000000000000815250905061375f565b6006600781111561366957613668614bd7565b5b82600781111561367c5761367b614bd7565b5b036136be576040518060400160405280600681526020017f737472696e670000000000000000000000000000000000000000000000000000815250905061375f565b6007808111156136d1576136d0614bd7565b5b8260078111156136e4576136e3614bd7565b5b03613726576040518060400160405280600581526020017f6279746573000000000000000000000000000000000000000000000000000000815250905061375f565b6040518060400160405280600481526020017f6e6f6e650000000000000000000000000000000000000000000000000000000081525090505b919050565b600061376f856138be565b9050600081858560405160200161378893929190616720565b60405160208183030381529060405290507f885cb69240a935d632d79c317109709ecfa91a80626ff3989d68f67f5b1dd12d60001c73ffffffffffffffffffffffffffffffffffffffff166351ac6a33846000846040518463ffffffff1660e01b81526004016137fa93929190616817565b600060405180830381600087803b15801561381457600080fd5b505af1158015613828573d6000803e3d6000fd5b50505050505050505050565b6060816040516020016138479190616889565b6040516020818303038152906040529050919050565b6138678282613a8a565b6138ba5761387481613ada565b61387d83613ada565b6040517fb02cf71d0000000000000000000000000000000000000000000000000000000081526004016138b19291906168be565b60405180910390fd5b5050565b606060005b600180549050811015613a475782613980600183815481106138e8576138e7615dd5565b5b9060005260206000200180546138fd9061598d565b80601f01602080910402602001604051908101604052809291908181526020018280546139299061598d565b80156139765780601f1061394b57610100808354040283529160200191613976565b820191906000526020600020905b81548152906001019060200180831161395957829003601f168201915b505050505061103a565b03613a34576001818154811061399957613998615dd5565b5b9060005260206000200180546139ae9061598d565b80601f01602080910402602001604051908101604052809291908181526020018280546139da9061598d565b8015613a275780601f106139fc57610100808354040283529160200191613a27565b820191906000526020600020905b815481529060010190602001808311613a0a57829003601f168201915b5050505050915050613a85565b8080613a3f90615f01565b9150506138c3565b50816040517f3ff29f06000000000000000000000000000000000000000000000000000000008152600401613a7c9190614635565b60405180910390fd5b919050565b600081600001516007811115613aa357613aa2614bd7565b5b83600001516007811115613aba57613ab9614bd7565b5b148015613ad257508160200151151583602001511515145b905092915050565b60606000613aeb8360000151613b5d565b905082602001511580613b26575060006007811115613b0d57613b0c614bd7565b5b83600001516007811115613b2457613b23614bd7565b5b145b15613b345780915050613b58565b80604051602001613b45919061691b565b6040516020818303038152906040529150505b919050565b606060016007811115613b7357613b72614bd7565b5b826007811115613b8657613b85614bd7565b5b03613bc8576040518060400160405280600481526020017f626f6f6c000000000000000000000000000000000000000000000000000000008152509050613e76565b60026007811115613bdc57613bdb614bd7565b5b826007811115613bef57613bee614bd7565b5b03613c31576040518060400160405280600781526020017f61646472657373000000000000000000000000000000000000000000000000008152509050613e76565b60036007811115613c4557613c44614bd7565b5b826007811115613c5857613c57614bd7565b5b03613c9a576040518060400160405280600781526020017f62797465733332000000000000000000000000000000000000000000000000008152509050613e76565b60046007811115613cae57613cad614bd7565b5b826007811115613cc157613cc0614bd7565b5b03613d03576040518060400160405280600781526020017f75696e74323536000000000000000000000000000000000000000000000000008152509050613e76565b60056007811115613d1757613d16614bd7565b5b826007811115613d2a57613d29614bd7565b5b03613d6c576040518060400160405280600681526020017f696e7432353600000000000000000000000000000000000000000000000000008152509050613e76565b60066007811115613d8057613d7f614bd7565b5b826007811115613d9357613d92614bd7565b5b03613dd5576040518060400160405280600681526020017f737472696e6700000000000000000000000000000000000000000000000000008152509050613e76565b600780811115613de857613de7614bd7565b5b826007811115613dfb57613dfa614bd7565b5b03613e3d576040518060400160405280600581526020017f62797465730000000000000000000000000000000000000000000000000000008152509050613e76565b6040518060400160405280600481526020017f6e6f6e650000000000000000000000000000000000000000000000000000000081525090505b919050565b6040518060400160405280613e8e613e9b565b8152602001606081525090565b604051806040016040528060006007811115613eba57613eb9614bd7565b5b81526020016000151581525090565b6000604051905090565b600080fd5b600080fd5b6000819050919050565b613ef081613edd565b8114613efb57600080fd5b50565b600081359050613f0d81613ee7565b92915050565b600080fd5b600080fd5b6000601f19601f8301169050919050565b7f4e487b7100000000000000000000000000000000000000000000000000000000600052604160045260246000fd5b613f6682613f1d565b810181811067ffffffffffffffff82111715613f8557613f84613f2e565b5b80604052505050565b6000613f98613ec9565b9050613fa48282613f5d565b919050565b600067ffffffffffffffff821115613fc457613fc3613f2e565b5b613fcd82613f1d565b9050602081019050919050565b82818337600083830152505050565b6000613ffc613ff784613fa9565b613f8e565b90508281526020810184848401111561401857614017613f18565b5b614023848285613fda565b509392505050565b600082601f8301126140405761403f613f13565b5b8135614050848260208601613fe9565b91505092915050565b6000819050919050565b61406c81614059565b811461407757600080fd5b50565b60008135905061408981614063565b92915050565b6000806000606084860312156140a8576140a7613ed3565b5b60006140b686828701613efe565b935050602084013567ffffffffffffffff8111156140d7576140d6613ed8565b5b6140e38682870161402b565b92505060406140f48682870161407a565b9150509250925092565b600067ffffffffffffffff82111561411957614118613f2e565b5b602082029050602081019050919050565b600080fd5b6000819050919050565b6141428161412f565b811461414d57600080fd5b50565b60008135905061415f81614139565b92915050565b6000614178614173846140fe565b613f8e565b9050808382526020820190506020840283018581111561419b5761419a61412a565b5b835b818110156141c457806141b08882614150565b84526020840193505060208101905061419d565b5050509392505050565b600082601f8301126141e3576141e2613f13565b5b81356141f3848260208601614165565b91505092915050565b60008060006060848603121561421557614214613ed3565b5b600061422386828701613efe565b935050602084013567ffffffffffffffff81111561424457614243613ed8565b5b6142508682870161402b565b925050604084013567ffffffffffffffff81111561427157614270613ed8565b5b61427d868287016141ce565b9150509250925092565b600081519050919050565b600082825260208201905092915050565b6000819050602082019050919050565b6142bc81613edd565b82525050565b60006142ce83836142b3565b60208301905092915050565b6000602082019050919050565b60006142f282614287565b6142fc8185614292565b9350614307836142a3565b8060005b8381101561433857815161431f88826142c2565b975061432a836142da565b92505060018101905061430b565b5085935050505092915050565b6000602082019050818103600083015261435f81846142e7565b905092915050565b6000806000606084860312156143805761437f613ed3565b5b600061438e86828701613efe565b935050602084013567ffffffffffffffff8111156143af576143ae613ed8565b5b6143bb8682870161402b565b92505060406143cc86828701613efe565b9150509250925092565b6000602082840312156143ec576143eb613ed3565b5b600082013567ffffffffffffffff81111561440a57614409613ed8565b5b6144168482850161402b565b91505092915050565b60008115159050919050565b6144348161441f565b82525050565b600060208201905061444f600083018461442b565b92915050565b600067ffffffffffffffff8211156144705761446f613f2e565b5b61447982613f1d565b9050602081019050919050565b600061449961449484614455565b613f8e565b9050828152602081018484840111156144b5576144b4613f18565b5b6144c0848285613fda565b509392505050565b600082601f8301126144dd576144dc613f13565b5b81356144ed848260208601614486565b91505092915050565b6000806040838503121561450d5761450c613ed3565b5b600083013567ffffffffffffffff81111561452b5761452a613ed8565b5b6145378582860161402b565b925050602083013567ffffffffffffffff81111561455857614557613ed8565b5b614564858286016144c8565b9150509250929050565b6000806040838503121561458557614584613ed3565b5b600083013567ffffffffffffffff8111156145a3576145a2613ed8565b5b6145af8582860161402b565b92505060206145c085828601614150565b9150509250929050565b600080604083850312156145e1576145e0613ed3565b5b600083013567ffffffffffffffff8111156145ff576145fe613ed8565b5b61460b8582860161402b565b925050602061461c8582860161407a565b9150509250929050565b61462f81613edd565b82525050565b600060208201905061464a6000830184614626565b92915050565b6000806040838503121561466757614666613ed3565b5b600061467585828601613efe565b925050602083013567ffffffffffffffff81111561469657614695613ed8565b5b6146a28582860161402b565b9150509250929050565b600081519050919050565b600082825260208201905092915050565b60005b838110156146e65780820151818401526020810190506146cb565b60008484015250505050565b60006146fd826146ac565b61470781856146b7565b93506147178185602086016146c8565b61472081613f1d565b840191505092915050565b6000602082019050818103600083015261474581846146f2565b905092915050565b60008060006060848603121561476657614765613ed3565b5b600061477486828701613efe565b935050602084013567ffffffffffffffff81111561479557614794613ed8565b5b6147a18682870161402b565b925050604084013567ffffffffffffffff8111156147c2576147c1613ed8565b5b6147ce868287016144c8565b9150509250925092565b600067ffffffffffffffff8211156147f3576147f2613f2e565b5b602082029050602081019050919050565b6000614817614812846147d8565b613f8e565b9050808382526020820190506020840283018581111561483a5761483961412a565b5b835b8181101561488157803567ffffffffffffffff81111561485f5761485e613f13565b5b80860161486c898261402b565b8552602085019450505060208101905061483c565b5050509392505050565b600082601f8301126148a05761489f613f13565b5b81356148b0848260208601614804565b91505092915050565b600080604083850312156148d0576148cf613ed3565b5b600083013567ffffffffffffffff8111156148ee576148ed613ed8565b5b6148fa8582860161402b565b925050602083013567ffffffffffffffff81111561491b5761491a613ed8565b5b6149278582860161488b565b9150509250929050565b600073ffffffffffffffffffffffffffffffffffffffff82169050919050565b600061495c82614931565b9050919050565b61496c81614951565b811461497757600080fd5b50565b60008135905061498981614963565b92915050565b6000806000606084860312156149a8576149a7613ed3565b5b60006149b686828701613efe565b935050602084013567ffffffffffffffff8111156149d7576149d6613ed8565b5b6149e38682870161402b565b92505060406149f48682870161497a565b9150509250925092565b600067ffffffffffffffff821115614a1957614a18613f2e565b5b602082029050602081019050919050565b6000614a3d614a38846149fe565b613f8e565b90508083825260208201905060208402830185811115614a6057614a5f61412a565b5b835b81811015614a895780614a75888261497a565b845260208401935050602081019050614a62565b5050509392505050565b600082601f830112614aa857614aa7613f13565b5b8135614ab8848260208601614a2a565b91505092915050565b600080600060608486031215614ada57614ad9613ed3565b5b6000614ae886828701613efe565b935050602084013567ffffffffffffffff811115614b0957614b08613ed8565b5b614b158682870161402b565b925050604084013567ffffffffffffffff811115614b3657614b35613ed8565b5b614b4286828701614a93565b9150509250925092565b600080600060608486031215614b6557614b64613ed3565b5b6000614b7386828701613efe565b935050602084013567ffffffffffffffff811115614b9457614b93613ed8565b5b614ba08682870161402b565b925050604084013567ffffffffffffffff811115614bc157614bc0613ed8565b5b614bcd8682870161402b565b9150509250925092565b7f4e487b7100000000000000000000000000000000000000000000000000000000600052602160045260246000fd5b60088110614c1757614c16614bd7565b5b50565b6000819050614c2882614c06565b919050565b6000614c3882614c1a565b9050919050565b614c4881614c2d565b82525050565b614c578161441f565b82525050565b604082016000820151614c736000850182614c3f565b506020820151614c866020850182614c4e565b50505050565b600081519050919050565b600082825260208201905092915050565b6000614cb382614c8c565b614cbd8185614c97565b9350614ccd8185602086016146c8565b614cd681613f1d565b840191505092915050565b6000606083016000830151614cf96000860182614c5d565b5060208301518482036040860152614d118282614ca8565b9150508091505092915050565b60006020820190508181036000830152614d388184614ce1565b905092915050565b600067ffffffffffffffff821115614d5b57614d5a613f2e565b5b602082029050602081019050919050565b6000614d7f614d7a84614d40565b613f8e565b90508083825260208201905060208402830185811115614da257614da161412a565b5b835b81811015614dcb5780614db78882613efe565b845260208401935050602081019050614da4565b5050509392505050565b600082601f830112614dea57614de9613f13565b5b8135614dfa848260208601614d6c565b91505092915050565b60008060408385031215614e1a57614e19613ed3565b5b600083013567ffffffffffffffff811115614e3857614e37613ed8565b5b614e448582860161402b565b925050602083013567ffffffffffffffff811115614e6557614e64613ed8565b5b614e7185828601614dd5565b9150509250929050565b600060208284031215614e9157614e90613ed3565b5b6000614e9f84828501613efe565b91505092915050565b60008060408385031215614ebf57614ebe613ed3565b5b600083013567ffffffffffffffff811115614edd57614edc613ed8565b5b614ee98582860161402b565b925050602083013567ffffffffffffffff811115614f0a57614f09613ed8565b5b614f1685828601614a93565b9150509250929050565b60008060408385031215614f3757614f36613ed3565b5b600083013567ffffffffffffffff811115614f5557614f54613ed8565b5b614f618582860161402b565b9250506020614f7285828601613efe565b9150509250929050565b600067ffffffffffffffff821115614f9757614f96613f2e565b5b602082029050602081019050919050565b6000614fbb614fb684614f7c565b613f8e565b90508083825260208201905060208402830185811115614fde57614fdd61412a565b5b835b818110156150075780614ff3888261407a565b845260208401935050602081019050614fe0565b5050509392505050565b600082601f83011261502657615025613f13565b5b8135615036848260208601614fa8565b91505092915050565b60008060006060848603121561505857615057613ed3565b5b600061506686828701613efe565b935050602084013567ffffffffffffffff81111561508757615086613ed8565b5b6150938682870161402b565b925050604084013567ffffffffffffffff8111156150b4576150b3613ed8565b5b6150c086828701615011565b9150509250925092565b600067ffffffffffffffff8211156150e5576150e4613f2e565b5b602082029050602081019050919050565b6000615109615104846150ca565b613f8e565b9050808382526020820190506020840283018581111561512c5761512b61412a565b5b835b8181101561517357803567ffffffffffffffff81111561515157615150613f13565b5b80860161515e89826144c8565b8552602085019450505060208101905061512e565b5050509392505050565b600082601f83011261519257615191613f13565b5b81356151a28482602086016150f6565b91505092915050565b6000806000606084860312156151c4576151c3613ed3565b5b60006151d286828701613efe565b935050602084013567ffffffffffffffff8111156151f3576151f2613ed8565b5b6151ff8682870161402b565b925050604084013567ffffffffffffffff8111156152205761521f613ed8565b5b61522c8682870161517d565b9150509250925092565b6000806040838503121561524d5761524c613ed3565b5b600083013567ffffffffffffffff81111561526b5761526a613ed8565b5b6152778582860161402b565b92505060206152888582860161497a565b9150509250929050565b61529b8161441f565b81146152a657600080fd5b50565b6000813590506152b881615292565b92915050565b6000806000606084860312156152d7576152d6613ed3565b5b60006152e586828701613efe565b935050602084013567ffffffffffffffff81111561530657615305613ed8565b5b6153128682870161402b565b9250506040615323868287016152a9565b9150509250925092565b6000806040838503121561534457615343613ed3565b5b600083013567ffffffffffffffff81111561536257615361613ed8565b5b61536e8582860161402b565b925050602061537f858286016152a9565b9150509250929050565b600080604083850312156153a05761539f613ed3565b5b600083013567ffffffffffffffff8111156153be576153bd613ed8565b5b6153ca8582860161402b565b925050602083013567ffffffffffffffff8111156153eb576153ea613ed8565b5b6153f78582860161517d565b9150509250929050565b60008060006060848603121561541a57615419613ed3565b5b600061542886828701613efe565b935050602084013567ffffffffffffffff81111561544957615448613ed8565b5b6154558682870161402b565b925050604061546686828701614150565b9150509250925092565b60008060006060848603121561548957615488613ed3565b5b600061549786828701613efe565b935050602084013567ffffffffffffffff8111156154b8576154b7613ed8565b5b6154c48682870161402b565b925050604084013567ffffffffffffffff8111156154e5576154e4613ed8565b5b6154f18682870161488b565b9150509250925092565b60006020828403121561551157615510613ed3565b5b600061551f848285016152a9565b91505092915050565b60008060006060848603121561554157615540613ed3565b5b600061554f86828701613efe565b935050602084013567ffffffffffffffff8111156155705761556f613ed8565b5b61557c8682870161402b565b925050604084013567ffffffffffffffff81111561559d5761559c613ed8565b5b6155a986828701614dd5565b9150509250925092565b600080604083850312156155ca576155c9613ed3565b5b600083013567ffffffffffffffff8111156155e8576155e7613ed8565b5b6155f48582860161402b565b925050602083013567ffffffffffffffff81111561561557615614613ed8565b5b61562185828601615011565b9150509250929050565b600067ffffffffffffffff82111561564657615645613f2e565b5b602082029050602081019050919050565b600061566a6156658461562b565b613f8e565b9050808382526020820190506020840283018581111561568d5761568c61412a565b5b835b818110156156b657806156a288826152a9565b84526020840193505060208101905061568f565b5050509392505050565b600082601f8301126156d5576156d4613f13565b5b81356156e5848260208601615657565b91505092915050565b60008060006060848603121561570757615706613ed3565b5b600061571586828701613efe565b935050602084013567ffffffffffffffff81111561573657615735613ed8565b5b6157428682870161402b565b925050604084013567ffffffffffffffff81111561576357615762613ed8565b5b61576f868287016156c0565b9150509250925092565b600080604083850312156157905761578f613ed3565b5b600083013567ffffffffffffffff8111156157ae576157ad613ed8565b5b6157ba8582860161402b565b925050602083013567ffffffffffffffff8111156157db576157da613ed8565b5b6157e7858286016141ce565b9150509250929050565b6000806040838503121561580857615807613ed3565b5b600083013567ffffffffffffffff81111561582657615825613ed8565b5b6158328582860161402b565b925050602083013567ffffffffffffffff81111561585357615852613ed8565b5b61585f8582860161402b565b9150509250929050565b600080604083850312156158805761587f613ed3565b5b600083013567ffffffffffffffff81111561589e5761589d613ed8565b5b6158aa8582860161402b565b925050602083013567ffffffffffffffff8111156158cb576158ca613ed8565b5b6158d7858286016156c0565b9150509250929050565b6158ea81614059565b82525050565b600060208201905061590560008301846158e1565b92915050565b600081905092915050565b6000615921826146ac565b61592b818561590b565b935061593b8185602086016146c8565b80840191505092915050565b60006159538284615916565b915081905092915050565b7f4e487b7100000000000000000000000000000000000000000000000000000000600052602260045260246000fd5b600060028204905060018216806159a557607f821691505b6020821081036159b8576159b761595e565b5b50919050565b60008190508160005260206000209050919050565b60006020601f8301049050919050565b600082821b905092915050565b600060088302615a207fffffffffffffffffffffffffffffffffffffffffffffffffffffffffffffffff826159e3565b615a2a86836159e3565b95508019841693508086168417925050509392505050565b6000819050919050565b6000615a67615a62615a5d84613edd565b615a42565b613edd565b9050919050565b6000819050919050565b615a8183615a4c565b615a95615a8d82615a6e565b8484546159f0565b825550505050565b600090565b615aaa615a9d565b615ab5818484615a78565b505050565b5b81811015615ad957615ace600082615aa2565b600181019050615abb565b5050565b601f821115615b1e57615aef816159be565b615af8846159d3565b81016020851015615b07578190505b615b1b615b13856159d3565b830182615aba565b50505b505050565b600082821c905092915050565b6000615b4160001984600802615b23565b1980831691505092915050565b6000615b5a8383615b30565b9150826002028217905092915050565b615b7382614c8c565b67ffffffffffffffff811115615b8c57615b8b613f2e565b5b615b96825461598d565b615ba1828285615add565b600060209050601f831160018114615bd45760008415615bc2578287015190505b615bcc8582615b4e565b865550615c34565b601f198416615be2866159be565b60005b82811015615c0a57848901518255600182019150602085019450602081019050615be5565b86831015615c275784890151615c23601f891682615b30565b8355505b6001600288020188555050505b505050505050565b6000615c4f615c4a84613fa9565b613f8e565b905082815260208101848484011115615c6b57615c6a613f18565b5b615c768482856146c8565b509392505050565b600082601f830112615c9357615c92613f13565b5b8151615ca3848260208601615c3c565b91505092915050565b600060208284031215615cc257615cc1613ed3565b5b600082015167ffffffffffffffff811115615ce057615cdf613ed8565b5b615cec84828501615c7e565b91505092915050565b600081519050919050565b600082825260208201905092915050565b6000819050602082019050919050565b615d2a8161412f565b82525050565b6000615d3c8383615d21565b60208301905092915050565b6000602082019050919050565b6000615d6082615cf5565b615d6a8185615d00565b9350615d7583615d11565b8060005b83811015615da6578151615d8d8882615d30565b9750615d9883615d48565b925050600181019050615d79565b5085935050505092915050565b60006020820190508181036000830152615dcd8184615d55565b905092915050565b7f4e487b7100000000000000000000000000000000000000000000000000000000600052603260045260246000fd5b615e0d8161412f565b82525050565b6000602082019050615e286000830184615e04565b92915050565b6000615e3a8285615916565b9150615e468284615916565b91508190509392505050565b7f4e487b7100000000000000000000000000000000000000000000000000000000600052601160045260246000fd5b6000615e8c82613edd565b9150615e9783613edd565b9250828203905081811115615eaf57615eae615e52565b5b92915050565b7f2c00000000000000000000000000000000000000000000000000000000000000815250565b6000615ee78284615916565b9150615ef282615eb5565b60018201915081905092915050565b6000615f0c82613edd565b91507fffffffffffffffffffffffffffffffffffffffffffffffffffffffffffffffff8203615f3e57615f3d615e52565b5b600182019050919050565b7f5d00000000000000000000000000000000000000000000000000000000000000815250565b6000615f7b8284615916565b9150615f8682615f49565b60018201915081905092915050565b600081519050615fa481613ee7565b92915050565b600060208284031215615fc057615fbf613ed3565b5b6000615fce84828501615f95565b91505092915050565b600080fd5b600080fd5b600060808284031215615ff757615ff6615fd7565b5b6160016080613f8e565b9050600082015167ffffffffffffffff81111561602157616020615fdc565b5b61602d84828501615c7e565b600083015250602061604184828501615f95565b602083015250604082015167ffffffffffffffff81111561606557616064615fdc565b5b61607184828501615c7e565b604083015250606082015167ffffffffffffffff81111561609557616094615fdc565b5b6160a184828501615c7e565b60608301525092915050565b6000602082840312156160c3576160c2613ed3565b5b600082015167ffffffffffffffff8111156160e1576160e0613ed8565b5b6160ed84828501615fe1565b91505092915050565b600082825260208201905092915050565b600061611282614c8c565b61611c81856160f6565b935061612c8185602086016146c8565b61613581613f1d565b840191505092915050565b6000602082019050818103600083015261615a8184616107565b905092915050565b61616b81614951565b82525050565b60006020820190506161866000830184616162565b92915050565b600081519050919050565b600082825260208201905092915050565b6000819050602082019050919050565b6161c181614951565b82525050565b60006161d383836161b8565b60208301905092915050565b6000602082019050919050565b60006161f78261618c565b6162018185616197565b935061620c836161a8565b8060005b8381101561623d57815161622488826161c7565b975061622f836161df565b925050600181019050616210565b5085935050505092915050565b6000602082019050818103600083015261626481846161ec565b905092915050565b600081519050919050565b600082825260208201905092915050565b6000819050602082019050919050565b6162a181614059565b82525050565b60006162b38383616298565b60208301905092915050565b6000602082019050919050565b60006162d78261626c565b6162e18185616277565b93506162ec83616288565b8060005b8381101561631d57815161630488826162a7565b975061630f836162bf565b9250506001810190506162f0565b5085935050505092915050565b6000602082019050818103600083015261634481846162cc565b905092915050565b600081519050919050565b600082825260208201905092915050565b6000819050602082019050919050565b60006163848383614ca8565b905092915050565b6000602082019050919050565b60006163a48261634c565b6163ae8185616357565b9350836020820285016163c085616368565b8060005b858110156163fc57848403895281516163dd8582616378565b94506163e88361638c565b925060208a019950506001810190506163c4565b50829750879550505050505092915050565b600060208201905081810360008301526164288184616399565b905092915050565b600081519050919050565b600082825260208201905092915050565b6000819050602082019050919050565b600082825260208201905092915050565b6000616478826146ac565b616482818561645c565b93506164928185602086016146c8565b61649b81613f1d565b840191505092915050565b60006164b2838361646d565b905092915050565b6000602082019050919050565b60006164d282616430565b6164dc818561643b565b9350836020820285016164ee8561644c565b8060005b8581101561652a578484038952815161650b85826164a6565b9450616516836164ba565b925060208a019950506001810190506164f2565b50829750879550505050505092915050565b6000602082019050818103600083015261655681846164c7565b905092915050565b6009811061656f5761656e614bd7565b5b50565b60008190506165808261655e565b919050565b600061659082616572565b9050919050565b6165a081616585565b82525050565b60006020820190506165bb6000830184616597565b92915050565b6000815190506165d081615292565b92915050565b6000602082840312156165ec576165eb613ed3565b5b60006165fa848285016165c1565b91505092915050565b600081519050919050565b600082825260208201905092915050565b6000819050602082019050919050565b600061663b8383614c4e565b60208301905092915050565b6000602082019050919050565b600061665f82616603565b616669818561660e565b93506166748361661f565b8060005b838110156166a557815161668c888261662f565b975061669783616647565b925050600181019050616678565b5085935050505092915050565b600060208201905081810360008301526166cc8184616654565b905092915050565b7f242e000000000000000000000000000000000000000000000000000000000000815250565b7f2e00000000000000000000000000000000000000000000000000000000000000815250565b600061672b826166d4565b60028201915061673b8286615916565b9150616746826166fa565b6001820191506167568285615916565b9150616761826166fa565b6001820191506167718284615916565b9150819050949350505050565b60008190508160005260206000209050919050565b600081546167a08161598d565b6167aa81866146b7565b945060018216600081146167c557600181146167db5761680e565b60ff19831686528115156020028601935061680e565b6167e48561677e565b60005b83811015616806578154818901526001820191506020810190506167e7565b808801955050505b50505092915050565b6000606082019050818103600083015261683181866146f2565b905081810360208301526168458185616793565b9050818103604083015261685981846146f2565b9050949350505050565b7f2200000000000000000000000000000000000000000000000000000000000000815250565b600061689482616863565b6001820191506168a48284615916565b91506168af82616863565b60018201915081905092915050565b600060408201905081810360008301526168d881856146f2565b905081810360208301526168ec81846146f2565b90509392505050565b7f5b5d000000000000000000000000000000000000000000000000000000000000815250565b60006169278284615916565b9150616932826168f5565b6002820191508190509291505056fea264697066735822122052ee9909c5baeb441d6ca107a99b99552159a0ddca84ac50d91c2267621c475864736f6c63430008130033","linkReferences":{}},"methodIdentifiers":{"exists(string)":"261a323e","exists(uint256,string)":"43d9eb7b","get(string)":"693ec85e","get(uint256,string)":"805da4ad","getChainIds()":"1d776323","getRpcUrl()":"43ec8b6a","getRpcUrl(uint256)":"7df3ef12","resolveChainId(string)":"3f3a7588","set(string,address)":"a815ff15","set(string,address[])":"88c63d45","set(string,bool)":"ba0ff22c","set(string,bool[])":"fa3c074a","set(string,bytes)":"2b29c0fa","set(string,bytes32)":"2e3196a5","set(string,bytes32[])":"e6053250","set(string,bytes[])":"c91ca7ba","set(string,int256)":"2ef8ba74","set(string,int256[])":"de0fc9b3","set(string,string)":"e942b516","set(string,string[])":"59b39526","set(string,uint256)":"8a42ebe9","set(string,uint256[])":"7b8fed81","set(uint256,string,address)":"5eba0df0","set(uint256,string,address[])":"61141c97","set(uint256,string,bool)":"b3a64001","set(uint256,string,bool[])":"e298d00b","set(uint256,string,bytes)":"4d85ce80","set(uint256,string,bytes32)":"cf1cfa99","set(uint256,string,bytes32[])":"08f7b4b2","set(uint256,string,bytes[])":"93dbe6e0","set(uint256,string,int256)":"07d79d9a","set(uint256,string,int256[])":"8be19924","set(uint256,string,string)":"65560950","set(uint256,string,string[])":"cf72a2f3","set(uint256,string,uint256)":"22dc48fd","set(uint256,string,uint256[])":"db0075df","writeUpdatesBackToFile(bool)":"d6698dc4"},"id":8}